:020000040000FA
:0400000007EF00F016
:100008005F8249ED11F0E5EF10F0186E370E5E18BB
:10001800D8A411EF00F013EF00F033EF00F0470E13
:10002800036E2F0E046E800E056EAFEC10F0470EB7
:10003800036E2F0E046EC00E056EAFEC10F0000EAE
:10004800446E000E436E43C048F048C052F0020EA2
:100058005A6E3C0E5E6E70EF02F070EF02F0040E06
:10006800526039EF00F03BEF00F05AEF00F05050CB
:10007800D8A441EF00F043EF00F05AEF00F04F50E2
:10008800D8A449EF00F04BEF00F05AEF00F08A0EC9
:10009800116E000E126E185087EC0DF0250E036ECF
:1000A8002F0E046E800E056EAFEC10F0040E521881
:1000B800D8A461EF00F063EF00F019EF01F05050A1
:1000C800D8A469EF00F06BEF00F019EF01F04F5082
:1000D800D8A471EF00F073EF00F019EF01F0030EF0
:1000E800176E8A0E166E560EE82EFED7162EFCD701
:1000F800172EFAD7000E1A6E000E196E8A0E1924E2
:10010800D96E000E1A20DA6EB20E1924E16E000EB6
:100118001A20E26EDE50E618D8A495EF00F097EFAB
:1001280000F098EF00F0512A194A1A2A1ABEA6EFD1
:1001380000F01A5009E1040E195CD8A0A6EF00F0EF
:10014800A8EF00F082EF00F0040E5118D8A4AFEF2A
:1001580000F0B1EF00F0DEEF00F0030E036E2F0E9B
:10016800046E800E056EAFEC10F0470E036E2F0E76
:10017800046EC00E056EAFEC10F01A0E176E5E0E10
:10018800166E6E0EE82EFED7162EFCD7172EFAD74F
:1001980000D0000E186E18C043F0446A43C052F0F5
:1001A80052C051F03C0E5E6E010E506E030E5C6E36
:1001B80019EF01F0040E5160E4EF00F0E6EF00F0F3
:1001C80019EF01F0000E446E000E436E43C052F06A
:1001D80052C051F05C06D00E036E2E0E046E800ED7
:1001E800056EAFEC10F0C10E0F6E5C50300F00ECD6
:1001F80013F0680E036E2F0E046EC20E056EAFEC80
:1002080010F01A0E176E5E0E166E6E0EE82EFED7E2
:10021800162EFCD7172EFAD700D0470E036E2F0ED6
:10022800046EC00E056EAFEC10F05C50D8A41FEF42
:1002380001F021EF01F037EF01F08C0E036E2E0E66
:10024800046EC00E056EAFEC10F01A0E176E5E0E3F
:10025800166E6E0EE82EFED7162EFCD7172EFAD77E
:1002680000D023EF00F05004D8A43DEF01F03FEF99
:1002780001F073EF01F0580E036E2F0E046E800E1E
:10028800056EAFEC10F0040E52604DEF01F04FEF29
:1002980001F058EF01F0B20E116E000E126E1850F8
:1002A80087EC0DF073EF01F0030E176E8A0E166ED1
:1002B800560EE82EFED7162EFCD7172EFAD7000EAC
:1002C800186E18C052F052C050F0010E4F6E470E13
:1002D800036E2F0E046EC00E056EAFEC10F04F04C7
:1002E800D8A479EF01F07BEF01F070EF02F0140E63
:1002F800036E2F0E046E800E056EAFEC10F0040E28
:10030800526089EF01F08BEF01F092EF01F08A0E55
:10031800116E000E126E185087EC0DF0040E521874
:10032800D8A499EF01F09BEF01F070EF02F0030EF3
:10033800176E8A0E166E560EE82EFED7162EFCD7AE
:10034800172EFAD7000E1C6E000E1B6E8A0E1B2489
:10035800D96E000E1C20DA6EB20E1B24E16E000E60
:100368001C20E26EDE50E618D8A4BDEF01F0BFEF06
:1003780001F0C0EF01F0512A1B4A1C2A1CBECEEF27
:1003880001F01C5009E1040E1B5CD8A0CEEF01F06F
:10039800D0EF01F0AAEF01F0040E5118D8A4D7EF5E
:1003A80001F0D9EF01F03AEF02F0030E036E2F0EC1
:1003B800046E800E056EAFEC10F0470E036E2F0E24
:1003C800046EC00E056EAFEC10F01A0E176E5E0EBE
:1003D800166E6E0EE82EFED7162EFCD7172EFAD7FD
:1003E80000D0F20E036E2E0E046E800E056EAFEC7A
:1003F80010F0AE0E036E2E0E046EC00E056EAFEC3E
:1004080010F0000E1D6EB20E1D24D96EDA6A000EB1
:10041800DA22DF50026E1D50AA0F54EC12F01D2A8A
:10042800030E1D641AEF02F01CEF02F007EF02F052
:100438001A0E176E5E0E166E6E0EE82EFED7162E6C
:10044800FCD7172EFAD700D0000E446E000E436E6C
:1004580043C048F048C04FF04FC050F050C052F071
:1004680052C051F0030E5C6E2BEF00F0040E516089
:1004780040EF02F042EF02F031EF00F0D00E036ED1
:100488002E0E046E800E056EAFEC10F0470E036E54
:100498002F0E046EC00E056EAFEC10F01A0E176E1C
:1004A8005E0E166E6E0EE82EFED7162EFCD7172E91
:1004B800FAD700D09D0E036E2E0E046E800E056EC8
:1004C800AFEC10F0590E036E2E0E046EC00E056EC2
:1004D800AFEC10F01CEF02F01200176E0B0E17189D
:1004E800D8A479EF02F07BEF02F055EF03F00B0E82
:1004F8004A6E4350146E4450156E434A442A910E76
:10050800145C010E1558D8A08CEF02F08EEF02F0A3
:10051800A3EF03F0BF0E036E2E0E046E800E056E61
:10052800AFEC10F04850020DA80EF324D96E000E5F
:10053800F420DA6EDECF03F0DDCF04F0C00E056ED6
:10054800AFEC10F01A0E156E5E0E146E6E0EE82EDD
:10055800FED7142EFCD7152EFAD700D04850030F1B
:100568005A6E4850D8A4BBEF02F0BDEF02F0E2EF9C
:1005780002F0000E586E58C05BF0000E086E0E0EAA
:10058800076E000E046E0A0E036E46504524016E77
:10059800026A0236B4EC0EF001C009F002C00AF09B
:1005A800A9EC12F007C00DF008C00EF0720E0F6E25
:1005B800000E106EC2EC11F00EEF03F048C047F0C9
:1005C800010E586E58C05BF04750020D9E0EF32482
:1005D800D96E000EF420DA6EDECFF6FFDDCFF7FF1E
:1005E8000800F5CF6BF04750020D9E0EF324D96E2C
:1005F800000EF420DA6EDECF14F0DDCF15F0010E18
:100608001426000E152214C0F6FF15C0F7FF0800C7
:10061800F5CF6CF0000E166E5B04D8A416EF03F04D
:1006280018EF03F023EF03F0030E4818D8B41FEFB8
:1006380003F021EF03F023EF03F0010E166E16C04E
:1006480058F05850D8B42BEF03F02DEF03F035EFE6
:1006580003F0000E5B6E620E056E000E066E64EC13
:100668000FF0000E446E000E436E43C049F049C0BF
:100678004AF04AC04BF04BC04CF03C0E5E6E470E41
:10068800036E2F0E046E800E056EAFEC10F0470E51
:10069800036E2F0E046EC00E056EAFEC10F098EFCF
:1006A80004F043504410D8B45CEF03F05EEF03F05D
:1006B800A3EF03F0900E435C010E4458D8B067EFE7
:1006C80003F069EF03F0A3EF03F01728D8A46FEF46
:1006D80003F071EF03F0A3EF03F00B0E4A18D8A450
:1006E80078EF03F07AEF03F0A3EF03F03C0E5E6EB1
:1006F800000E4B6E0B0E4918D8A485EF03F087EF58
:1007080003F092EF03F04C064C28D8A48EEF03F0C8
:1007180090EF03F092EF03F0000E4C6E4806482865
:10072800D8A499EF03F09BEF03F09DEF03F0000EC0
:10073800486E4AC049F0000E446E000E436E0C0E1F
:100748001718D8A4AAEF03F0ACEF03F0D9EF03F021
:100758000C0E4A6E4350146E4450156E434A442A98
:10076800910E145C010E1558D8A0BDEF03F0BFEF31
:1007780003F02BEF04F0000E4B6E4BC048F048C05E
:100788004CF04CC05AF0470E036E2F0E046E800ECC
:10079800056EAFEC10F0470E036E2F0E046EC00E00
:1007A800056EAFEC10F098EF04F043504410D8B445
:1007B800E0EF03F0E2EF03F02BEF04F0900E435C60
:1007C800010E4458D8B0EBEF03F0EDEF03F02BEF38
:1007D80004F01728D8A4F3EF03F0F5EF03F02BEF9C
:1007E80004F00C0E4A18D8A4FCEF03F0FEEF03F057
:1007F8002BEF04F03C0E5E6E010E4B6E0C0E49188A
:10080800D8A409EF04F00BEF04F018EF04F04C2A19
:100818004C04146E020E146414EF04F016EF04F086
:1008280018EF04F0030E4C6E482A4804146E030EA9
:10083800146421EF04F023EF04F025EF04F0040E14
:10084800486E4AC049F0000E446E000E436E4B04D9
:10085800D8A431EF04F033EF04F03FEF04F0800E3A
:100868000F6E200E00EC13F0C00E0F6E2A0E00EC77
:1008780013F051EF04F04B50D8A445EF04F047EFC4
:1008880004F051EF04F0800E0F6E2A0E00EC13F006
:10089800C00E0F6E200E00EC13F04C50020DA80E87
:1008A800F324D96E000EF420DA6EDECF03F0DDCF2C
:1008B80004F0820E056EAFEC10F04C50146E156A01
:1008C800D89014361536AA0E1424D96E000E1520A9
:1008D800DA6EDECF03F0DDCF04F0C20E056EAFECAA
:1008E80010F0370E5E18D8A47CEF04F07EEF04F009
:1008F80098EF04F0470E036E2F0E046E800E056EFF
:10090800AFEC10F0470E036E2F0E046EC00E056E8E
:10091800AFEC10F048C047F0000E4B6E4BC048F0EB
:1009280048C04CF04CC05AF012001A50800B276E89
:100938001A501A242E6E19AEA4EF04F0A6EF04F094
:10094800A7EF04F02E802E50D8B4ADEF04F0AFEF2F
:1009580004F0C4EF04F02E28D8A4B5EF04F0B7EFE4
:1009680004F0BFEF04F0000E176E000E186E000EB4
:10097800196E000E1A6E198E000E1A6ECCEF04F066
:10098800000E176E000E186E000E196E000E1A6E0D
:100998001E50800B271A1E501E242F6E1DAED7EF37
:1009A80004F0D9EF04F0DAEF04F02F802F50D8B418
:1009B800E0EF04F0E2EF04F0F7EF04F02F28D8A4FA
:1009C800E8EF04F0EAEF04F0F2EF04F0000E1B6E1B
:1009D800000E1C6E000E1D6E000E1E6E1D8E000E8B
:1009E8001E6EFFEF04F0000E1B6E000E1C6E000E54
:1009F8001D6E000E1E6E1B501C101D101E10D8A45C
:100A080008EF05F00AEF05F022EF05F0000E176E6B
:100A1800000E186E000E196E000E1A6E800E191256
:100A28007F0E1A1227501A1217C017F018C018F0A4
:100A380019C019F01AC01AF065EF06F02E50D8A4A4
:100A480028EF05F02AEF05F034EF05F0000E176ED9
:100A5800000E186E000E196E000E1A6E65EF06F085
:100A68002F502EC01FF0206A1F5E000E205A7F0EE6
:100A78001F24286E000E2020296E17C023F018C0EE
:100A880024F019C025F01AC026F0000E176E000ECB
:100A9800186E000E196E000E1A6E000E2A6E000EE9
:100AA8002B6E000E2C6E000E2D6E000E2F6E95EF25
:100AB80005F02F50D8B463EF05F065EF05F07CEF33
:100AC80005F0D8902336243625362636D8901736A2
:100AD800183619361A362DAE74EF05F076EF05F094
:100AE80077EF05F01780D8902A362B362C362D361E
:100AF8001B50235C1C5024581D5025581E50265846
:100B0800D8A089EF05F08BEF05F094EF05F02D8C58
:100B18001B50235E1C50245A1D50255A1E50265A1D
:100B28002F2A190E2F649BEF05F09DEF05F05DEF5E
:100B380005F02350241025102610D8B4A6EF05F090
:100B4800A8EF05F0C0EF05F02A80C0EF05F0D890B7
:100B58001736183619361A362DAEB5EF05F0B7EF39
:100B680005F0B8EF05F01780D8902A362B362C36CA
:100B78002D362806D8A0290619AEC5EF05F0C7EF0F
:100B880005F0ABEF05F0000E2F6E2DAECEEF05F0A1
:100B9800D0EF05F0F4EF05F0FF0E2A141F6EFF0EDC
:100BA8002B14206EFF0E2C14216E7F0E2D14226E36
:100BB8001F50201021102210D8B4E5EF05F0E7EF00
:100BC80005F0EBEF05F0010E2F6EF4EF05F017A01E
:100BD800F0EF05F0F2EF05F0F4EF05F0E7EF05F0C0
:100BE8002F50D8B4FAEF05F0FCEF05F020EF06F02F
:100BF800010E1726000E182219221A221AA007EF32
:100C080006F009EF06F020EF06F017C01FF018C035
:100C180020F019C021F01AC022F0223422322132E9
:100C280020321F321FC017F020C018F021C019F061
:100C380022C01AF0284A292A29BE2BEF06F029508B
:100C480008E12828D8A02BEF06F02DEF06F038EFA2
:100C580006F0000E296E2868000E176E000E186E3A
:100C6800000E196E000E1A6E29BE45EF06F02950C7
:100C780006E12804D8B043EF06F045EF06F053EF3D
:100C880006F0000E296E000E286E000E176E000E7C
:100C9800186E000E196E000E1A6E000E276E28C010
:100CA8002EF02EA05AEF06F05CEF06F05FEF06F08C
:100CB800198E60EF06F0199ED8902E301A6E16EF36
:100CC80005F01200186EE10E036E2E0E046E800EF3
:100CD800056EAFEC10F0370E5E18D8A476EF06F06C
:100CE80078EF06F094EF06F0470E036E2F0E046EB1
:100CF800800E056EAFEC10F0470E036E2F0E046EDB
:100D0800C00E056EAFEC10F0000E446E000E436E80
:100D180043C052F052C05AF0030E5C6EBDEF07F0AC
:100D2800040E52609AEF06F09CEF06F0A3EF06F06F
:100D38008A0E116E000E126E185087EC0DF0040E1C
:100D48005218D8A4AAEF06F0ACEF06F05AEF07F055
:100D5800080E176E9D0E166E060EE82EFED7162E7E
:100D6800FCD7172EFAD7000E526E000E1A6E000E20
:100D7800196E8A0E1924D96E000E1A20DA6EB20E78
:100D88001924E16E000E1A20E26EDE50E618D8A48F
:100D9800D0EF06F0D2EF06F0D3EF06F0512A194A49
:100DA8001A2A1ABEE1EF06F01A5009E1040E195C7E
:100DB800D8A0E1EF06F0E3EF06F0BDEF06F0040E71
:100DC8005118D8A4EAEF06F0ECEF06F025EF07F08B
:100DD800360E036E2F0E046E800E056EAFEC10F00B
:100DE800470E036E2F0E046EC00E056EAFEC10F0AA
:100DF8001A0E176E5E0E166E6E0EE82EFED7162EA3
:100E0800FCD7172EFAD700D0020E5A6E3C0E5E6E33
:100E1800470E036E2F0E046E800E056EAFEC10F0B9
:100E2800000E496E49C04AF04AC043F0446A43C0C4
:100E380051F051C048F048C052F0030E5C6E5AEFB2
:100E480007F0040E51602BEF07F02DEF07F05AEF73
:100E580007F0000E516E5C06D00E036E2E0E046E67
:100E6800800E056EAFEC10F0C10E0F6E5C50300FA7
:100E780000EC13F0680E036E2F0E046EC20E056EA2
:100E8800AFEC10F01A0E176E5E0E166E6E0EE82E90
:100E9800FED7162EFCD7172EFAD700D0470E036EB2
:100EA8002F0E046EC00E056EAFEC10F05C50D8A487
:100EB80060EF07F062EF07F0BDEF07F03B0E5E6EE4
:100EC8003C0E5E18D8A46BEF07F06DEF07F06FEFDC
:100ED80007F0A7EF07F08C0E036E2E0E046E800E3F
:100EE800056EAFEC10F0BD0E036E2F0E046EC00E33
:100EF800056EAFEC10F0CA0E0F6E5EC007F0086A00
:100F0800000E0A6E0A0E096EFAEC0DF00750300F4B
:100F180000EC13F0CB0E0F6E5EC001F0026A000EFB
:100F2800046E0A0E036EB4EC0EF00150300F00ECA4
:100F380013F0CD0E036E2F0E046ECD0E056EAFECC2
:100F480010F064EF07F0470E036E2F0E046E800E4C
:100F5800056EAFEC10F0470E036E2F0E046EC00E38
:100F6800056EAFEC10F0000E526E52C05AF090EFC2
:100F780006F012000B6E0B04D8A4C5EF07F0C7EFFC
:100F880007F0D9EF07F04A04D8B4CDEF07F0CFEF58
:100F980007F0D9EF07F0010E5B6E010E546E000EDC
:100FA800556E000E586E0BC04AF0020E0B18D8A4EE
:100FB800E0EF07F0E2EF07F009EF08F0060E55182A
:100FC800D8A4E9EF07F0EBEF07F0F6EF07F0020E11
:100FD8004A18D8A4F2EF07F0F4EF07F0F6EF07F09D
:100FE80009EF08F0010E5B6E000E546E000E586E8D
:100FF800552A050E556403EF08F005EF08F009EFD0
:1010080008F0060E556E0BC04AF0030E0B18D8A454
:1010180010EF08F012EF08F046EF08F05450D8A48B
:1010280018EF08F01AEF08F046EF08F0010E5564C3
:1010380020EF08F022EF08F046EF08F05504D8A496
:1010480028EF08F02AEF08F035EF08F0030E4A18E9
:10105800D8A431EF08F033EF08F035EF08F046EF89
:1010680008F0010E5B6E000E586E5506020E5560B4
:1010780040EF08F042EF08F046EF08F0010E556E19
:101088000BC04AF05804D8B44CEF08F04EEF08F003
:1010980056EF08F04750D8B454EF08F056EF08F070
:1010A8008EEF08F04750020D9E0EF324D96E000E05
:1010B800F420DA6EDECF03F0DDCF04F0CA0E056E41
:1010C800AFEC10F04750020D9E0EF324D96E000EBF
:1010D800F420DA6EDECFF6FFDDCFF7FF0800F5CF9C
:1010E8006BF04750020D9E0EF324D96E000EF420CB
:1010F800DA6EDECF09F0DDCF0AF0010E0926000E08
:101108000A2209C0F6FF0AC0F7FF0800F5CF6CF005
:10111800EDEF08F05404D8A494EF08F096EF08F027
:10112800B7EF08F09CC003F09DC004F0CA0E056E2E
:10113800AFEC10F020EE9CF0DECFF6FFDDCFF7FF2E
:101148000800F5CF6BF0010E00019C25096E000E1A
:101158009D210A6E09C0F6FF0AC0F7FF0800F5CF07
:101168006CF0EDEF08F05550020D8E0EF324D96E99
:10117800000EF420DA6EDECF03F0DDCF04F0CA0EE5
:10118800056EAFEC10F05550020D8E0EF324D96E9B
:10119800000EF420DA6EDECFF6FFDDCFF7FF080091
:1011A800F5CF6BF05550020D8E0EF324D96E000E5C
:1011B800F420DA6EDECF09F0DDCF0AF0010E092641
:1011C800000E0A2209C0F6FF0AC0F7FF0800F5CF93
:1011D8006CF05B04D8A4F3EF08F0F5EF08F0FDEF2E
:1011E80008F0000E5B6E620E056E000E066E64EC73
:1011F8000FF01200DAEC12F04F0E00016B6F4E0E7A
:101208006C6F140E1B6EAE0E1C6E230E1D6E410EFF
:101218001E6E040E76EC11F001C009F002C00AF04F
:101228000B6A0C6A000E25EC0BF009C017F00AC017
:1012380018F00BC019F00CC01AF099EC04F017C0A4
:1012480030F018C031F019C032F01AC033F083EC16
:101258000CF030C03CF031C03DF017EC13F03CC04E
:1012680011F03DC012F0FCEC0FF0620E056E000E9E
:10127800066E64EC0FF0000E3E6EB20E3E24D96E80
:10128800DA6A000EDA223E50AA0F6BEC12F0DF6E1B
:101298003E2A030E3E6453EF09F055EF09F041EF83
:1012A80009F0140E1B6EAE0E1C6E230E1D6E410E41
:1012B8001E6E040E76EC11F001C009F002C00AF0AF
:1012C8000B6A0C6A000E25EC0BF009C017F00AC077
:1012D80018F00BC019F00CC01AF099EC04F017C004
:1012E80030F018C031F019C032F01AC033F083EC76
:1012F8000CF030C03CF031C03DF00A0E3F18D8A4C5
:1013080088EF09F08AEF09F096EF09F0010E5A6E9E
:101318003C0E5E6E470E036E2F0E046EC00E056EF9
:10132800AFEC10F05A50D8B49CEF09F09EEF09F0DA
:10133800AFEF09F05A04D8B4A4EF09F0A6EF09F00A
:10134800AFEF09F0070E5A18D8A4ADEF09F0AFEFC8
:1013580009F0B5EF09F0010E76EC10F03F6E00EFE2
:101368000AF0000E76EC10F03F6E00EF0AF0C80E9F
:10137800036E2F0E046E820E056EAFEC10F0FB0E9E
:10138800036E2F0E046E8A0E056EAFEC10F0F20E8F
:10139800036E2F0E046E8E0E056EAFEC10F017EC78
:1013A80013F03F50BEEC07F03CC011F03DC012F006
:1013B800FCEC0FF055EF09F03F5066EC06F055EFE6
:1013C80009F03F5071EC02F055EF09F03F502FEC57
:1013D8000AF055EF09F01DEC12F055EF09F006EC94
:1013E8000DF055EF09F0B6EC0FF055EF09F03F504E
:1013F80009EC00F055EF09F05A503A6E3B6A3B5041
:10140800000AD8B40AEF0AF055EF09F03A50000A7A
:10141800D8B4BBEF09F0010AD8B4E0EF09F0030A29
:10142800D8B4E5EF09F0010AD8B4EAEF09F0070AE1
:10143800D8B4EFEF09F0010AD8B4F3EF09F0030AC2
:10144800D8B4F7EF09F0010AD8B4FBEF09F055EF6B
:1014580009F007EF00F0196E0B0E1918D8A437EF32
:101468000AF039EF0AF03FEF0AF00B0E4A6E434AD2
:10147800442A73EF0AF043504410D8B446EF0AF0F8
:1014880048EF0AF073EF0AF0900E435C010E4458DF
:10149800D8B051EF0AF053EF0AF073EF0AF01928A9
:1014A800D8A459EF0AF05BEF0AF073EF0AF00B0EBD
:1014B8004A18D8A462EF0AF064EF0AF073EF0AF052
:1014C80046064628D8A46BEF0AF06DEF0AF06FEFD6
:1014D8000AF05704466E000E446E000E436E0C0E62
:1014E8001918D8A47AEF0AF07CEF0AF0ABEF0AF0EB
:1014F8000C0E4A6E4350146E4450156E434A442AEB
:10150800F50E145C010E1558D8A08DEF0AF08FEF78
:101518000AF0EFEF0AF0000E446E000E436E43C06F
:1015280046F03C0E5E6E020E5A6E470E036E2F0E8C
:10153800046E800E056EAFEC10F0470E036E2F0E92
:10154800046EC00E056EAFEC10F024EF0BF04350A4
:101558004410D8B4B2EF0AF0B4EF0AF0EFEF0AF093
:10156800F40E435C010E4458D8B0BDEF0AF0BFEF4B
:101578000AF0EFEF0AF01928D8A4C5EF0AF0C7EF70
:101588000AF0EFEF0AF00C0E4A18D8A4CEEF0AF0D2
:10159800D0EF0AF0EFEF0AF0462A4650146E156AAB
:1015A800FF0E5724166E176AFF0E17221450165C8A
:1015B8001750800A186E1550800A1858D8B0E7EFEF
:1015C8000AF0E9EF0AF0EBEF0AF0000E466E000EA3
:1015D800446E000E436E480E036E2E0E046E800E8F
:1015E800056EAFEC10F0C00E0F6E4650300F00ECD9
:1015F80013F0000E086E0E0E076E000E046E0A0E33
:10160800036E46504524016E026A0236B4EC0EF0B1
:1016180001C009F002C00AF0A9EC12F007C00DF0F1
:1016280008C00EF0720E0F6E000E106EC2EC11F0B4
:10163800720E036E000E046EC20E056EAFEC10F053
:101648001200116E1150D8B42CEF0BF02EEF0BF0E6
:1016580050EF0BF00CBE35EF0BF033EF0BF050EF03
:101668000BF009C00DF00AC00EF00BC00FF00CC053
:1016780010F00D1E0E1E0F1E101E0D2A000E0E223B
:101688000F2210220DC013F00EC014F00FC015F079
:1016980010C016F058EF0BF009C013F00AC014F090
:1016A8000BC015F00CC016F009500A100B100C10E6
:1016B800D8A461EF0BF063EF0BF06DEF0BF0000EA9
:1016C800096E000E0A6E000E0B6E000E0C6EFEEF19
:1016D8000BF0960E126E77EF0BF0122AD890163296
:1016E800153214321332000E13140D6E000E14143A
:1016F8000E6E000E15140F6EFE0E1614106E0D50A1
:101708000E100F101010D8A48CEF0BF08EEF0BF00A
:1017180071EF0BF09CEF0BF0122A010E1326000E4E
:10172800142215221622D89016321532143213328A
:10173800000E13140D6E000E14140E6E000E151408
:101748000F6EFF0E1614106E0D500E100F101010A5
:10175800D8A4B1EF0BF0B3EF0BF090EF0BF0BBEFA9
:101768000BF01206D890133614361536163615BEF9
:10177800C0EF0BF0C2EF0BF0CAEF0BF0020E1260D5
:10178800C8EF0BF0CAEF0BF0B5EF0BF012B0CFEFCC
:101798000BF0D1EF0BF0D2EF0BF0159ED890123270
:1017A80012C00DF00E6A0F6A106A0DC010F00F6AB1
:1017B8000E6A0D6A0D5013120E5014120F501512A6
:1017C800105016121150D8B4ECEF0BF0EEEF0BF0EE
:1017D800F6EF0BF00CBEF5EF0BF0F3EF0BF0F6EFB6
:1017E8000BF0168E13C009F014C00AF015C00BF0E8
:1017F80016C00CF01200819A818C818E81B207EF9D
:101808000CF009EF0CF00CEF0CF0010E82EF0CF06D
:1018180081B411EF0CF013EF0CF016EF0CF0040E7E
:1018280082EF0CF081B61BEF0CF01DEF0CF020EFEF
:101838000CF0070E82EF0CF081B825EF0CF027EFC3
:101848000CF02AEF0CF00A0E82EF0CF0818A819CD2
:10185800818E81B232EF0CF034EF0CF037EF0CF0E0
:10186800020E82EF0CF081B43CEF0CF03EEF0CF06E
:1018780041EF0CF0050E82EF0CF081B646EF0CF04C
:1018880048EF0CF04BEF0CF0080E82EF0CF081B82B
:1018980050EF0CF052EF0CF055EF0CF00B0E82EFFE
:1018A8000CF0818A818C819E819E81B25EEF0CF062
:1018B80060EF0CF063EF0CF0030E82EF0CF081B4D4
:1018C80068EF0CF06AEF0CF06DEF0CF0060E82EF8B
:1018D8000CF081B672EF0CF074EF0CF077EF0CF0AF
:1018E800090E82EF0CF081B87CEF0CF07EEF0CF063
:1018F80081EF0CF00C0E82EF0CF0FF0E1200323468
:101908003334396E3950D8A48CEF0CF08EEF0CF0CC
:1019180098EF0CF0000E306E000E316E000E326E35
:10192800000E336E05EF0DF030C034F031C035F0E5
:1019380032C036F033C037F0200EA8EF0CF0D89044
:101948003732363235323432E82EA3EF0CF03450C9
:10195800386E328EFF0E3016FF0E3116FF0E32161D
:10196800000E3316960E395E39BEBFEF0CF0BDEF90
:101978000CF0D5EF0CF03950800A970FD8B0C7EFAC
:101988000CF0C9EF0CF0CBEF0CF08EEF0CF0D89008
:101998003332323231323032393ECBEF0CF0EDEFA8
:1019A8000CF01F0E3964DBEF0CF0DDEF0CF0E5EF07
:1019B8000CF08EEF0CF0D8903036313632363336A4
:1019C80039063950D8A4EBEF0CF0EDEF0CF0DFEF4F
:1019D8000CF03850D8B4F3EF0CF0F5EF0CF0FDEF45
:1019E8000CF0331E321E311E306C000E31223222B2
:1019F800332230C030F031C031F032C032F033C061
:101A080033F012006A0E036E2E0E046E800E056E01
:101A1800AFEC10F0C50E0F6E57C007F0086A000E45
:101A28000A6E0A0E096EFAEC0DF00750300F00EC42
:101A380013F0C60E0F6E57C001F0026A000E046E56
:101A48000A0E036EB4EC0EF00150300F00EC13F0E8
:101A5800CF0E0F6E330E00EC13F01A0E126E5E0EE0
:101A6800116E6E0EE82EFED7112EFCD7122EFAD765
:101A780000D0F29EF29CF29AF294D59EE3EC11F01B
:101A8800350E026E2E0E036E39EC12F0000E136E38
:101A98006EEF0DF0000E046E0A0E036E46504524DC
:101AA800016E026A0236B4EC0EF001C007F002C003
:101AB80008F0000E0A6E0A0E096EFAEC0DF00750D7
:101AC800300FF4EC12F0450E026E2E0E036E39EC58
:101AD80012F0132A5750135CD8A075EF0DF077EF6A
:101AE8000DF04EEF0DF0F28EF28CF28AF294D58E54
:101AF800020E5A6E000E446E000E436E43C048F04C
:101B08003C0E5E6E1200156E0B0E1518D8A48FEFE2
:101B18000DF091EF0DF0A4EF0DF03C0E5E6E5250FB
:101B28001124D96E000E1220DA6E310EDF6E52507B
:101B3800C50F0F6E2A0E00EC13F0522ABFEF0DF0FE
:101B48000C0E1518D8A4ABEF0DF0ADEF0DF0BFEFEC
:101B58000DF03C0E5E6E52501124D96E000E12200C
:101B6800DA6E300EDF6E5250C50F0F6E2A0E00EC83
:101B780013F0A1EF0DF04350136E4450146E434A16
:101B8800442AF40E135C010E1458D8B0CEEF0DF0B1
:101B9800D0EF0DF0D8EF0DF05250C50F0F6E5F0E5D
:101BA80000EC13F0E9EF0DF0F50E435C010E44581C
:101BB800D8A0E1EF0DF0E3EF0DF0E9EF0DF0525092
:101BC800C50F0F6E200E00EC13F0E80E431807E166
:101BD800030E4418D8A4F3EF0DF0F5EF0DF0F9EF6C
:101BE8000DF0000E446E000E436E1200000E0C6ED7
:101BF8000ABE03EF0EF001EF0EF009EF0EF0096CCC
:101C08000A1ED8B00A2A010E0C6E08BE10EF0EF09C
:101C18000EEF0EF016EF0EF0076C081ED8B0082A6B
:101C2800010E0C1A000E0E6E000E0D6E09500A10F1
:101C3800D8B421EF0EF023EF0EF04BEF0EF0010EAB
:101C48000B6E2BEF0EF0D89009360A360B2A0AAE27
:101C580030EF0EF032EF0EF027EF0EF0D8900D3681
:101C68000E360950075C0A500858D8A03EEF0EF00F
:101C780040EF0EF045EF0EF00950075E0A50085A83
:101C88000D80D8900A3209320B2E32EF0EF00C502C
:101C9800D8B451EF0EF053EF0EF057EF0EF00D6C75
:101CA8000E1ED8B00E2A0DC007F00EC008F01200A4
:101CB800000E956E9450F80B946E8290020E046E8E
:101CC800040E036EBA0EE82EFED7032EFCD7042EA0
:101CD800FAD700D0000E016E330E00EC12F01B0E86
:101CE800036E9E0EE82EFED7032EFCD700D0000E02
:101CF800016E330E00EC12F0A60EE82EFED700D0CF
:101D0800000E016E330E00EC12F000D000D000F08F
:101D1800000E016E020E00EC12F0A60EE82EFED7A1
:101D280000D0000E016E380E00EC12F0A60EE82E60
:101D3800FED700D0000E016E010E00EC12F0040E6A
:101D4800036E3E0EE82EFED7032EFCD7000E016E62
:101D58000C0E00EC12F0A60EE82EFED700D01200F2
:101D6800000E066E02BEBDEF0EF0BBEF0EF0C3EF25
:101D78000EF0016C021ED8B0022A010E066E04BED7
:101D8800CAEF0EF0C8EF0EF0CEEF0EF0036C041E93
:101D9800D8B0042A03500410D8B4D5EF0EF0D7EF0A
:101DA8000EF0FBEF0EF0010E056EDFEF0EF0D8908F
:101DB80003360436052A04AEE4EF0EF0E6EF0EF023
:101DC800DBEF0EF00350015C04500258D8A0EFEF8F
:101DD8000EF0F1EF0EF0F5EF0EF00350015E045037
:101DE800025AD89004320332052EE6EF0EF0065060
:101DF800D8B401EF0FF003EF0FF007EF0FF0016C0D
:101E0800021ED8B0022A01C001F002C002F012007E
:101E1800020E80EC12F0406E010E80EC12F0416E62
:101E2800000E80EC12F0426E40AC1DEF0FF01FEF79
:101E38000FF02FEF0FF040380F0B010B300F0001A0
:101E4800626F62C081F040500F0B300F636F63C048
:101E580082F03DEF0FF040380F0B030B300F0001FD
:101E6800626F62C081F040500F0B300F636F63C028
:101E780082F03A0E646F64C083F041380F0B0F0B89
:101E8800300F656F65C084F041500F0B300F666FDF
:101E980066C085F03A0E676F67C086F042380F0B50
:101EA8000F0B300F686F68C087F042500F0B300F70
:101EB800696F69C088F0000E896F200E6A6F120082
:101EC80059500E0DF3CF07F0000E086E0850052488
:101ED800D96E000E0620DA6EDF50026E0750082415
:101EE80054EC12F0082A0D0E08647DEF0FF07FEF16
:101EF8000FF06AEF0FF0592A0A0E5918D8A487EF85
:101F08000FF089EF0FF08FEF0FF0000E596E0A0EE9
:101F1800576E98EF0FF00A0E576095EF0FF097EF96
:101F28000FF098EF0FF0572A0A0E5718D8A49FEF12
:101F38000FF0A1EF0FF0B5EF0FF05950D8B4A7EF9D
:101F48000FF0A9EF0FF0B5EF0FF0452A0B0E45186B
:101F5800D8A4B1EF0FF0B3EF0FF0B5EF0FF0010E0B
:101F6800456E1200CF0E0F6E340E00EC13F0000E0B
:101F7800446E000E436E43C048F048C045F045C06B
:101F880046F046C057F057C059F0620E056E000E75
:101F9800066E64EC0FF0000E5B6E7B0E036E2E0E69
:101FA800046E800E056EAFEC10F01A0E126E5E0E07
:101FB800116E6E0EE82EFED7112EFCD7122EFAD710
:101FC80000D0CA0E0F6E5950300F00EC13F01A0EE5
:101FD800126E5E0E116E6E0EE82EFED7112EFCD715
:101FE800122EFAD700D0020E5A6E3C0E5E6E120008
:101FF800200E00016D6FCE0E0F6E11C001F012C0E1
:1020080002F0000E046E0A0E036E3CEC10F0015054
:10201800300F00EC13F0CF0E0F6E11C001F012C09C
:1020280002F0000E046E0A0E036E17EC11F0015058
:10203800300F00EC13F011C001F012C002F0000ED6
:10204800046E0A0E036E3CEC10F00150300F0001D4
:102058006E6F11C001F012C002F0000E046E0A0E7D
:10206800036E17EC11F00150300F00016F6F120072
:10207800000E066E000E056E03500410D8B447EF2C
:1020880010F049EF10F071EF10F0010E076E51EFEC
:1020980010F0D89003360436072A04AE56EF10F035
:1020A80058EF10F04DEF10F0D89005360636035073
:1020B800015C04500258D8A064EF10F066EF10F0ED
:1020C8006BEF10F00350015E0450025A0580D8905F
:1020D80004320332072E58EF10F005C001F006C095
:1020E80002F01200016E0150D8A47DEF10F07FEFCE
:1020F80010F083EF10F0FFEC0BF0AEEF10F00104DE
:10210800D8A489EF10F08BEF10F0AEEF10F0FFECD1
:102118000BF0566E5628D8B494EF10F096EF10F0E6
:10212800A3EF10F05D50D8B49CEF10F09EEF10F0C4
:10213800A3EF10F0000E5D6E5650AEEF10F056286B
:10214800D8A4A9EF10F0ABEF10F0ADEF10F0010E2E
:102158005D6EFF0E1200000E016E055000EC12F0CD
:10216800CCEF10F0010E016E03C0F6FF04C0F7FFBC
:10217800F86A050EF76403D00800F55005D0F6CFCD
:10218800E9FFF7CFEAFFEF5000EC12F0034A042A08
:1021980003C0F6FF04C0F7FFF86A050EF76403D022
:1021A8000800F55005D0F6CFE9FFF7CFEAFFEF506A
:1021B8000009D8A4E2EF10F0E4EF10F0B6EF10F049
:1021C80012002A0EF66E250EF76E000EF86E00EE5F
:1021D8008EF010EE28F00900F5CFEEFFE550E15043
:1021E800FAE19C0EF66E260EF76E000EF86E0900E8
:1021F800F5CF5CF00900F5CF5DF00900F5CF5EF092
:1022080000EE60F02E0EEE6AE806FDE100EE40F00A
:102218001C0EEE6AE806FDE15F905F92000EF86E14
:102228000001FEEF08F003500410D8B41EEF11F0BF
:1022380020EF11F044EF11F0010E056E28EF11F0B8
:10224800D89003360436052A04AE2DEF11F02FEF8F
:1022580011F024EF11F00350015C04500258D8A08B
:1022680038EF11F03AEF11F03EEF11F00350015E34
:102278000450025AD89004320332052E2FEF11F081
:1022880001C001F002C002F012000600DE0ED624E2
:10229800D66E0B0ED720D76EF2A455EF11F057EF7C
:1022A80011F074EF11F00001604B612B510E6019B1
:1022B8006111D8A462EF11F064EF11F073EF11F01F
:1022C8005E065E28D8A46BEF11F06DEF11F06FEF8A
:1022D80011F03C0E5E6E000E616F000E606FF2949E
:1022E8005F921100086E08C003F0D8900336D890AA
:1022F8000336C250C30B0310C26EC28296EF11F0B0
:10230800C4CF03F0030E03160350056E046AC350CE
:10231800066E076A04500610016E05500710026E1B
:102328009DEF11F0C2B29BEF11F09DEF11F084EF19
:1023380011F01200000E80EC12F0046E04508009B7
:10234800026E000EBCEC12F0020E80EC12F0046E6D
:1023580004504009026E020EBCEC12F0930E026E9D
:10236800070EBCEC12F0000E80EC12F0046E045064
:102378007F0B026E000EBCEC12F01200000E136E02
:1023880013500F24D96E000E1020DA6E1350116E00
:10239800126A0D5011246BEC12F0DF6E132A0D0E29
:1023A8001364D9EF11F0DBEF11F0C4EF11F020EE58
:1023B8000EF00F50D9261050DA22DF6A1200948EE0
:1023C800949CAC9EAC9CAC8AAC98AC96AC84AC9219
:1023D800AB8EAB9CAB9AAB88AB96AB94AB92B89EEA
:1023E800B88CB898B896B892B890400EAF6E9D88E1
:1023F8009E989D8A9E9A1200026E01B006EF12F016
:1024080009EF12F082820AEF12F0829202C083FF73
:1024180082848294958E828082928284829483BE02
:1024280018EF12F01AEF12F011EF12F08290959E49
:102438001200CF0E0F6E320E00EC13F01A0E126E51
:102448005E0E116E6E0EE82EFED7112EFCD7122EE0
:10245800FAD700D0000E446E000E436E43C048F019
:10246800020E5A6E3C0E5E6E120045EF12F002C06C
:10247800F6FF03C0F7FF0800F550F4EC12F0024A2B
:10248800032A02C0F6FF03C0F7FF0800F550000951
:10249800D8A451EF12F053EF12F03BEF12F01200F4
:1024A800046E47EC13F0A00E31EC13F0045031EC3D
:1024B80013F0025031EC13F043EC13F0410E036EAD
:1024C800EE0EE82EFED7032EFCD700D01200026EC7
:1024D80047EC13F0A00E31EC13F0025031EC13F07E
:1024E8003BEC13F0A10E31EC13F02BEC13F0036E60
:1024F80043EC13F003501200026E47EC13F0D00EB9
:1025080031EC13F0025031EC13F03BEC13F0D10E28
:1025180031EC13F02BEC13F0036E43EC13F0035083
:102528001200EC2FE92FD42FD72FDA2FDD2FF52F1C
:10253800D12FE62FF82FE32FE02FEF2F852F772FBE
:10254800AF2F932FA12F3130313007500902F3CF2D
:102558000BF0F4CF0CF007500A02F3500C26085089
:102568000902F3500C260BC007F00CC008F012004B
:10257800036E47EC13F0D00E31EC13F0035031EC3E
:1025880013F0025031EC13F043EC13F01200C28048
:10259800C19AC198C186C184C182C180C08AC098CD
:1025A800C096C094C082C090C08E12005CEC0EF041
:1025B800CBEC12F037EC13F0E7EC12F00CEC13F064
:1025C8009EEC11F01200F28EF28CF28AF2940B0E4D
:1025D800D76EDC0ED66ED58ED59CD59AD5861200D0
:1025E800016E9EA8FAEF12F0FCEF12F0F5EF12F070
:1025F80001C0ADFF9E981200106E000E016E0F50C4
:1026080000EC12F0010E016E105000EC12F01200F6
:1026180094869488280EC66E310EC86EC79CC78EE5
:102628009E96A19612000CEC0FF0810E036E000E20
:10263800046EC00E056EAFEC10F012009EA627EFD8
:1026480013F029EF13F022EF13F09E9612003FECDF
:1026580013F04BEC13F0C9501200016E01C0C9FF12
:1026680022EC13F012001E0E936EF19E1200C5822A
:1026780022EC13F01200C58622EC13F01200C58478
:1026880022EC13F01200C58022EC13F01200C58A68
:07269800C588120003013C9C
:102E3400002320202054494D45202020455620536E
:102E4400500A0D004C6F6773203A2D20202020205B
:102E5400202020200020202020204368616E676508
:102E6400642020202000446F776E6C6F6164696E6B
:102E7400672E2E2E20200020204C6F677320636C59
:102E8400656172656420200020417474656D7074FE
:102E940073206F7665722020002020506173737751
:102EA4006F7264204E6F742020002020537563637A
:102EB40065737366756C6C7920200020456E7465AB
:102EC40072656420696E746F203A20002057726F17
:102ED4006E672050617373776F7264200020456EB3
:102EE4007465722050617373776F7264200050614F
:102EF4007373776F7264206368616E6765640050F2
:102F0400617373776F7264204D61746368656400E4
:102F1400436F6E6669726D2050617373776F72646C
:102F24000043757272656E742050617373776F72AB
:102F34006400436F72726563742070617373776F9A
:102F44007264002020202020202020202020202007
:102F54002020200020204E65772050617373776F06
:102F640072642000202D3E20617474656D7074734A
:102F74002020005365742074696D65202020202072
:102F84000056696577206C6F67202020202000435D
:102F94006C656172206C6F6720202020004368619B
:102FA4006E67652070617373202000446F776E6CC8
:102FB4006F6164206C6F672000205761697420661C
:102FC4006F72200054494D4500736563004320002F
:102FD400473100473200473300473400434C004434
:102FE4004C00564C00474E004F4E00435000535087
:0B2FF4000047520053540045560000F7
:020000040020DA
:08000000FFFFFFFFFFFFFFFF00
:020000040030CA
:0E000000FF071F1FFF8285FF0FC00FE00F409C
:00000001FF
