:020000040000FA
:0400000007EF00F016
:100008005F824EED13F0EAEF12F0186E370E5E18AD
:10001800D8A411EF00F013EF00F033EF00F0580E02
:10002800036E2F0E046E800E056EB4EC12F0580E9F
:10003800036E2F0E046EC00E056EB4EC12F0000EA7
:10004800446E000E436E43C049F049C052F0020EA0
:100058005A6E3C0E5E6E9CEF02F09CEF02F0040EAE
:10006800526039EF00F03BEF00F05AEF00F05050CB
:10007800D8A441EF00F043EF00F05AEF00F04F50E2
:10008800D8A449EF00F04BEF00F05AEF00F08B0EC8
:10009800116E000E126E18508CEC0FF0360E036EB7
:1000A8002F0E046E800E056EB4EC12F0040E52187A
:1000B800D8A461EF00F063EF00F019EF01F05050A1
:1000C800D8A469EF00F06BEF00F019EF01F04F5082
:1000D800D8A471EF00F073EF00F019EF01F0030EF0
:1000E800176E8A0E166E560EE82EFED7162EFCD701
:1000F800172EFAD7000E1A6E000E196E8B0E1924E1
:10010800D96E000E1A20DA6EB30E1924E16E000EB5
:100118001A20E26EDE50E618D8A495EF00F097EFAB
:1001280000F098EF00F0512A194A1A2A1ABEA6EFD1
:1001380000F01A5009E1040E195CD8A0A6EF00F0EF
:10014800A8EF00F082EF00F0040E5118D8A4AFEF2A
:1001580000F0B1EF00F0DEEF00F0140E036E2F0E8A
:10016800046E800E056EB4EC12F0580E036E2F0E5E
:10017800046EC00E056EB4EC12F01A0E176E5E0E09
:10018800166E6E0EE82EFED7162EFCD7172EFAD74F
:1001980000D0000E186E18C043F0446A43C052F0F5
:1001A80052C051F03C0E5E6E010E506E030E5C6E36
:1001B80019EF01F0040E5160E4EF00F0E6EF00F0F3
:1001C80019EF01F0000E446E000E436E43C052F06A
:1001D80052C051F05C06E10E036E2E0E046E800EC6
:1001E800056EB4EC12F0C10E0F6E5C50300FE9ECE6
:1001F80014F0690E036E2F0E046EC20E056EB4EC79
:1002080012F01A0E176E5E0E166E6E0EE82EFED7E0
:10021800162EFCD7172EFAD700D0580E036E2F0EC5
:10022800046EC00E056EB4EC12F05C50D8A41FEF3B
:1002380001F021EF01F037EF01F09D0E036E2E0E55
:10024800046EC00E056EB4EC12F01A0E176E5E0E38
:10025800166E6E0EE82EFED7162EFCD7172EFAD77E
:1002680000D023EF00F05004D8A43DEF01F03FEF99
:1002780001F073EF01F08C0E036E2E0E046E800EEB
:10028800056EB4EC12F0040E52604DEF01F04FEF22
:1002980001F058EF01F0B30E116E000E126E1850F7
:1002A8008CEC0FF073EF01F0030E176E8A0E166ECA
:1002B800560EE82EFED7162EFCD7172EFAD7000EAC
:1002C800186E18C052F052C050F0010E4F6E580E02
:1002D800036E2F0E046EC00E056EB4EC12F04F04C0
:1002E800D8A479EF01F07BEF01F09CEF02F0250E26
:1002F800036E2F0E046E800E056EB4EC12F0040E21
:10030800526089EF01F08BEF01F092EF01F08B0E54
:10031800116E000E126E18508CEC0FF0040E52186D
:10032800D8A499EF01F09BEF01F09CEF02F0030EC7
:10033800176E8A0E166E560EE82EFED7162EFCD7AE
:10034800172EFAD7000E1C6E000E1B6E8B0E1B2488
:10035800D96E000E1C20DA6EB30E1B24E16E000E5F
:100368001C20E26EDE50E618D8A4BDEF01F0BFEF06
:1003780001F0C0EF01F0512A1B4A1C2A1CBECEEF27
:1003880001F01C5009E1040E1B5CD8A0CEEF01F06F
:10039800D0EF01F0AAEF01F0040E5118D8A4D7EF5E
:1003A80001F0D9EF01F04AEF02F0140E036E2F0EA0
:1003B800046E800E056EB4EC12F0580E036E2F0E0C
:1003C800046EC00E056EB4EC12F01A0E176E5E0EB7
:1003D800166E6E0EE82EFED7162EFCD7172EFAD7FD
:1003E80000D0030E036E2F0E046E800E056EB4EC63
:1003F80012F0BF0E036E2E0E046EC00E056EB4EC26
:1004080012F0000E1D6EB30E1D24D96EDA6A000EAE
:10041800DA22DF50026E1D50AA0F3DEC14F01D2A9F
:10042800030E1D641AEF02F01CEF02F007EF02F052
:100438001A0E176E5E0E166E6E0EE82EFED7162E6C
:10044800FCD7172EFAD700D0580E036E2F0E046E65
:10045800800E056EB4EC12F0580E036E2F0E046E6B
:10046800C00E056EB4EC12F0000E446E000E436E22
:1004780043C049F049C04FF04FC050F050C052F04F
:1004880052C051F0030E5C6E2BEF00F0040E516069
:1004980050EF02F052EF02F031EF00F0E10E036E80
:1004A8002E0E046E800E056EB4EC12F0580E036E1C
:1004B8002F0E046EC00E056EB4EC12F01A0E176EF5
:1004C8005E0E166E6E0EE82EFED7162EFCD7172E71
:1004D800FAD700D0AE0E036E2E0E046E800E056E97
:1004E800B4EC12F0370E036E2E0E046EC00E056EBD
:1004F800B4EC12F01A0E176E5E0E166E6E0EE82E23
:10050800FED7162EFCD7172EFAD700D0580E036E3A
:100518002F0E046E800E056EB4EC12F0580E036EAA
:100528002F0E046EC00E056EB4EC12F038EF02F018
:100538001200176E0B0E1718D8A4A5EF02F0A7EF3C
:1005480002F081EF03F00B0E4B6E4350146E4450D3
:10055800156E434A442A910E145C010E1558D8A012
:10056800B8EF02F0BAEF02F0CFEF03F0D00E036E4F
:100578002E0E046E800E056EB4EC12F04950020D7A
:10058800A90EF324D96E000EF420DA6EDECF03F044
:10059800DDCF04F0C00E056EB4EC12F01A0E156E25
:1005A8005E0E146E6E0EE82EFED7142EFCD7152E96
:1005B800FAD700D04950030F5A6E4950D8A4E7EF34
:1005C80002F0E9EF02F00EEF03F0000E586E58C08B
:1005D8005BF0000E086E0E0E076E000E046E0A0E1B
:1005E800036E47504624016E026A0236B9EC10F0D9
:1005F80001C009F002C00AF092EC14F007C00DF037
:1006080008C00EF0730E0F6E000E106EC7EC13F0DC
:100618003AEF03F049C048F0010E586E58C05BF03D
:100628004850020D9F0EF324D96E000EF420DA6EA6
:10063800DECFF6FFDDCFF7FF0800F5CF6CF04850AE
:10064800020D9F0EF324D96E000EF420DA6EDECF71
:1006580014F0DDCF15F0010E1426000E152214C07B
:10066800F6FF15C0F7FF0800F5CF6DF0000E166E07
:100678005B04D8A442EF03F044EF03F04FEF03F01C
:10068800030E4918D8B44BEF03F04DEF03F04FEFCA
:1006980003F0010E166E16C058F05850D8B457EF34
:1006A80003F059EF03F061EF03F0000E5B6E630E89
:1006B800056E000E066E69EC11F0000E446E000E19
:1006C800436E43C04AF04AC04BF04BC04CF04CC09C
:1006D8004DF03C0E5E6E580E036E2F0E046E800EAB
:1006E800056EB4EC12F0580E036E2F0E046EC00E99
:1006F800056EB4EC12F0C2EF04F043504410D8B4C5
:1007080088EF03F08AEF03F0CFEF03F0900E435C1D
:10071800010E4458D8B093EF03F095EF03F0CFEFF4
:1007280003F01728D8A49BEF03F09DEF03F0CFEF59
:1007380003F00B0E4B18D8A4A4EF03F0A6EF03F0B8
:10074800CFEF03F03C0E5E6E000E4C6E0B0E4A1897
:10075800D8A4B1EF03F0B3EF03F0BEEF03F04D06FA
:100768004D28D8A4BAEF03F0BCEF03F0BEEF03F0B6
:10077800000E4D6E49064928D8A4C5EF03F0C7EF0F
:1007880003F0C9EF03F0000E496E4BC04AF0000EAB
:10079800446E000E436E0C0E1718D8A4D6EF03F063
:1007A800D8EF03F005EF04F00C0E4B6E4350146EB7
:1007B8004450156E434A442A910E145C010E155894
:1007C800D8A0E9EF03F0EBEF03F057EF04F0000EC9
:1007D8004C6E4CC049F049C04DF04DC05AF0580E0F
:1007E800036E2F0E046E800E056EB4EC12F0580ED8
:1007F800036E2F0E046EC00E056EB4EC12F0C2EF3D
:1008080004F043504410D8B40CEF04F00EEF04F099
:1008180057EF04F0900E435C010E4458D8B017EF20
:1008280004F019EF04F057EF04F01728D8A41FEFCD
:1008380004F021EF04F057EF04F00C0E4B18D8A485
:1008480028EF04F02AEF04F057EF04F03C0E5E6E38
:10085800010E4C6E0C0E4A18D8A435EF04F037EF91
:1008680004F044EF04F04D2A4D04146E020E146493
:1008780040EF04F042EF04F044EF04F0030E4D6E35
:10088800492A4904146E030E14644DEF04F04FEF27
:1008980004F051EF04F0040E496E4BC04AF0000E0C
:1008A800446E000E436E4C04D8A45DEF04F05FEF75
:1008B80004F06BEF04F0800E0F6E200EE9EC14F0DC
:1008C800C00E0F6E2A0EE9EC14F07DEF04F04C50C8
:1008D800D8A471EF04F073EF04F07DEF04F0800EFC
:1008E8000F6E2A0EE9EC14F0C00E0F6E200EE9EC24
:1008F80014F04D50020DA90EF324D96E000EF42009
:10090800DA6EDECF03F0DDCF04F0820E056EB4ECB4
:1009180012F04D50146E156AD89014361536AB0E79
:100928001424D96E000E1520DA6EDECF03F0DDCF69
:1009380004F0C20E056EB4EC12F0370E5E18D8A49F
:10094800A8EF04F0AAEF04F0C2EF04F0580E036E0B
:100958002F0E046E800E056EB4EC12F0580E036E66
:100968002F0E046EC00E056EB4EC12F0000E4C6E25
:100978004CC049F049C04DF04DC05AF01200086E05
:10098800480E036E2E0E046E800E056EB4EC12F047
:100998004550D8A4D2EF04F0D4EF04F0EDEF04F002
:1009A8005EA0D9EF04F0DBEF04F0E5EF04F0820E6F
:1009B800036E000E046EC20E056EB4EC12F0EDEF7D
:1009C80004F0660E036E2F0E046EC80E056EB4ECAE
:1009D80012F04504D8A4F3EF04F0F5EF04F00EEF9D
:1009E80005F05EA0FAEF04F0FCEF04F006EF05F066
:1009F800820E036E000E046EC20E056EB4EC12F089
:100A08000EEF05F0660E036E2F0E046EC50E056E12
:100A1800B4EC12F0020E4518D8A415EF05F017EF44
:100A280005F030EF05F05EA01CEF05F01EEF05F0B5
:100A380028EF05F0820E036E000E046EC20E056EDE
:100A4800B4EC12F030EF05F0660E036E2F0E046E54
:100A5800C20E056EB4EC12F00B0E0818D8A437EFCE
:100A680005F039EF05F098EF05F00B0E4B6E43508B
:100A7800066E4450076E434A442A910E065C010EE6
:100A88000758D8A04AEF05F04CEF05F036EF06F00E
:100A980082C006F0063AF00E061600018351D00F08
:100AA8000610406E85C006F0063AF00E061686510E
:100AB800D00F0610416E88C006F0063AF00E0616F2
:100AC8008951D00F0610426E40C002F0020EA5EC0C
:100AD80014F041C002F0010EA5EC14F042C002F07F
:100AE800000EA5EC14F07B0E036E2E0E046EC00EE5
:100AF800056EB4EC12F01A0E076E5E0E066E6E0EE0
:100B0800E82EFED7062EFCD7072EFAD700D0000E07
:100B1800456E45C043F0446A43C049F0020E5A6E20
:100B28003C0E5E6E94EF06F043504410D8B49FEF2D
:100B380005F0A1EF05F036EF06F0900E435C010ECC
:100B48004458D8B0AAEF05F0ACEF05F036EF06F040
:100B58000828D8A4B2EF05F0B4EF05F036EF06F098
:100B68000B0E4B18D8A4BBEF05F0BDEF05F036EF20
:100B780006F04550D8A4C3EF05F0C5EF05F0E0EF47
:100B880005F00001892B3A0E8919D8A4CEEF05F09B
:100B9800D0EF05F032EF06F0300E896F882B360E55
:100BA8008819D8A4DAEF05F0DCEF05F032EF06F08B
:100BB800300E886F32EF06F04504D8A4E6EF05F052
:100BC800E8EF05F003EF06F00001862B3A0E8619D0
:100BD800D8A4F1EF05F0F3EF05F032EF06F0300E90
:100BE800866F852B360E8519D8A4FDEF05F0FFEF2B
:100BF80005F032EF06F0300E856F32EF06F0020E88
:100C08004518D8A40AEF06F00CEF06F032EF06F00C
:100C18000001832B3A0E8319D8A415EF06F017EFBD
:100C280006F01CEF06F0300E836F822B32EF06F0D1
:100C3800340E8319D8A423EF06F025EF06F032EF1F
:100C480006F0320E8219D8A42CEF06F02EEF06F02B
:100C580032EF06F0300E826F300E836F000E446E56
:100C6800000E436E0C0E0818D8A43DEF06F03FEFB7
:100C780006F05FEF06F00C0E4B6E4350066E4450C4
:100C8800076E434A442A910E065C010E0758D8A005
:100C980050EF06F052EF06F094EF06F0000E456EA6
:100CA80045C043F0446A43C049F0020E5A6E3C0EF8
:100CB8005E6E94EF06F043504410D8B466EF06F029
:100CC80068EF06F094EF06F0900E435C010E44586E
:100CD800D8B071EF06F073EF06F094EF06F008282D
:100CE800D8A479EF06F07BEF06F094EF06F00C0E2F
:100CF8004B18D8A482EF06F084EF06F094EF06F0C4
:100D0800452A030E4518D8A48CEF06F08EEF06F09E
:100D180090EF06F0000E456E000E446E000E436E16
:100D280012001A50800B276E1A501A242E6E19AE14
:100D3800A0EF06F0A2EF06F0A3EF06F02E802E50EB
:100D4800D8B4A9EF06F0ABEF06F0C0EF06F02E28F6
:100D5800D8A4B1EF06F0B3EF06F0BBEF06F0000E33
:100D6800176E000E186E000E196E000E1A6E198E90
:100D7800000E1A6EC8EF06F0000E176E000E186E01
:100D8800000E196E000E1A6E1E50800B271A1E5088
:100D98001E242F6E1DAED3EF06F0D5EF06F0D6EF6A
:100DA80006F02F802F50D8B4DCEF06F0DEEF06F007
:100DB800F3EF06F02F28D8A4E4EF06F0E6EF06F0EC
:100DC800EEEF06F0000E1B6E000E1C6E000E1D6E80
:100DD800000E1E6E1D8E000E1E6EFBEF06F0000E3E
:100DE8001B6E000E1C6E000E1D6E000E1E6E1B503C
:100DF8001C101D101E10D8A404EF07F006EF07F012
:100E08001EEF07F0000E176E000E186E000E196E1A
:100E1800000E1A6E800E19127F0E1A1227501A121F
:100E280017C017F018C018F019C019F01AC01AF036
:100E380061EF08F02E50D8A424EF07F026EF07F052
:100E480030EF07F0000E176E000E186E000E196EC8
:100E5800000E1A6E61EF08F02F502EC01FF0206AA6
:100E68001F5E000E205A7F0E1F24286E000E2020C1
:100E7800296E17C023F018C024F019C025F01AC035
:100E880026F0000E176E000E186E000E196E000E7A
:100E98001A6E000E2A6E000E2B6E000E2C6E000EBF
:100EA8002D6E000E2F6E91EF07F02F50D8B45FEF24
:100EB80007F061EF07F078EF07F0D8902336243673
:100EC80025362636D8901736183619361A362DAEE6
:100ED80070EF07F072EF07F073EF07F01780D89004
:100EE8002A362B362C362D361B50235C1C502458A2
:100EF8001D5025581E502658D8A085EF07F087EFBB
:100F080007F090EF07F02D8C1B50235E1C50245ADD
:100F18001D50255A1E50265A2F2A190E2F6497EF56
:100F280007F099EF07F059EF07F023502410251028
:100F38002610D8B4A2EF07F0A4EF07F0BCEF07F033
:100F48002A80BCEF07F0D8901736183619361A36AB
:100F58002DAEB1EF07F0B3EF07F0B4EF07F017804D
:100F6800D8902A362B362C362D362806D8A02906B6
:100F780019AEC1EF07F0C3EF07F0A7EF07F0000EB7
:100F88002F6E2DAECAEF07F0CCEF07F0F0EF07F0A9
:100F9800FF0E2A141F6EFF0E2B14206EFF0E2C144A
:100FA800216E7F0E2D14226E1F502010211022104A
:100FB800D8B4E1EF07F0E3EF07F0E7EF07F0010E31
:100FC8002F6EF0EF07F017A0ECEF07F0EEEF07F049
:100FD800F0EF07F0E3EF07F02F50D8B4F6EF07F083
:100FE800F8EF07F01CEF08F0010E1726000E182284
:100FF80019221A221AA003EF08F005EF08F01CEFD7
:1010080008F017C01FF018C020F019C021F01AC04E
:1010180022F022342232213220321F321FC017F030
:1010280020C018F021C019F022C01AF0284A292A35
:1010380029BE27EF08F0295008E12828D8A027EF73
:1010480008F029EF08F034EF08F0000E296E286840
:10105800000E176E000E186E000E196E000E1A6E36
:1010680029BE41EF08F0295006E12804D8B03FEF27
:1010780008F041EF08F04FEF08F0000E296E000E5F
:10108800286E000E176E000E186E000E196E000EF8
:101098001A6E000E276E28C02EF02EA056EF08F00C
:1010A80058EF08F05BEF08F0198E5CEF08F0199E16
:1010B800D8902E301A6E12EF07F01200186EF20E4A
:1010C800036E2E0E046E800E056EB4EC12F0370E11
:1010D8005E18D8A472EF08F074EF08F090EF08F0EB
:1010E800580E036E2F0E046E800E056EB4EC12F0CF
:1010F800580E036E2F0E046EC00E056EB4EC12F07F
:10110800000E446E000E436E43C052F052C05AF0B7
:10111800030E5C6EB9EF09F0040E526096EF08F00A
:1011280098EF08F09FEF08F08B0E116E000E126E0C
:1011380018508CEC0FF0040E5218D8A4A6EF08F043
:10114800A8EF08F056EF09F0080E176E9D0E166E00
:10115800060EE82EFED7162EFCD7172EFAD7000E4D
:10116800526E000E1A6E000E196E8B0E1924D96E6F
:10117800000E1A20DA6EB30E1924E16E000E1A2042
:10118800E26EDE50E618D8A4CCEF08F0CEEF08F0F7
:10119800CFEF08F0512A194A1A2A1ABEDDEF08F0D3
:1011A8001A5009E1040E195CD8A0DDEF08F0DFEF52
:1011B80008F0B9EF08F0040E5118D8A4E6EF08F0CB
:1011C800E8EF08F021EF09F0470E036E2F0E046ECA
:1011D800800E056EB4EC12F0580E036E2F0E046EDE
:1011E800C00E056EB4EC12F01A0E176E5E0E166E77
:1011F8006E0EE82EFED7162EFCD7172EFAD700D083
:10120800020E5A6E3C0E5E6E580E036E2F0E046E62
:10121800800E056EB4EC12F0000E4A6E4AC04BF018
:101228004BC043F0446A43C051F051C049F049C033
:1012380052F0030E5C6E56EF09F0040E516027EF72
:1012480009F029EF09F056EF09F0000E516E5C061F
:10125800E10E036E2E0E046E800E056EB4EC12F0D5
:10126800C10E0F6E5C50300FE9EC14F0690E036E7E
:101278002F0E046EC20E056EB4EC12F01A0E176E25
:101288005E0E166E6E0EE82EFED7162EFCD7172EA3
:10129800FAD700D0580E036E2F0E046EC00E056EDE
:1012A800B4EC12F05C50D8A45CEF09F05EEF09F0E2
:1012B800B9EF09F03B0E5E6E3C0E5E18D8A467EFDE
:1012C80009F069EF09F06BEF09F0A3EF09F09D0E43
:1012D800036E2E0E046E800E056EB4EC12F0BE0E78
:1012E800036E2F0E046EC00E056EB4EC12F0CA0E1B
:1012F8000F6E5EC007F0086A000E0A6E0A0E096ECD
:10130800FFEC0FF00750300FE9EC14F0CB0E0F6E26
:101318005EC001F0026A000E046E0A0E036EB9EC9C
:1013280010F00150300FE9EC14F0CE0E036E2F0EC2
:10133800046ECD0E056EB4EC12F060EF09F0580E95
:10134800036E2F0E046E800E056EB4EC12F0580E6C
:10135800036E2F0E046EC00E056EB4EC12F0000E74
:10136800526E52C05AF08CEF08F012000B6E0B044C
:10137800D8A4C1EF09F0C3EF09F0D5EF09F04B0489
:10138800D8B4C9EF09F0CBEF09F0D5EF09F0010E99
:101398005B6E010E546E000E556E000E586E0BC03B
:1013A8004BF0020E0B18D8A4DCEF09F0DEEF09F0C1
:1013B80005EF0AF0060E5518D8A4E5EF09F0E7EF97
:1013C80009F0F2EF09F0020E4B18D8A4EEEF09F07D
:1013D800F0EF09F0F2EF09F005EF0AF0010E5B6E8D
:1013E800000E546E000E586E552A050E5564FFEF18
:1013F80009F001EF0AF005EF0AF0060E556E0BC072
:101408004BF0030E0B18D8A40CEF0AF00EEF0AF0FD
:1014180042EF0AF05450D8A414EF0AF016EF0AF07D
:1014280042EF0AF0010E55641CEF0AF01EEF0AF0B5
:1014380042EF0AF05504D8A424EF0AF026EF0AF088
:1014480031EF0AF0030E4B18D8A42DEF0AF02FEF56
:101458000AF031EF0AF042EF0AF0010E5B6E000E5F
:10146800586E5506020E55603CEF0AF03EEF0AF042
:1014780042EF0AF0010E556E0BC04BF05804D8B479
:1014880048EF0AF04AEF0AF052EF0AF04850D8B491
:1014980050EF0AF052EF0AF08AEF0AF04850020DB6
:1014A8009F0EF324D96E000EF420DA6EDECF03F01F
:1014B800DDCF04F0CA0E056EB4EC12F04850020DF0
:1014C8009F0EF324D96E000EF420DA6EDECFF6FFFD
:1014D800DDCFF7FF0800F5CF6CF04850020D9F0EE6
:1014E800F324D96E000EF420DA6EDECF09F0DDCFDA
:1014F8000AF0010E0926000E0A2209C0F6FF0AC0EA
:10150800F7FF0800F5CF6DF0E9EF0AF05404D8A40E
:1015180090EF0AF092EF0AF0B3EF0AF09DC003F0E3
:101528009EC004F0CA0E056EB4EC12F020EE9DF0D9
:10153800DECFF6FFDDCFF7FF0800F5CF6CF0010E28
:1015480000019D25096E000E9E210A6E09C0F6FF56
:101558000AC0F7FF0800F5CF6DF0E9EF0AF0555023
:10156800020D8F0EF324D96E000EF420DA6EDECF52
:1015780003F0DDCF04F0CA0E056EB4EC12F055503E
:10158800020D8F0EF324D96E000EF420DA6EDECF32
:10159800F6FFDDCFF7FF0800F5CF6CF05550020DD0
:1015A8008F0EF324D96E000EF420DA6EDECF09F028
:1015B800DDCF0AF0010E0926000E0A2209C0F6FF47
:1015C8000AC0F7FF0800F5CF6DF05B04D8A4EFEF71
:1015D8000AF0F1EF0AF0F9EF0AF0000E5B6E630E05
:1015E800056E000E066E69EC11F01200C3EC14F0E3
:1015F8004F0E00016C6F4E0E6D6F140E1B6EAE0E0B
:101608001C6E230E1D6E410E1E6E040E7BEC13F035
:1016180001C009F002C00AF00B6A0C6A000E2AEC3D
:101628000DF009C017F00AC018F00BC019F00CC073
:101638001AF095EC06F017C030F018C031F019C058
:1016480032F01AC033F088EC0EF030C03CF031C0F4
:101658003DF000EC15F03CC011F03DC012F001EC7B
:1016680012F0630E056E000E066E69EC11F0000EA6
:101678003E6EB30E3E24D96EDA6A000EDA223E5070
:10168800AA0F54EC14F0DF6E3E2A030E3E644FEFAF
:101698000BF051EF0BF03DEF0BF0140E1B6EAE0E7E
:1016A8001C6E230E1D6E410E1E6E040E7BEC13F095
:1016B80001C009F002C00AF00B6A0C6A000E2AEC9D
:1016C8000DF009C017F00AC018F00BC019F00CC0D3
:1016D8001AF095EC06F017C030F018C031F019C0B8
:1016E80032F01AC033F088EC0EF030C03CF031C054
:1016F8003DF00A0E3F18D8A484EF0BF086EF0BF0EC
:101708009AEF0BF05A50D8A48CEF0BF08EEF0BF039
:101718009AEF0BF0010E5A6E3C0E5E6E580E036E79
:101728002F0E046EC00E056EB4EC12F05A50D8B4E9
:10173800A0EF0BF0A2EF0BF0B3EF0BF05A04D8B404
:10174800A8EF0BF0AAEF0BF0B3EF0BF0070E5A1847
:10175800D8A4B1EF0BF0B3EF0BF0B9EF0BF0010E1B
:101768007BEC12F03F6E05EF0CF0000E7BEC12F0F4
:101778003F6E05EF0CF0C90E036E2F0E046E820E3D
:10178800056EB4EC12F0FC0E036E2F0E046E8A0E7A
:10179800056EB4EC12F0F30E036E2F0E046E8E0E6F
:1017A800056EB4EC12F000EC15F03F50BAEC09F0FD
:1017B8003CC011F03DC012F001EC12F051EF0BF0FB
:1017C8003F5062EC08F051EF0BF03F509DEC02F0F7
:1017D80051EF0BF03F5034EC0CF051EF0BF03F5051
:1017E800C3EC04F051EF0BF00BEC0FF051EF0BF0E2
:1017F800BBEC11F051EF0BF03F5009EC00F051EF4A
:101808000BF05A503A6E3B6A3B50000AD8B40FEFBF
:101818000CF051EF0BF03A50000AD8B4BFEF0BF0C0
:10182800010AD8B4E4EF0BF0030AD8B4E9EF0BF0DF
:10183800010AD8B4EEEF0BF0070AD8B4F3EF0BF0B7
:10184800010AD8B4F8EF0BF0030AD8B4FCEF0BF098
:10185800010AD8B400EF0CF051EF0BF007EF00F0DD
:10186800196E0B0E1918D8A43CEF0CF03EEF0CF0D3
:1018780044EF0CF00B0E4B6E434A442A78EF0CF001
:1018880043504410D8B44BEF0CF04DEF0CF078EF08
:101898000CF0900E435C010E4458D8B056EF0CF093
:1018A80058EF0CF078EF0CF01928D8A45EEF0CF084
:1018B80060EF0CF078EF0CF00B0E4B18D8A467EF24
:1018C8000CF069EF0CF078EF0CF047064728D8A425
:1018D80070EF0CF072EF0CF074EF0CF05704476ED9
:1018E800000E446E000E436E0C0E1918D8A47FEF3C
:1018F8000CF081EF0CF0B0EF0CF00C0E4B6E435077
:10190800146E4450156E434A442AF50E145C010EB9
:101918001558D8A092EF0CF094EF0CF0F4EF0CF0FF
:10192800000E446E000E436E43C047F03C0E5E6EE0
:10193800020E5A6E580E036E2F0E046E800E056E40
:10194800B4EC12F0580E036E2F0E046EC00E056E26
:10195800B4EC12F029EF0DF043504410D8B4B7EFAF
:101968000CF0B9EF0CF0F4EF0CF0F40E435C010E40
:101978004458D8B0C2EF0CF0C4EF0CF0F4EF0CF000
:101988001928D8A4CAEF0CF0CCEF0CF0F4EF0CF047
:101998000C0E4B18D8A4D3EF0CF0D5EF0CF0F4EFE5
:1019A8000CF0472A4750146E156AFF0E5724166E1E
:1019B800176AFF0E17221450165C1750800A186E0B
:1019C8001550800A1858D8B0ECEF0CF0EEEF0CF078
:1019D800F0EF0CF0000E476E000E446E000E436EE2
:1019E800260E036E2E0E046E800E056EB4EC12F0F9
:1019F800C00E0F6E4750300FE9EC14F0000E086E61
:101A08000E0E076E000E046E0A0E036E4750462433
:101A1800016E026A0236B9EC10F001C009F002C08A
:101A28000AF092EC14F007C00DF008C00EF0730E27
:101A38000F6E000E106EC7EC13F0730E036E000EDF
:101A4800046EC20E056EB4EC12F01200116E115045
:101A5800D8B431EF0DF033EF0DF055EF0DF00CBEAB
:101A68003AEF0DF038EF0DF055EF0DF009C00DF01D
:101A78000AC00EF00BC00FF00CC010F00D1E0E1EA9
:101A88000F1E101E0D2A000E0E220F2210220DC04E
:101A980013F00EC014F00FC015F010C016F05DEF73
:101AA8000DF009C013F00AC014F00BC015F00CC0FB
:101AB80016F009500A100B100C10D8A466EF0DF0A0
:101AC80068EF0DF072EF0DF0000E096E000E0A6E51
:101AD800000E0B6E000E0C6E03EF0EF0960E126EDB
:101AE8007CEF0DF0122AD8901632153214321332C8
:101AF800000E13140D6E000E14140E6E000E151445
:101B08000F6EFE0E1614106E0D500E100F101010E2
:101B1800D8A491EF0DF093EF0DF076EF0DF0A1EF53
:101B28000DF0122A010E1326000E14221522162279
:101B3800D8901632153214321332000E13140D6E6B
:101B4800000E14140E6E000E15140F6EFF0E1614F0
:101B5800106E0D500E100F101010D8A4B6EF0DF027
:101B6800B8EF0DF095EF0DF0C0EF0DF01206D8901C
:101B7800133614361536163615BEC5EF0DF0C7EFF9
:101B88000DF0CFEF0DF0020E1260CDEF0DF0CFEF9C
:101B98000DF0BAEF0DF012B0D4EF0DF0D6EF0DF056
:101BA800D7EF0DF0159ED890123212C00DF00E6AC4
:101BB8000F6A106A0DC010F00F6A0E6A0D6A0D5098
:101BC80013120E5014120F501512105016121150F5
:101BD800D8B4F1EF0DF0F3EF0DF0FBEF0DF00CBE04
:101BE800FAEF0DF0F8EF0DF0FBEF0DF0168E13C0C5
:101BF80009F014C00AF015C00BF016C00CF0120062
:101C0800819A818C818E81B20CEF0EF00EEF0EF06E
:101C180011EF0EF0010E87EF0EF081B416EF0EF003
:101C280018EF0EF01BEF0EF0040E87EF0EF081B6E2
:101C380020EF0EF022EF0EF025EF0EF0070E87EFE3
:101C48000EF081B82AEF0EF02CEF0EF02FEF0EF009
:101C58000A0E87EF0EF0818A819C818E81B237EF60
:101C68000EF039EF0EF03CEF0EF0020E87EF0EF09B
:101C780081B441EF0EF043EF0EF046EF0EF0050E83
:101C880087EF0EF081B64BEF0EF04DEF0EF050EFF0
:101C98000EF0080E87EF0EF081B855EF0EF057EFF3
:101CA8000EF05AEF0EF00B0E87EF0EF0818A818C42
:101CB800819E819E81B263EF0EF065EF0EF068EFB2
:101CC8000EF0030E87EF0EF081B46DEF0EF06FEF9C
:101CD8000EF072EF0EF0060E87EF0EF081B677EF7A
:101CE8000EF079EF0EF07CEF0EF0090E87EF0EF094
:101CF80081B881EF0EF083EF0EF086EF0EF00C0E38
:101D080087EF0EF0FF0E120032343334396E39503B
:101D1800D8A491EF0EF093EF0EF09DEF0EF0000EA9
:101D2800306E000E316E000E326E000E336E0AEF0A
:101D38000FF030C034F031C035F032C036F033C067
:101D480037F0200EADEF0EF0D890373236323532FC
:101D58003432E82EA8EF0EF03450386E328EFF0E73
:101D68003016FF0E3116FF0E3216000E3316960E81
:101D7800395E39BEC4EF0EF0C2EF0EF0DAEF0EF0A6
:101D88003950800A970FD8B0CCEF0EF0CEEF0EF096
:101D9800D0EF0EF093EF0EF0D8903332323231326A
:101DA8003032393ED0EF0EF0F2EF0EF01F0E3964EC
:101DB800E0EF0EF0E2EF0EF0EAEF0EF093EF0EF028
:101DC800D890303631363236333639063950D8A4C1
:101DD800F0EF0EF0F2EF0EF0E4EF0EF03850D8B45A
:101DE800F8EF0EF0FAEF0EF002EF0FF0331E321E8E
:101DF800311E306C000E31223222332230C030F0D6
:101E080031C031F032C032F033C033F01200590E15
:101E1800036E2E0E046E800E056EB4EC12F0C50E25
:101E28000F6E57C007F0086A000E0A6E0A0E096E98
:101E3800FFEC0FF00750300FE9EC14F0C60E0F6EF0
:101E480057C001F0026A000E046E0A0E036EB9EC68
:101E580010F00150300FE9EC14F0CF0E0F6E330E76
:101E6800E9EC14F01A0E126E5E0E116E6E0EE82E6C
:101E7800FED7112EFCD7122EFAD700D0F29EF29C74
:101E8800F29AF294D59EE8EC13F0130E026E2E0E21
:101E9800036E22EC14F0000E136E73EF0FF0000EB9
:101EA800046E0A0E036E47504624016E026A02361B
:101EB800B9EC10F001C007F002C008F0000E0A6E7D
:101EC8000A0E096EFFEC0FF00750300FDDEC14F02E
:101ED800230E026E2E0E036E22EC14F0132A5750B6
:101EE800135CD8A07AEF0FF07CEF0FF053EF0FF0F0
:101EF800F28EF28CF28AF294D58E020E5A6E000E91
:101F0800446E000E436E43C049F03C0E5E6E1200F4
:101F1800156E0B0E1518D8A494EF0FF096EF0FF06E
:101F2800A9EF0FF03C0E5E6E52501124D96E000ED0
:101F38001220DA6E310EDF6E5250C50F0F6E2A0E68
:101F4800E9EC14F0522AC4EF0FF00C0E1518D8A4BF
:101F5800B0EF0FF0B2EF0FF0C4EF0FF03C0E5E6E73
:101F680052501124D96E000E1220DA6E300EDF6E38
:101F78005250C50F0F6E2A0EE9EC14F0A6EF0FF0C1
:101F88004350136E4450146E434A442AF40E135CB3
:101F9800010E1458D8B0D3EF0FF0D5EF0FF0DDEFE6
:101FA8000FF05250C50F0F6E5F0EE9EC14F0EEEF14
:101FB8000FF0F50E435C010E4458D8A0E6EF0FF081
:101FC800E8EF0FF0EEEF0FF05250C50F0F6E200E36
:101FD800E9EC14F0E80E431807E1030E4418D8A4FE
:101FE800F8EF0FF0FAEF0FF0FEEF0FF0000E446E6F
:101FF800000E436E1200000E0C6E0ABE08EF10F0C1
:1020080006EF10F00EEF10F0096C0A1ED8B00A2A7D
:10201800010E0C6E08BE15EF10F013EF10F01BEF59
:1020280010F0076C081ED8B0082A010E0C1A000E12
:102038000E6E000E0D6E09500A10D8B426EF10F07F
:1020480028EF10F050EF10F0010E0B6E30EF10F08B
:10205800D89009360A360B2A0AAE35EF10F037EF5A
:1020680010F02CEF10F0D8900D360E360950075CA2
:102078000A500858D8A043EF10F045EF10F04AEF87
:1020880010F00950075E0A50085A0D80D8900A329D
:1020980009320B2E37EF10F00C50D8B456EF10F071
:1020A80058EF10F05CEF10F00D6C0E1ED8B00E2A31
:1020B8000DC007F00EC008F01200000E956E945087
:1020C800F80B946E8290020E046E040E036EBA0E24
:1020D800E82EFED7032EFCD7042EFAD700D0000E28
:1020E800016E330E05EC14F01B0E036E9E0EE82EE7
:1020F800FED7032EFCD700D0000E016E330E05EC80
:1021080014F0A60EE82EFED700D0000E016E330E96
:1021180005EC14F000D000D000F0000E016E020EA5
:1021280005EC14F0A60EE82EFED700D0000E016EC6
:10213800380E05EC14F0A60EE82EFED700D0000EDF
:10214800016E010E05EC14F0040E036E3E0EE82E2F
:10215800FED7032EFCD7000E016E0C0E05EC14F012
:10216800A60EE82EFED700D01200000E066E02BEA4
:10217800C2EF10F0C0EF10F0C8EF10F0016C021EB3
:10218800D8B0022A010E066E04BECFEF10F0CDEFD4
:1021980010F0D3EF10F0036C041ED8B0042A0350DB
:1021A8000410D8B4DAEF10F0DCEF10F000EF11F003
:1021B800010E056EE4EF10F0D89003360436052AB8
:1021C80004AEE9EF10F0EBEF10F0E0EF10F0035081
:1021D800015C04500258D8A0F4EF10F0F6EF10F0AC
:1021E800FAEF10F00350015E0450025AD8900432FE
:1021F8000332052EEBEF10F00650D8B406EF11F0BD
:1022080008EF11F00CEF11F0016C021ED8B0022A91
:1022180001C001F002C002F01200020E69EC14F0D5
:10222800406E010E69EC14F0416E000E69EC14F07A
:10223800426E40AC22EF11F024EF11F034EF11F0B0
:1022480040380F0B010B300F0001636F63C082F041
:1022580040500F0B300F646F64C083F042EF11F0F1
:1022680040380F0B030B300F0001636F63C082F01F
:1022780040500F0B300F646F64C083F03A0E656FE7
:1022880065C084F041380F0B0F0B300F666F66C0C6
:1022980085F041500F0B300F676F67C086F03A0E1C
:1022A800686F68C087F042380F0B0F0B300F696FEB
:1022B80069C088F042500F0B300F6A6F6AC089F00E
:1022C800000E8A6F200E6B6F120059500E0DF3CF5F
:1022D80007F0000E086E08500524D96E000E06207F
:1022E800DA6EDF50026E075008243DEC14F0082A1D
:1022F8000D0E086482EF11F084EF11F06FEF11F00A
:10230800592A0A0E5918D8A48CEF11F08EEF11F043
:1023180094EF11F0000E596E0A0E576E9DEF11F0F2
:102328000A0E57609AEF11F09CEF11F09DEF11F033
:10233800572A0A0E5718D8A4A4EF11F0A6EF11F0E7
:10234800BAEF11F05950D8B4ACEF11F0AEEF11F06C
:10235800BAEF11F0462A0B0E4618D8A4B6EF11F0C2
:10236800B8EF11F0BAEF11F0010E466E1200CF0E61
:102378000F6E340EE9EC14F0000E446E000E436E3E
:1023880043C049F049C046F046C047F047C057F03F
:1023980057C059F0630E056E000E066E69EC11F019
:1023A800000E5B6E6A0E036E2E0E046E800E056EB6
:1023B800B4EC12F01A0E126E5E0E116E6E0EE82E4E
:1023C800FED7112EFCD7122EFAD700D0CA0E0F6EE8
:1023D8005950300FE9EC14F01A0E126E5E0E116EA1
:1023E8006E0EE82EFED7112EFCD7122EFAD700D08B
:1023F800020E5A6E3C0E5E6E1200200E00016E6FC9
:10240800CE0E0F6E11C001F012C002F0000E046E65
:102418000A0E036E41EC12F00150300FE9EC14F093
:10242800CF0E0F6E11C001F012C002F0000E046E44
:102438000A0E036E1CEC13F00150300FE9EC14F097
:1024480011C001F012C002F0000E046E0A0E036EF5
:1024580041EC12F00150300F00016F6F11C001F014
:1024680012C002F0000E046E0A0E036E1CEC13F08C
:102478000150300F0001706F1200000E066E000E42
:10248800056E03500410D8B44CEF12F04EEF12F062
:1024980076EF12F0010E076E56EF12F0D890033661
:1024A8000436072A04AE5BEF12F05DEF12F052EF2C
:1024B80012F0D890053606360350015C04500258D5
:1024C800D8A069EF12F06BEF12F070EF12F0035022
:1024D800015E0450025A0580D89004320332072E58
:1024E8005DEF12F005C001F006C002F01200016EA7
:1024F8000150D8A482EF12F084EF12F088EF12F0A6
:1025080004EC0EF0B3EF12F00104D8A48EEF12F031
:1025180090EF12F0B3EF12F004EC0EF0566E56285E
:10252800D8B499EF12F09BEF12F0A8EF12F05D50BB
:10253800D8B4A1EF12F0A3EF12F0A8EF12F0000E3A
:102548005D6E5650B3EF12F05628D8A4AEEF12F0D5
:10255800B0EF12F0B2EF12F0010E5D6EFF0E120036
:10256800000E016E055005EC14F0D1EF12F0010ECB
:10257800016E03C0F6FF04C0F7FFF86A050EF764A2
:1025880003D00800F55005D0F6CFE9FFF7CFEAFFF2
:10259800EF5005EC14F0034A042A03C0F6FF04C008
:1025A800F7FFF86A050EF76403D00800F55005D068
:1025B800F6CFE9FFF7CFEAFFEF500009D8A4E7EF1D
:1025C80012F0E9EF12F0BBEF12F01200FC0EF66EFB
:1025D800280EF76E000EF86E00EE8FF010EE28F061
:1025E8000900F5CFEEFFE550E150FAE16E0EF66E08
:1025F8002A0EF76E000EF86E0900F5CF5CF00900A0
:10260800F5CF5DF00900F5CF5EF000EE60F02F0E1B
:10261800EE6AE806FDE100EE40F01C0EEE6AE80600
:10262800FDE15F905F92000EF86E0001FAEF0AF08C
:1026380003500410D8B423EF13F025EF13F049EF3B
:1026480013F0010E056E2DEF13F0D8900336043603
:10265800052A04AE32EF13F034EF13F029EF13F02C
:102668000350015C04500258D8A03DEF13F03FEF2F
:1026780013F043EF13F00350015E0450025AD89050
:1026880004320332052E34EF13F001C001F002C00A
:1026980002F012000600DE0ED624D66E0B0ED720EE
:1026A800D76EF2A45AEF13F05CEF13F079EF13F042
:1026B8000001604B612B510E60196111D8A467EFBE
:1026C80013F069EF13F078EF13F05E065E28D8A4D4
:1026D80070EF13F072EF13F074EF13F03C0E5E6EB0
:1026E800000E616F000E606FF2945F921100086E29
:1026F80008C003F0D8900336D8900336C250C30BF5
:102708000310C26EC2829BEF13F0C4CF03F0030E16
:1027180003160350056E046AC350066E076A045018
:102728000610016E05500710026EA2EF13F0C2B238
:10273800A0EF13F0A2EF13F089EF13F01200000ED0
:1027480069EC14F0046E04508009026E000EA5ECCA
:1027580014F0020E69EC14F0046E0450BF0B026E04
:10276800020EA5EC14F0930E026E070EA5EC14F001
:10277800000E69EC14F0046E04507F0B026E000E1C
:10278800A5EC14F01200000E136E13500F24D96E2E
:10279800000E1020DA6E1350116E126A0D501124BB
:1027A80054EC14F0DF6E132A0D0E1364DEEF13F0F1
:1027B800E0EF13F0C9EF13F020EE0EF00F50D9261A
:1027C8001050DA22DF6A1200948E949CAC9EAC9C66
:1027D800AC8AAC98AC96AC84AC92AB8EAB9CAB9A02
:1027E800AB88AB96AB94AB92B89EB88CB898B896B9
:1027F800B892B890400EAF6E9D889E989D8A9E9A1A
:102808001200026E01B00BEF14F00EEF14F082828A
:102818000FEF14F0829202C083FF82848294958E17
:10282800828082928284829483BE1DEF14F01FEF0F
:1028380014F016EF14F08290959E12002EEF14F00B
:1028480002C0F6FF03C0F7FF0800F550DDEC14F0F6
:10285800024A032A02C0F6FF03C0F7FF0800F5503A
:102868000009D8A43AEF14F03CEF14F024EF14F068
:102878001200046E30EC15F0A00E1AEC15F004509E
:102888001AEC15F002501AEC15F02CEC15F0410E6C
:10289800036EEE0EE82EFED7032EFCD700D01200F2
:1028A800026E30EC15F0A00E1AEC15F002501AEC7E
:1028B80015F024EC15F0A10E1AEC15F014EC15F037
:1028C800036E2CEC15F003501200026E30EC15F07C
:1028D800D00E1AEC15F002501AEC15F024EC15F095
:1028E800D10E1AEC15F014EC15F0036E2CEC15F063
:1028F80003501200ED2FEA2FD52FD82FDB2FDE2F14
:10290800F62FD22FE72FF92FE42FE12FF02F862F64
:10291800782FB02F942FA22F313031300750090271
:10292800F3CF0BF0F4CF0CF007500A02F3500C264B
:1029380008500902F3500C260BC007F00CC008F031
:102948001200036E30EC15F0D00E1AEC15F003509F
:102958001AEC15F002501AEC15F02CEC15F01200D8
:10296800C280C19AC198C186C184C182C180C08A0F
:10297800C098C096C094C082C090C08E120061EC0E
:1029880010F0B4EC14F020EC15F0D0EC14F0F5ECE9
:1029980014F0A3EC13F01200F28EF28CF28AF29487
:1029A8000B0ED76EDC0ED66ED58ED59CD59AD586F5
:1029B8001200016E9EA8E3EF14F0E5EF14F0DEEFCD
:1029C80014F001C0ADFF9E981200106E000E016E4B
:1029D8000F5005EC14F0010E016E105005EC14F0C8
:1029E800120094869488280EC66E310EC86EC79C55
:1029F800C78E9E96A196120011EC11F0820E036EFE
:102A0800000E046EC00E056EB4EC12F012009EA605
:102A180010EF15F012EF15F00BEF15F09E9612005F
:102A280028EC15F034EC15F0C9501200016E01C005
:102A3800C9FF0BEC15F012001E0E936EF19E1200EA
:102A4800C5820BEC15F01200C5860BEC15F01200D0
:102A5800C5840BEC15F01200C5800BEC15F01200C4
:092A6800C58AC588120003013C77
:102E1200002320202054494D452020204556205390
:102E2200500A0D004C6F6773203A2D20202020207D
:102E3200202020200020202020204368616E67652A
:102E42006420202020002020202053657420546913
:102E52006D652020202000446F776E6C6F6164697D
:102E62006E672E2E2E20200020204C6F6773206369
:102E72006C6561726564202000202054696D6520B4
:102E82007570646174656420200020204E6577208F
:102E920050617373776F72642020002041747465EF
:102EA2006D707473206F766572202000202050614F
:102EB2007373776F7264204E6F742020002020534A
:102EC20075636365737366756C6C792020002045A9
:102ED2006E746572656420696E746F203A200020FA
:102EE20057726F6E672050617373776F7264200040
:102EF20020456E7465722050617373776F7264201F
:102F02000050617373776F7264206368616E6765E6
:102F1200640050617373776F7264204D61746368EB
:102F2200656400436F6E6669726D205061737377DA
:102F32006F72640043757272656E742050617373B0
:102F4200776F726400436F7272656374207061738D
:102F520073776F7264002020202020202020202000
:102F620020202020202000202D3E20617474656DD9
:102F72007074732020005365742074696D6520207D
:102F82002020200056696577206C6F672020202062
:102F92002000436C656172206C6F67202020200046
:102FA2004368616E67652070617373202000446F0F
:102FB200776E6C6F6164206C6F67200020576169C7
:102FC2007420666F72200054494D4500736563009A
:102FD2004320004731004732004733004734004363
:102FE2004C00444C00564C00474E004F4E0043509C
:0E2FF200005350004752005354004556000053
:020000040020DA
:08000000FFFFFFFFFFFFFFFF00
:020000040030CA
:0E000000FF071F1FFF8285FF0FC00FE00F409C
:00000001FF
