:020000040000FA
:0400000007EF00F016
:100008005F82B3ED0EF04FEF0EF00D6E0B0E0D1874
:10001800D8A411EF00F013EF00F0CDEF00F00B0EB5
:100028004B6E44500B6E45500C6E444A452A910E57
:100038000B5C010E0C58D8A024EF00F026EF00F05E
:100048001BEF01F0F10E036E2E0E046E800E056E8E
:10005800E4EC0DF04950020DA80EF324D96E000E01
:10006800F420DA6EDECF03F0DDCF04F0C00E056EAB
:10007800E4EC0DF01A0E0C6E5E0E0B6E6E0EE82E92
:10008800FED70B2EFCD70C2EFAD700D04950030F01
:100098005B6E49C048F04950D8B455EF00F057EFAF
:1000A80000F05FEF00F04850D8A45DEF00F05FEF7C
:1000B80000F06DEF00F0000E596E000E046E000E99
:1000C800056E600E066E000E076E2BEC0FF071EFDA
:1000D80000F0010E596E010E466E5904D8A477EF50
:1000E80000F079EF00F09FEF00F04850020D9E0EEF
:1000F800F324D96E000EF420DA6EDECFF6FFDDCFE2
:10010800F7FF0800F5CF7CF04850020D9E0EF3244F
:10011800D96E000EF420DA6EDECF0BF0DDCF0CF0D6
:10012800010E0B26000E0C220BC0F6FF0CC0F7FFC9
:100138000800F5CF7DF04604D8A4A5EF00F0A7EF9E
:1001480000F0AFEF00F0000E466E710E056E000E67
:10015800066E1AEC0EF0000E476E47C04AF04AC011
:100168004BF04BC04CF04CC04DF03C0E5E6E570E41
:10017800036E2F0E046E800E056EE4EC0DF0570E24
:10018800036E2F0E046EC00E056EE4EC0DF01AEF30
:1001980002F044504510D8B4D4EF00F0D6EF00F088
:1001A8001BEF01F0900E445C010E4558D8B0DFEF0C
:1001B80000F0E1EF00F01BEF01F00D28D8A4E7EF05
:1001C80000F0E9EF00F01BEF01F00B0E4B18D8A47C
:1001D800F0EF00F0F2EF00F01BEF01F03C0E5E6E66
:1001E800000E4C6E0B0E4A18D8A4FDEF00F0FFEF7E
:1001F80000F00AEF01F04D064D28D8A406EF01F0F3
:1002080008EF01F00AEF01F0000E4D6E490649288B
:10021800D8A411EF01F013EF01F015EF01F0000E73
:10022800496E4BC04AF0000E456E000E446E0C0E2F
:100238000D18D8A422EF01F024EF01F051EF01F0DE
:100248000C0E4B6E44500B6E45500C6E444A452ABA
:10025800910E0B5C010E0C58D8A035EF01F037EF6A
:1002680001F0A3EF01F0000E4C6E4CC049F049C0FC
:100278004DF04DC05BF0570E036E2F0E046E800ECE
:10028800056EE4EC0DF0570E036E2F0E046EC00ED3
:10029800056EE4EC0DF01AEF02F044504510D8B4A6
:1002A80058EF01F05AEF01F0A3EF01F0900E445C13
:1002B800010E4558D8B063EF01F065EF01F0A3EFE8
:1002C80001F00D28D8A46BEF01F06DEF01F0A3EF5A
:1002D80001F00C0E4B18D8A474EF01F076EF01F082
:1002E800A3EF01F03C0E5E6E010E4C6E0C0E4A1828
:1002F800D8A481EF01F083EF01F090EF01F04D2ACF
:100308004D040B6E020E0B648CEF01F08EEF01F0C2
:1003180090EF01F0030E4D6E492A49040B6E030E4F
:100328000B6499EF01F09BEF01F09DEF01F0040ED3
:10033800496E4BC04AF0000E456E000E446E4C04E8
:10034800D8A4A9EF01F0ABEF01F0B7EF01F0800EF0
:10035800096E200EF6EC0FF0C00E096E2A0EF6ECB0
:100368000FF0C9EF01F04C50D8A4BDEF01F0BFEF7A
:1003780001F0C9EF01F0800E096E2A0EF6EC0FF0BD
:10038800C00E096E200EF6EC0FF04D50020DA80EAF
:10039800F324D96E000EF420DA6EDECF03F0DDCF41
:1003A80004F0820E056EE4EC0DF04D500B6E0C6AF5
:1003B800D8900B360C36AA0E0B24D96E000E0C20E2
:1003C800DA6EDECF03F0DDCF04F0C20E056EE4EC8A
:1003D8000DF0370E5E18D8A4F4EF01F0F6EF01F037
:1003E8001AEF02F0570E036E2F0E046E800E056E84
:1003F800E4EC0DF0570E036E2F0E046EC00E056E62
:10040800E4EC0DF049C048F04850D8A40EEF02F0D3
:1004180010EF02F012EF02F0000E596E000E4C6E53
:100428004CC049F049C04DF04DC05BF012001A5065
:10043800800B276E1A501A242E6E19AE26EF02F082
:1004480028EF02F029EF02F02E802E50D8B42FEFBB
:1004580002F031EF02F046EF02F02E28D8A437EF71
:1004680002F039EF02F041EF02F0000E176E000EB5
:10047800186E000E196E000E1A6E198E000E1A6E86
:100488004EEF02F0000E176E000E186E000E196E79
:10049800000E1A6E1E50800B271A1E501E242F6E37
:1004A8001DAE59EF02F05BEF02F05CEF02F02F8017
:1004B8002F50D8B462EF02F064EF02F079EF02F047
:1004C8002F28D8A46AEF02F06CEF02F074EF02F064
:1004D800000E1B6E000E1C6E000E1D6E000E1E6EB2
:1004E8001D8E000E1E6E81EF02F0000E1B6E000EB8
:1004F8001C6E000E1D6E000E1E6E1B501C101D1073
:100508001E10D8A48AEF02F08CEF02F0A4EF02F0DC
:10051800000E176E000E186E000E196E000E1A6E81
:10052800800E19127F0E1A1227501A1217C017F0D0
:1005380018C018F019C019F01AC01AF0E7EF03F044
:100548002E50D8A4AAEF02F0ACEF02F0B6EF02F0FA
:10055800000E176E000E186E000E196E000E1A6E41
:10056800E7EF03F02F502EC01FF0206A1F5E000E29
:10057800205A7F0E1F24286E000E2020296E17C0D7
:1005880023F018C024F019C025F01AC026F0000E78
:10059800176E000E186E000E196E000E1A6E000E01
:1005A8002A6E000E2B6E000E2C6E000E2D6E000EA5
:1005B8002F6E17EF03F02F50D8B4E5EF02F0E7EFF6
:1005C80002F0FEEF02F0D890233624362536263680
:1005D800D8901736183619361A362DAEF6EF02F0BF
:1005E800F8EF02F0F9EF02F01780D8902A362B3690
:1005F8002C362D361B50235C1C5024581D50255872
:100608001E502658D8A00BEF03F00DEF03F016EF9D
:1006180003F02D8C1B50235E1C50245A1D50255A64
:100628001E50265A2F2A190E2F641DEF03F01FEFB4
:1006380003F0DFEF02F02350241025102610D8B461
:1006480028EF03F02AEF03F042EF03F02A8042EF8D
:1006580003F0D8901736183619361A362DAE37EFFC
:1006680003F039EF03F03AEF03F01780D8902A36F9
:100678002B362C362D362806D8A0290619AE47EF7A
:1006880003F049EF03F02DEF03F0000E2F6E2DAEAF
:1006980050EF03F052EF03F076EF03F0FF0E2A1449
:1006A8001F6EFF0E2B14206EFF0E2C14216E7F0E72
:1006B8002D14226E1F50201021102210D8B467EF7D
:1006C80003F069EF03F06DEF03F0010E2F6E76EF84
:1006D80003F017A072EF03F074EF03F076EF03F066
:1006E80069EF03F02F50D8B47CEF03F07EEF03F0EE
:1006F800A2EF03F0010E1726000E182219221A2263
:100708001AA089EF03F08BEF03F0A2EF03F017C0F4
:100718001FF018C020F019C021F01AC022F02234AE
:100728002232213220321F321FC017F020C018F0A9
:1007380021C019F022C01AF0284A292A29BEADEF93
:1007480003F0295008E12828D8A0ADEF03F0AFEF57
:1007580003F0BAEF03F0000E296E2868000E176E3A
:10076800000E186E000E196E000E1A6E29BEC7EF25
:1007780003F0295006E12804D8B0C5EF03F0C7EF0D
:1007880003F0D5EF03F0000E296E000E286E000E60
:10079800176E000E186E000E196E000E1A6E000EFF
:1007A800276E28C02EF02EA0DCEF03F0DEEF03F05A
:1007B800E1EF03F0198EE2EF03F0199ED8902E3086
:1007C8001A6E98EF02F01200126E130E036E2F0EBF
:1007D800046E800E056EE4EC0DF0370E5E18D8A49A
:1007E800F8EF03F0FAEF03F016EF04F0570E036E7C
:1007F8002F0E046E800E056EE4EC0DF0570E036E9E
:100808002F0E046EC00E056EE4EC0DF0000E456E62
:10081800000E446E44C053F053C05BF0030E5C6E90
:100828003CEF05F0040E53601CEF04F01EEF04F0DB
:1008380025EF04F08A0E0B6E000E0C6E125051EC70
:100848000BF0040E5318D8A42CEF04F02EEF04F08C
:10085800D9EF04F0080E116E9D0E106E060EE82EEC
:10086800FED7102EFCD7112EFAD7000E536E000EAD
:10087800146E000E136E8A0E1324D96E000E142007
:10088800DA6EB20E1324E16E000E1420E26EDE5012
:10089800E618D8A452EF04F054EF04F055EF04F032
:1008A800522A134A142A14BE63EF04F0145009E1C3
:1008B800040E135CD8A063EF04F065EF04F03FEF7B
:1008C80004F0040E5218D8A46CEF04F06EEF04F094
:1008D800A4EF04F0460E036E2F0E046E800E056E14
:1008E800E4EC0DF0570E036E2F0E046EC00E056E6D
:1008F800E4EC0DF01A0E116E5E0E106E6E0EE82E00
:10090800FED7102EFCD7112EFAD700D0020E5B6E40
:100918003C0E5E6E570E036E2F0E046E800E056E33
:10092800E4EC0DF0000E456E000E446E44C052F02B
:1009380052C049F049C053F0030E5C6ED9EF04F081
:10094800040E5260AAEF04F0ACEF04F0D9EF04F003
:10095800000E526E5C06020E036E2F0E046E800EA1
:10096800056EE4EC0DF0C10E096E5C50300FF6EC2C
:100978000FF0680E036E2F0E046EC20E056EE4ECC7
:100988000DF01A0E116E5E0E106E6E0EE82EFED76A
:10099800102EFCD7112EFAD700D0570E036E2F0E4B
:1009A800046EC00E056EE4EC0DF05C50D8A4DFEFC9
:1009B80004F0E1EF04F03CEF05F03B0E5E6E3C0EF8
:1009C8005E18D8A4EAEF04F0ECEF04F0EEEF04F0C0
:1009D80026EF05F0CF0E036E2E0E046E800E056E08
:1009E800E4EC0DF0BD0E036E2F0E046EC00E056E06
:1009F800E4EC0DF0CA0E096E5EC001F0026A000E4A
:100A0800046E0A0E036EC4EC0BF00150300FF6ECC6
:100A18000FF0CB0E096E5EC001F0026A000E046E84
:100A28000A0E036ED9EC0CF00150300FF6EC0FF003
:100A3800CD0E036E2F0E046ECD0E056EE4EC0DF098
:100A4800E3EF04F0570E036E2F0E046E800E056E52
:100A5800E4EC0DF0570E036E2F0E046EC00E056EFB
:100A6800E4EC0DF0000E536E53C05BF012EF04F08F
:100A78001200126E350E036E2F0E046E800E056E78
:100A8800E4EC0DF0370E5E18D8A44DEF05F04FEFEB
:100A980005F079EF05F0570E036E2F0E046E800EE9
:100AA800056EE4EC0DF0570E036E2F0E046EC00EAB
:100AB800056EE4EC0DF049C048F04850D8A467EF43
:100AC80005F069EF05F06BEF05F0000E596E000EAA
:100AD800456E000E446E44C049F049C053F0020E02
:100AE8005B6E3C0E5E6E57EF06F0040E53607FEFB0
:100AF80005F081EF05F088EF05F08A0E0B6E000E09
:100B08000C6E125051EC0BF0040E5318D8A48FEF52
:100B180005F091EF05F029EF06F0080E116E9D0E15
:100B2800106E060EE82EFED7102EFCD7112EFAD71F
:100B3800000E146E000E136E8A0E1324D96E000E6A
:100B48001420DA6EB20E1324E16E000E1420E26E49
:100B5800DE50E618D8A4B3EF05F0B5EF05F0B6EF10
:100B680005F0522A134A142A14BEC4EF05F0145093
:100B780009E1040E135CD8A0C4EF05F0C6EF05F038
:100B8800A0EF05F0040E5218D8A4CDEF05F0CFEF72
:100B980005F0F3EF05F0240E036E2F0E046E800EA1
:100BA800056EE4EC0DF0570E036E2F0E046EC00EAA
:100BB800056EE4EC0DF01A0E116E5E0E106E6E0EE0
:100BC800E82EFED7102EFCD7112EFAD700D0000E33
:100BD800526E050E536E010E516E29EF06F0040E8B
:100BE8005260F9EF05F0FBEF05F029EF06F0E00E93
:100BF800036E2E0E046E800E056EE4EC0DF0BE0E34
:100C0800036E2E0E046EC00E056EE4EC0DF01A0E87
:100C1800116E5E0E106E6E0EE82EFED7102EFCD7EB
:100C2800112EFAD700D0570E036E2F0E046EC00E89
:100C3800056EE4EC0DF0000E526E52C053F0020E39
:100C48005B6E3C0E5E6E57EF06F05104D8A42FEF92
:100C580006F031EF06F057EF06F0020E5B6E570E06
:100C6800036E2F0E046E800E056EE4EC0DF0570E29
:100C7800036E2F0E046EC00E056EE4EC0DF03C0EF4
:100C88005E6E000E456E000E446E49C048F0485036
:100C9800D8A451EF06F053EF06F055EF06F0000E1A
:100CA800596E000E496E1200DCEC0FF04F0E000179
:100CB8007C6F4E0E7D6F140E1B6EAE0E1C6E230ED7
:100CC8001D6E410E1E6E040EDFEC0EF001C009F021
:100CD80002C00AF00B6A0C6A000E70EC09F009C039
:100CE80017F00AC018F00BC019F00CC01AF01BEC72
:100CF80002F017C030F018C031F019C032F01AC035
:100D080033F0CEEC0AF030C03CF031C03DF00DECD1
:100D180010F03CC00BF03DC00CF031EC0DF0710E42
:100D2800056E000E066E1AEC0EF0140E1B6EAE0E5B
:100D38001C6E230E1D6E410E1E6E040EDFEC0EF0AF
:100D480001C009F002C00AF00B6A0C6A000E70ECD0
:100D580009F009C017F00AC018F00BC019F00CC050
:100D68001AF01BEC02F017C030F018C031F019C0AF
:100D780032F01AC033F0CEEC0AF030C03CF031C08B
:100D88003DF00A0E3E18D8A4CCEF06F0CEEF06F0E0
:100D9800DAEF06F0010E5B6E3C0E5E6E570E036EC8
:100DA8002F0E046EC00E056EE4EC0DF05B04D8B493
:100DB800E0EF06F0E2EF06F0F3EF06F05B04D8B4DC
:100DC800E8EF06F0EAEF06F0F3EF06F0070E5B181F
:100DD800D8A4F1EF06F0F3EF06F0F9EF06F0010EF4
:100DE800ABEC0DF03E6E38EF07F0000EABEC0DF0FB
:100DF8003E6E38EF07F0C80E036E2F0E046E820E9B
:100E0800056EE4EC0DF0FB0E036E2F0E046E8A0ED9
:100E1800056EE4EC0DF0F20E036E2F0E046E8E0ECE
:100E2800056EE4EC0DF00DEC10F03E5072EC08F09D
:100E38003CC00BF03DC00CF031EC0DF099EF06F022
:100E48003E50E8EC03F099EF06F03E5009EC00F054
:100E580099EF06F03E5067EC07F099EF06F03E5028
:100E68003DEC05F099EF06F05B503A6E3B6A3B505B
:100E7800000AD8B442EF07F099EF06F03A50000A9A
:100E8800D8B4FFEF06F0010AD8B424EF07F0030A3C
:100E9800D8B429EF07F0010AD8B42EEF07F0070AF3
:100EA800D8B499EF06F0010AD8B499EF06F0030A0E
:100EB800D8B499EF06F0010AD8B433EF07F099EFE8
:100EC80006F007EF00F0106E0B0E1018D8A46FEFA5
:100ED80007F071EF07F077EF07F00B0E4B6E444AFF
:100EE800452AABEF07F044504510D8B47EEF07F021
:100EF80080EF07F0ABEF07F0900E445C010E455809
:100F0800D8B089EF07F08BEF07F0ABEF07F01028A8
:100F1800D8A491EF07F093EF07F0ABEF07F00B0EB3
:100F28004B18D8A49AEF07F09CEF07F0ABEF07F047
:100F380047064728D8A4A3EF07F0A5EF07F0A7EFC7
:100F480007F05804476E000E456E000E446E0C0EF6
:100F58001018D8A4B2EF07F0B4EF07F0E3EF07F0EA
:100F68000C0E4B6E44500B6E45500C6E444A452A8D
:100F7800F50E0B5C010E0C58D8A0C5EF07F0C7EFB3
:100F880007F027EF08F0000E476E3C0E5E6E020E6B
:100F98005B6E000E456E000E446E570E036E2F0EEC
:100FA800046E800E056EE4EC0DF0570E036E2F0EE6
:100FB800046EC00E056EE4EC0DF071EF08F04450BD
:100FC8004510D8B4EAEF07F0ECEF07F027EF08F088
:100FD800F40E445C010E4558D8B0F5EF07F0F7EF72
:100FE80007F027EF08F01028D8A4FDEF07F0FFEF6F
:100FF80007F027EF08F00C0E4B18D8A406EF08F0FE
:1010080008EF08F027EF08F0472A47500B6E0C6AE4
:10101800FF0E58240D6E0E6AFF0E0E220B500D5C4B
:101028000E50800A0F6E0C50800A0F58D8B01FEF70
:1010380008F021EF08F023EF08F0000E476E000ECD
:10104800456E000E446E47500B6E0C6A0B3A0C3A14
:10105800F00E0C160B500F0B0C12F00E0B160BC0EB
:1010680004F00CC005F0600E066E000E076E2BEC47
:101078000FF0AD0E036E2E0E046E800E056EE4ECBE
:101088000DF0600E036E000E046EC00E056EE4ECEB
:101098000DF0C00E096E4750300FF6EC0FF08A0EB7
:1010A800096E58C001F0026A000E046E0A0E036E43
:1010B800C4EC0BF00150300FF6EC0FF08B0E096EFC
:1010C80058C001F0026A000E046E0A0E036ED9ECD5
:1010D8000CF00150300FF6EC0FF012000B6E0B0401
:1010E800D8A479EF08F07BEF08F083EF08F0010E41
:1010F800466E010E556E000E566E000E596E020EAB
:101108000B18D8A48AEF08F08CEF08F09EEF08F0CF
:10111800010E466E000E556E562A000E596E070EC9
:101128005618D8A49AEF08F09CEF08F09EEF08F044
:10113800060E566E030E0B18D8A4A5EF08F0A7EFFD
:1011480008F0C0EF08F05550D8A4ADEF08F0AFEFA5
:1011580008F0C0EF08F05650D8B4B5EF08F0B7EF74
:1011680008F0C0EF08F0010E466E562EBEEF08F0EC
:10117800010E566E000E596E5904D8A4C6EF08F039
:10118800C8EF08F000EF09F04850020D9E0EF32456
:10119800D96E000EF420DA6EDECF03F0DDCF04F056
:1011A800CA0E056EE4EC0DF04850020D9E0EF324B5
:1011B800D96E000EF420DA6EDECFF6FFDDCFF7FF32
:1011C8000800F5CF7CF04850020D9E0EF324D96E2E
:1011D800000EF420DA6EDECF09F0DDCF0AF0010E42
:1011E8000926000E0A2209C0F6FF0AC0F7FF080008
:1011F800F5CF7DF05FEF09F05504D8A406EF09F0AC
:1012080008EF09F029EF09F09CC003F09DC004F035
:10121800CA0E056EE4EC0DF020EE9CF0DECFF6FF72
:10122800DDCFF7FF0800F5CF7CF0010E00019C250B
:10123800096E000E9D210A6E09C0F6FF0AC0F7FF6D
:101248000800F5CF7DF05FEF09F05650020D8E0EC5
:10125800F324D96E000EF420DA6EDECF03F0DDCF72
:1012680004F0CA0E056EE4EC0DF05650020D8E0E19
:10127800F324D96E000EF420DA6EDECFF6FFDDCF50
:10128800F7FF0800F5CF7CF05650020D8E0EF324C0
:10129800D96E000EF420DA6EDECF09F0DDCF0AF049
:1012A800010E0926000E0A2209C0F6FF0AC0F7FF40
:1012B8000800F5CF7DF04604D8A465EF09F067EF84
:1012C80009F06FEF09F0000E466E710E056E000E04
:1012D800066E1AEC0EF01200116E1150D8B477EFAA
:1012E80009F079EF09F09BEF09F00CBE80EF09F0E7
:1012F8007EEF09F09BEF09F009C00DF00AC00EF06F
:101308000BC00FF00CC010F00D1E0E1E0F1E101E8D
:101318000D2A000E0E220F2210220DC013F00EC04F
:1013280014F00FC015F010C016F0A3EF09F009C0B3
:1013380013F00AC014F00BC015F00CC016F00950D9
:101348000A100B100C10D8A4ACEF09F0AEEF09F09E
:10135800B8EF09F0000E096E000E0A6E000E0B6E53
:10136800000E0C6E49EF0AF0960E126EC2EF09F0ED
:10137800122AD8901632153214321332000E131472
:101388000D6E000E14140E6E000E15140F6EFE0E68
:101398001614106E0D500E100F101010D8A4D7EFA1
:1013A80009F0D9EF09F0BCEF09F0E7EF09F0122ACC
:1013B800010E1326000E142215221622D89016327A
:1013C800153214321332000E13140D6E000E14145D
:1013D8000E6E000E15140F6EFF0E1614106E0D50C3
:1013E8000E100F101010D8A4FCEF09F0FEEF09F052
:1013F800DBEF09F006EF0AF01206D8901336143620
:101408001536163615BE0BEF0AF00DEF0AF015EF7C
:101418000AF0020E126013EF0AF015EF0AF000EF5F
:101428000AF012B01AEF0AF01CEF0AF01DEF0AF0EA
:10143800159ED890123212C00DF00E6A0F6A106A0B
:101448000DC010F00F6A0E6A0D6A0D5013120E507F
:1014580014120F501512105016121150D8B437EF3D
:101468000AF039EF0AF041EF0AF00CBE40EF0AF03B
:101478003EEF0AF041EF0AF0168E13C009F014C0CF
:101488000AF015C00BF016C00CF01200819A818C7E
:10149800818E81B252EF0AF054EF0AF057EF0AF04A
:1014A800010ECDEF0AF081B45CEF0AF05EEF0AF0AE
:1014B80061EF0AF0040ECDEF0AF081B666EF0AF08C
:1014C80068EF0AF06BEF0AF0070ECDEF0AF081B86B
:1014D80070EF0AF072EF0AF075EF0AF00A0ECDEF1E
:1014E8000AF0818A819C818E81B27DEF0AF07FEFBC
:1014F8000AF082EF0AF0020ECDEF0AF081B487EF0E
:101508000AF089EF0AF08CEF0AF0050ECDEF0AF029
:1015180081B691EF0AF093EF0AF096EF0AF0080E01
:10152800CDEF0AF081B89BEF0AF09DEF0AF0A0EF2B
:101538000AF00B0ECDEF0AF0818A818C819E819E84
:1015480081B2A9EF0AF0ABEF0AF0AEEF0AF0030E92
:10155800CDEF0AF081B4B3EF0AF0B5EF0AF0B8EFB7
:101568000AF0060ECDEF0AF081B6BDEF0AF0BFEF24
:101578000AF0C2EF0AF0090ECDEF0AF081B8C7EF02
:101588000AF0C9EF0AF0CCEF0AF00C0ECDEF0AF022
:10159800FF0E120032343334396E3950D8A4D7EFE5
:1015A8000AF0D9EF0AF0E3EF0AF0000E306E000EF1
:1015B800316E000E326E000E336E50EF0BF030C0FD
:1015C80034F031C035F032C036F033C037F0200E79
:1015D800F3EF0AF0D8903732363235323432E82E0B
:1015E800EEEF0AF03450386E328EFF0E3016FF0ED2
:1015F8003116FF0E3216000E3316960E395E39BEBE
:101608000AEF0BF008EF0BF020EF0BF03950800ACF
:10161800970FD8B012EF0BF014EF0BF016EF0BF09A
:10162800D9EF0AF0D8903332323231323032393E83
:1016380016EF0BF038EF0BF01F0E396426EF0BF0A6
:1016480028EF0BF030EF0BF0D9EF0AF0D8903036D6
:1016580031363236333639063950D8A436EF0BF0E6
:1016680038EF0BF02AEF0BF03850D8B43EEF0BF000
:1016780040EF0BF048EF0BF0331E321E311E306C7A
:10168800000E31223222332230C030F031C031F026
:1016980032C032F033C033F012000F6E0B0E0F1849
:1016A800D8A459EF0BF05BEF0BF06EEF0BF03C0E8C
:1016B8005E6E53500B24D96E000E0C20DA6E310E7C
:1016C800DF6E5350C50F096E2A0EF6EC0FF0532A41
:1016D80089EF0BF00C0E0F18D8A475EF0BF077EF0D
:1016E8000BF089EF0BF03C0E5E6E53500B24D96E55
:1016F800000E0C20DA6E300EDF6E5350C50F096EE7
:101708002A0EF6EC0FF06BEF0BF044500D6E4550BF
:101718000E6E444A452AF40E0D5C010E0E58D8B0E0
:1017280098EF0BF09AEF0BF0A2EF0BF05350C50FA8
:10173800096E5F0EF6EC0FF0B3EF0BF0F50E445C9C
:10174800010E4558D8A0ABEF0BF0ADEF0BF0B3EF9F
:101758000BF05350C50F096E200EF6EC0FF0E80E93
:10176800441807E1030E4518D8A4BDEF0BF0BFEFEE
:101778000BF0C3EF0BF0000E456E000E446E120026
:10178800000E066E04BECDEF0BF0CBEF0BF0D3EFDF
:101798000BF0036C041ED8B0042A010E066E02BEBC
:1017A800DAEF0BF0D8EF0BF0E0EF0BF0016C021E54
:1017B800D8B0022A010E061A000E086E000E076E37
:1017C80003500410D8B4EBEF0BF0EDEF0BF015EF6E
:1017D8000CF0010E056EF5EF0BF0D89003360436C9
:1017E800052A04AEFAEF0BF0FCEF0BF0F1EF0BF06B
:1017F800D890073608360350015C04500258D8A028
:1018080008EF0CF00AEF0CF00FEF0CF00350015E3C
:101818000450025A0780D89004320332052EFCEF98
:101828000BF00650D8B41BEF0CF01DEF0CF021EFB5
:101838000CF0076C081ED8B0082A07C001F008C0D1
:1018480002F01200020E95EC0FF03F6E010E95ECBF
:101858000FF0406E000E95EC0FF0416E200E000167
:10186800716F200E726F3FAC3CEF0CF03EEF0CF046
:101878004DEF0CF03F380F0B010B300F736F73C037
:1018880081F03F500F0B300F746F74C082F05AEF25
:101898000CF03F380F0B030B300F736F73C081F0E0
:1018A8003F500F0B300F746F74C082F03A0E756F93
:1018B80075C083F040380F0B0F0B300F766F76C072
:1018C80084F040500F0B300F776F77C085F03A0ED9
:1018D800786F78C086F041380F0B0F0B300F796F97
:1018E80079C087F041500F0B300F7A6F7AC088F0BB
:1018F800000E896F200E7B6F1200000E956E9450BB
:10190800F80B946E8290020E046E040E036EBA0EEB
:10191800E82EFED7032EFCD7042EFAD700D0000EEF
:10192800016E330E4CEC0FF01B0E036E9E0EE82E6C
:10193800FED7032EFCD700D0000E016E330E4CEC00
:101948000FF0A60EE82EFED700D0000E016E330E63
:101958004CEC0FF000D000D000F0000E016E020E2B
:101968004CEC0FF0A60EE82EFED700D0000E016E4C
:10197800380E4CEC0FF0A60EE82EFED700D0000E65
:10198800016E010E4CEC0FF0040E036E3E0EE82EB5
:10199800FED7032EFCD7000E016E0C0E4CEC0FF098
:1019A800A60EE82EFED700D01200000E066E02BE6C
:1019B800E2EF0CF0E0EF0CF0E8EF0CF0016C021E27
:1019C800D8B0022A010E066E04BEEFEF0CF0EDEF60
:1019D8000CF0F3EF0CF0036C041ED8B0042A03508B
:1019E8000410D8B4FAEF0CF0FCEF0CF020EF0DF077
:1019F800010E056E04EF0DF0D89003360436052A63
:101A080004AE09EF0DF00BEF0DF000EF0DF00350F1
:101A1800015C04500258D8A014EF0DF016EF0DF039
:101A28001AEF0DF00350015E0450025AD8900432A8
:101A38000332052E0BEF0DF00650D8B426EF0DF04B
:101A480028EF0DF02CEF0DF0016C021ED8B0022A21
:101A580001C001F002C002F01200200E00017E6FEA
:101A6800CE0E096E0BC001F00CC002F0000E046E21
:101A78000A0E036E71EC0DF00150300FF6EC0FF00A
:101A8800CF0E096E0BC001F00CC002F0000E046E00
:101A98000A0E036E81EC0EF00150300FF6EC0FF0D9
:101AA8000BC001F00CC002F0000E046E0A0E036EAB
:101AB80071EC0DF00150300F00017F6F0BC001F089
:101AC8000CC002F0000E046E0A0E036E81EC0EF0DC
:101AD8000150300F0001806F1200000E066E000EDC
:101AE800056E03500410D8B47CEF0DF07EEF0DF0B6
:101AF800A6EF0DF0010E076E86EF0DF0D8900336B5
:101B08000436072A04AE8BEF0DF08DEF0DF082EF4F
:101B18000DF0D890053606360350015C0450025883
:101B2800D8A099EF0DF09BEF0DF0A0EF0DF003504A
:101B3800015E0450025A0580D89004320332072E01
:101B48008DEF0DF005C001F006C002F01200016E25
:101B58000150D8A4B2EF0DF0B4EF0DF0B8EF0DF0CE
:101B68004AEC0AF0E3EF0DF00104D8A4BEEF0DF043
:101B7800C0EF0DF0E3EF0DF04AEC0AF0576E57286E
:101B8800D8B4C9EF0DF0CBEF0DF0D8EF0DF05D50E4
:101B9800D8B4D1EF0DF0D3EF0DF0D8EF0DF0000E63
:101BA8005D6E5750E3EF0DF05728D8A4DEEF0DF027
:101BB800E0EF0DF0E2EF0DF0010E5D6EFF0E12008A
:101BC800000E016E05504CEC0FF001EF0EF0010E07
:101BD800016E03C0F6FF04C0F7FFF86A050EF7644C
:101BE80003D00800F55005D0F6CFE9FFF7CFEAFF9C
:101BF800EF504CEC0FF0034A042A03C0F6FF04C070
:101C0800F7FFF86A050EF76403D00800F55005D011
:101C1800F6CFE9FFF7CFEAFFEF500009D8A417EF96
:101C28000EF019EF0EF0EBEF0DF012005A50100DF8
:101C3800F3CF07F0000E086E08500524D96E000E89
:101C48000620DA6EDF50026E0750082469EC0FF0A8
:101C5800082A0F0E086433EF0EF035EF0EF020EF70
:101C68000EF05A2A0A0E5A18D8A43DEF0EF03FEF8C
:101C78000EF045EF0EF0000E5A6E0A0E586E4EEF3B
:101C88000EF00A0E58604BEF0EF04DEF0EF04EEFCF
:101C98000EF0582A1200540EF66E1F0EF76E000E44
:101CA800F86E00EE8EF010EE28F00900F5CFEEFF8A
:101CB800E550E150FAE1880EF66E200EF76E000E40
:101CC800F86E0900F5CF5CF00900F5CF5DF009006A
:101CD800F5CF5EF000EE60F02E0EEE6AE806FDE14C
:101CE80000EE3FF01D0EEE6AE806FDE15F905F92A0
:101CF800000EF86E000158EF06F003500410D8B437
:101D080088EF0EF08AEF0EF0AEEF0EF0010E056EC2
:101D180092EF0EF0D89003360436052A04AE97EFFA
:101D28000EF099EF0EF08EEF0EF00350015C0450A8
:101D38000258D8A0A2EF0EF0A4EF0EF0A8EF0EF014
:101D48000350015E0450025AD89004320332052E23
:101D580099EF0EF001C001F002C002F01200060077
:101D6800DE0ED624D66E0B0ED720D76EF2A4BFEFA8
:101D78000EF0C1EF0EF0DDEF0EF0424A432A510E8D
:101D880042184310D8A4CBEF0EF0CDEF0EF0DCEFE5
:101D98000EF05E065E28D8A4D4EF0EF0D6EF0EF053
:101DA800D8EF0EF03C0E5E6E000E436E000E426ED3
:101DB800F2945F921100086E08C003F0D8900336C1
:101DC800D8900336C250C30B0310C26EC282FFEF15
:101DD8000EF0C4CF03F0030E03160350056E046A19
:101DE800C350066E076A04500610016E05500710AE
:101DF800026E06EF0FF0C2B204EF0FF006EF0FF01D
:101E0800EDEF0EF01200000E95EC0FF0046E04508A
:101E18008009026E000EBEEC0FF0020E95EC0FF07A
:101E2800046E04504009026E020EBEEC0FF0930ED1
:101E3800026E070EBEEC0FF0000E95EC0FF0046E6C
:101E480004507F0B026E000EBEEC0FF01200000E65
:101E58000A6E0A500624D96E000E0720DA6E0A5060
:101E6800086E096A0450082480EC0FF0DF6E0A2A15
:101E78000F0E0A6442EF0FF044EF0FF02DEF0FF052
:101E880020EE11F00650D9260750DA22DF6A120038
:101E9800026E01B052EF0FF055EF0FF0828256EF4D
:101EA8000FF0829202C083FF82848294958E828092
:101EB80082928284829483BE64EF0FF066EF0FF003
:101EC8005DEF0FF08290959E1200046E3DEC10F0CD
:101ED800A00E27EC10F0045027EC10F0025027EC6D
:101EE80010F039EC10F0410E036EEE0EE82EFED71E
:101EF800032EFCD700D01200026E3DEC10F0A00EAD
:101F080027EC10F0025027EC10F031EC10F0A10E85
:101F180027EC10F021EC10F0036E39EC10F00350B0
:101F28001200026E3DEC10F0D00E27EC10F00250BB
:101F380027EC10F031EC10F0D10E27EC10F021EC6A
:101F480010F0036E39EC10F003501200EC2FE92F5B
:101F5800D42FD72FDA2FDD2FF52FD12FE62FF82FFB
:101F6800E32FE02FEF2F852F772FAF2F932FA12F60
:101F780031303130036E3DEC10F0D00E27EC10F00C
:101F8800035027EC10F0025027EC10F039EC10F059
:101F98001200C280C19AC198C186C194C182C19001
:101FA800C08AC098C096C094C082C090C08E1200EB
:101FB80081EC0CF02DEC10F0CDEC0FF0E9EC0FF00B
:101FC80002EC10F007EC0FF01200F28EF28CF28A9D
:101FD800F2940B0ED76EDC0ED66ED58ED59CD59AA4
:101FE800D58612000A6E000E016E09504CEC0FF0F7
:101FF800010E016E0A504CEC0FF012009486948882
:10200800280EC66E310EC86EC79CC78E9E96A196C6
:10201800120026EC0CF0810E036E000E046EC00E4A
:10202800056EE4EC0DF012009EA61DEF10F01FEFF8
:1020380010F018EF10F09E96120035EC10F041ECFD
:1020480010F0C9501200016E01C0C9FF18EC10F061
:1020580012001E0E936EF19E1200C58218EC10F04D
:102068001200C58618EC10F01200C58418EC10F0A8
:102078001200C58018EC10F01200C58AC58812003D
:0320880003013C15
:102EAC00004C6F6773203A2D2020202020202020FA
:102EBC00200020202020204D617463686564202050
:102ECC0020200020417474656D707473206F7665DA
:102EDC0072202000202050617373776F7264204E33
:102EEC006F7420200020456E746572656420696ED5
:102EFC00746F203A20002057726F6E6720506173F8
:102F0C0073776F7264200020456E74657220506177
:102F1C007373776F7264200050617373776F726490
:102F2C00204D6174636865640043757272656E74DC
:102F3C002050617373776F726400436F72726563B4
:102F4C00742070617373776F7264002020202020CE
:102F5C00202020202020202020202000202D3E205A
:102F6C00617474656D7074732020005365742074E3
:102F7C00696D6520202020200056696577206C6FD4
:102F8C0067202020202000436C656172206C6F67E5
:102F9C0020202020004368616E6765207061737388
:102FAC00202000446F776E6C6F6164206C6F67201B
:102FBC0000205761697420666F72200054494D459A
:102FCC0000736563004320004731004732004733EC
:102FDC0000473400434C00444C00564C00474E0014
:102FEC004F4E00435000535000475200535400457D
:032FFC005600007C
:020000040020DA
:08000000FFFFFFFFFFFFFFFF00
:020000040030CA
:0E000000FF071F1FFF8285FF0FC00FE00F409C
:00000001FF
