:020000040000FA
:0400000007EF00F016
:0A000800548262ED0CF033EF0CF0AF
:100600000020417474656D707473206F766572207C
:1006100020002057726F6E672050617373776F727E
:1006200064200020456E7465722050617373776F8B
:1006300072642000436F727265637420706173731B
:10064000776F72640020202020202020202020208E
:10065000202020202000202D3E20617474656D70C4
:1006600074732020005365742074696D6520202008
:10067000200056696577206C6F672020202000439A
:100680006C656172206C6F6720202000446F776E6C
:10069000202D206C6F672020004368616E67652005
:1006A000706173732000205761697420666F722037
:1006B0000031323A30303A30300054494D45007301
:1006C000656300432000473100473200473300474D
:1006D0003400474E004F4E005350004752004556DD
:1006E00000001A50800B276E1A501A242E6E19AE75
:1006F0007CEF03F07EEF03F07FEF03F02E802E50AF
:10070000D8B485EF03F087EF03F09CEF03F02E28B9
:10071000D8A48DEF03F08FEF03F097EF03F0000EF6
:10072000176E000E186E000E196E000E1A6E198EDE
:10073000000E1A6EA4EF03F0000E176E000E186E76
:10074000000E196E000E1A6E1E50800B271A1E50D6
:100750001E242F6E1DAEAFEF03F0B1EF03F0B2EF2A
:1007600003F02F802F50D8B4B8EF03F0BAEF03F0A6
:10077000CFEF03F02F28D8A4C0EF03F0C2EF03F0AF
:10078000CAEF03F0000E1B6E000E1C6E000E1D6EF5
:10079000000E1E6E1D8E000E1E6ED7EF03F0000EB3
:1007A0001B6E000E1C6E000E1D6E000E1E6E1B508A
:1007B0001C101D101E10D8A4E0EF03F0E2EF03F0B0
:1007C000FAEF03F0000E176E000E186E000E196E91
:1007D000000E1A6E800E19127F0E1A1227501A126E
:1007E00017C017F018C018F019C019F01AC01AF085
:1007F0003DEF05F02E50D8A400EF04F002EF04F016
:100800000CEF04F0000E176E000E186E000E196E3D
:10081000000E1A6E3DEF05F02F502EC01FF0206A1B
:100820001F5E000E205A7F0E1F24286E000E20200F
:10083000296E17C023F018C024F019C025F01AC083
:1008400026F0000E176E000E186E000E196E000EC8
:100850001A6E000E2A6E000E2B6E000E2C6E000E0D
:100860002D6E000E2F6E6DEF04F02F50D8B43BEFBD
:1008700004F03DEF04F054EF04F0D8902336243612
:1008800025362636D8901736183619361A362DAE34
:100890004CEF04F04EEF04F04FEF04F01780D890C7
:1008A0002A362B362C362D361B50235C1C502458F0
:1008B0001D5025581E502658D8A061EF04F063EF54
:1008C00004F06CEF04F02D8C1B50235E1C50245A56
:1008D0001D50255A1E50265A2F2A190E2F6473EFC9
:1008E00004F075EF04F035EF04F0235024102510C8
:1008F0002610D8B47EEF04F080EF04F098EF04F0F7
:100900002A8098EF04F0D8901736183619361A3620
:100910002DAE8DEF04F08FEF04F090EF04F0178010
:10092000D8902A362B362C362D362806D8A0290604
:1009300019AE9DEF04F09FEF04F083EF04F0000E7A
:100940002F6E2DAEA6EF04F0A8EF04F0CCEF04F06C
:10095000FF0E2A141F6EFF0E2B14206EFF0E2C1498
:10096000216E7F0E2D14226E1F5020102110221098
:10097000D8B4BDEF04F0BFEF04F0C3EF04F0010EF4
:100980002F6ECCEF04F017A0C8EF04F0CAEF04F00C
:10099000CCEF04F0BFEF04F02F50D8B4D2EF04F046
:1009A000D4EF04F0F8EF04F0010E1726000E182221
:1009B00019221A221AA0DFEF04F0E1EF04F0F8EF99
:1009C00004F017C01FF018C020F019C021F01AC0A1
:1009D00022F022342232213220321F321FC017F07F
:1009E00020C018F021C019F022C01AF0284A292A84
:1009F00029BE03EF05F0295008E12828D8A003EF0D
:100A000005F005EF05F010EF05F0000E296E2868DF
:100A1000000E176E000E186E000E196E000E1A6E84
:100A200029BE1DEF05F0295006E12804D8B01BEFC0
:100A300005F01DEF05F02BEF05F0000E296E000EFE
:100A4000286E000E176E000E186E000E196E000E46
:100A50001A6E000E276E28C02EF02EA032EF05F081
:100A600034EF05F037EF05F0198E38EF05F0199ED9
:100A7000D8902E301A6EEEEF03F0120020EE47F001
:100A800010EE13F0040EDBCFE3FFE806FCE2000EED
:100A9000246E000E1F6E030E1E6E000E216E000EE1
:100AA000206E3C0E4C6EEAEF06F0010EC8EC0BF027
:100AB0001D6E230E036E060E046E800E056EB6ECE0
:100AC0000CF00B0E1D18D8A468EF05F06AEF05F0C6
:100AD0007DEF05F03C0E4C6E180E2424D96EDA6AB8
:100AE000000EDA22310EDF6E2450C50F096E2A0E79
:100AF00032EC0DF0242A98EF05F00C0E1D18D8A446
:100B000084EF05F086EF05F098EF05F03C0E4C6E93
:100B1000180E2424D96EDA6A000EDA22300EDF6E47
:100B20002450C50F096E2A0E32EC0DF07AEF05F055
:100B3000370E4C18D8A49FEF05F0A1EF05F0ABEFEE
:100B400005F0450E036E060E046E800E056EB6ECC3
:100B50000CF0000E536E2050116E2150126E204A80
:100B6000212AF40E115C010E1258D8B0BAEF05F02C
:100B7000BCEF05F0C4EF05F02450C50F096E5F0E01
:100B800032EC0DF0D5EF05F0F50E205C010E21588A
:100B9000D8A0CDEF05F0CFEF05F0D5EF05F024504C
:100BA000C50F096E200E32EC0DF0E80E201807E19B
:100BB000030E2118D8A4DFEF05F0E1EF05F0E5EF13
:100BC00005F0000E216E000E206E040E2418D8A42D
:100BD000ECEF05F0EEEF05F08BEF06F0080E126E6D
:100BE0009D0E116E060EE82EFED7112EFCD7122E8A
:100BF000FAD7000E246E000E236E000E226E180E21
:100C00002224D96E000E2320DA6E130E2224E16E08
:100C1000000E2320E26EDE50E618D8A412EF06F094
:100C200014EF06F015EF06F01F2A224A232A23BEEE
:100C300023EF06F0235009E1040E225CD8A023EF35
:100C400006F025EF06F0FFEF05F0040E1F18D8A4FC
:100C50002CEF06F02EEF06F056EF06F0340E036E82
:100C6000060E046E800E056EB6EC0CF0450E036E9B
:100C7000060E046EC00E056EB6EC0CF00D0E126E74
:100C8000AF0E116EB60EE82EFED7112EFCD7122E27
:100C9000FAD700D0450E036E060E046E800E056E68
:100CA000B6EC0CF0CDEC07F08BEF06F0040E1F60F5
:100CB0005CEF06F05EEF06F08BEF06F0000E1F6EA5
:100CC0001E06120E036E060E046E800E056EB6EC46
:100CD0000CF0C10E096E1E50300F32EC0DF0560EA6
:100CE000036E060E046EC20E056EB6EC0CF01A0E04
:100CF000126E5E0E116E6E0EE82EFED7112EFCD710
:100D0000122EFAD700D0450E036E060E046EC00EEA
:100D1000056EB6EC0CF01E50D8A491EF06F093EFE0
:100D200006F0EAEF06F03B0E4C6E3C0E4C18D8A4D1
:100D30009CEF06F09EEF06F0A0EF06F0D8EF06F06D
:100D4000010E036E060E046E800E056EB6EC0CF0FE
:100D5000A60E036E060E046EC00E056EB6EC0CF009
:100D6000CA0E096E4CC001F0026A000E046E0A0E33
:100D7000036E1FEC0AF00150300F32EC0DF0CB0E79
:100D8000096E4CC001F0026A000E046E0A0E036E7A
:100D900036EC0BF00150300F32EC0DF0BF0E036E4D
:100DA000060E046ECD0E056EB6EC0CF095EF06F057
:100DB000450E036E060E046E800E056EB6EC0CF04A
:100DC000450E036E060E046EC00E056EB6EC0CF0FA
:100DD000000E536E5304D8B4F0EF06F0F2EF06F0B5
:100DE00055EF05F01200116E1150D8B4FAEF06F06D
:100DF000FCEF06F01EEF07F00CBE03EF07F001EF6B
:100E000007F01EEF07F009C00DF00AC00EF00BC08E
:100E10000FF00CC010F00D1E0E1E0F1E101E0D2A1E
:100E2000000E0E220F2210220DC013F00EC014F07F
:100E30000FC015F010C016F026EF07F009C013F030
:100E40000AC014F00BC015F00CC016F009500A10BF
:100E50000B100C10D8A42FEF07F031EF07F03BEF89
:100E600007F0000E096E000E0A6E000E0B6E000EEB
:100E70000C6ECCEF07F0960E126E45EF07F0122ABB
:100E8000D8901632153214321332000E13140D6E30
:100E9000000E14140E6E000E15140F6EFE0E1614B6
:100EA000106E0D500E100F101010D8A45AEF07F04E
:100EB0005CEF07F03FEF07F06AEF07F0122A010E30
:100EC0001326000E142215221622D890163215323F
:100ED00014321332000E13140D6E000E14140E6E25
:100EE000000E15140F6EFF0E1614106E0D500E101E
:100EF0000F101010D8A47FEF07F081EF07F05EEF1E
:100F000007F089EF07F01206D8901336143615361D
:100F1000163615BE8EEF07F090EF07F098EF07F04A
:100F2000020E126096EF07F098EF07F083EF07F0DC
:100F300012B09DEF07F09FEF07F0A0EF07F0159EAE
:100F4000D890123212C00DF00E6A0F6A106A0DC0EE
:100F500010F00F6A0E6A0D6A0D5013120E50141223
:100F60000F501512105016121150D8B4BAEF07F0E6
:100F7000BCEF07F0C4EF07F00CBEC3EF07F0C1EF02
:100F800007F0C4EF07F0168E13C009F014C00AF082
:100F900015C00BF016C00CF01200000E0E6E000E05
:100FA0000F6E3C0E4C6E97EF08F0010EC8EC0BF084
:100FB000106E0B0E1018D8A4E0EF07F0E2EF07F068
:100FC000FEEF07F03C0E4C6E000E0E6E10500D182A
:100FD000D8A4EDEF07F0EFEF07F0FAEF07F00F06F8
:100FE0000F28D8A4F6EF07F0F8EF07F0FAEF07F0B4
:100FF000000E0F6E10C00DF023EF08F00C0E10184D
:10100000D8A405EF08F007EF08F023EF08F0010E71
:101010000E6E3C0E4C6E10500D18D8A412EF08F056
:1010200014EF08F0FAEF07F00F2A0F040B6E020E10
:101030000B641DEF08F01FEF08F0FAEF07F0030E46
:101040000F6EFAEF07F08F0E096E0FC001F0026A03
:10105000000E046E0A0E036E36EC0BF00150300FDA
:1010600032EC0DF00E04D8A438EF08F03AEF08F097
:1010700046EF08F0800E096E200E32EC0DF0C00E27
:10108000096E2A0E32EC0DF058EF08F00E50D8A47D
:101090004CEF08F04EEF08F058EF08F0800E096EA4
:1010A0002A0E32EC0DF0C00E096E200E32EC0DF05F
:1010B0000F50020D3D0EF324D96E000EF420DA6EAF
:1010C000DECF03F0DDCF04F0820E056EB6EC0CF03F
:1010D0000F500B6E0C6AD8900B360C363F0E0B245B
:1010E000D96E000E0C20DA6EDECF03F0DDCF04F0F7
:1010F000C20E056EB6EC0CF0370E4C18D8A483EF78
:1011000008F085EF08F097EF08F0450E036E060E25
:10111000046E800E056EB6EC0CF0450E036E060EE6
:10112000046EC00E056EB6EC0CF0000E536E530448
:10113000D8B49DEF08F09FEF08F0D5EF07F012004C
:10114000819A818C818E81B2A8EF08F0AAEF08F015
:10115000ADEF08F0010E23EF09F081B4B2EF08F013
:10116000B4EF08F0B7EF08F0040E23EF09F081B6F2
:10117000BCEF08F0BEEF08F0C1EF08F0070E23EF58
:1011800009F081B8C6EF08F0C8EF08F0CBEF08F01F
:101190000A0E23EF09F0818A819C818E81B2D3EF00
:1011A00008F0D5EF08F0D8EF08F0020E23EF09F0B1
:1011B00081B4DDEF08F0DFEF08F0E2EF08F0050E94
:1011C00023EF09F081B6E7EF08F0E9EF08F0ECEF64
:1011D00008F0080E23EF09F081B8F1EF08F0F3EF03
:1011E00008F0F6EF08F00B0E23EF09F0818A818CEE
:1011F000819E819E81B2FFEF08F001EF09F004EFBC
:1012000009F0030E23EF09F081B409EF09F00BEFA9
:1012100009F00EEF09F0060E23EF09F081B613EF87
:1012200009F015EF09F018EF09F0090E23EF09F0A6
:1012300081B81DEF09F01FEF09F022EF09F00C0E45
:1012400023EF09F0FF0E120032343334396E395077
:10125000D8A42DEF09F02FEF09F039EF09F0000EB7
:10126000306E000E316E000E326E000E336EA6EF41
:1012700009F030C034F031C035F032C036F033C040
:1012800037F0200E49EF09F0D89037323632353238
:101290003432E82E44EF09F03450386E328EFF0EAF
:1012A0003016FF0E3116FF0E3216000E3316960E54
:1012B000395E39BE60EF09F05EEF09F076EF09F0B4
:1012C0003950800A970FD8B068EF09F06AEF09F03B
:1012D0006CEF09F02FEF09F0D8903332323231320F
:1012E0003032393E6CEF09F08EEF09F01F0E396491
:1012F0007CEF09F07EEF09F086EF09F02FEF09F09F
:10130000D890303631363236333639063950D8A493
:101310008CEF09F08EEF09F080EF09F03850D8B467
:1013200094EF09F096EF09F09EEF09F0331E321E9C
:10133000311E306C000E31223222332230C030F0A8
:1013400031C031F032C032F033C033F012003EEC25
:101350000DF0140E1B6EAE0E1C6E230E1D6E410E94
:101360001E6E040E8EEC0CF001C009F002C00AF0F3
:101370000B6A0C6A000EF3EC06F009C017F00AC005
:1013800018F00BC019F00CC01AF071EC03F017C084
:1013900030F018C031F019C032F01AC033F024EC2C
:1013A00009F030C03AF031C03BF0010EC8EC0BF050
:1013B0003C6E0A0E3C18D8A4E0EF09F0E2EF09F009
:1013C000E4EF09F0010E536E5304D8A4EAEF09F0DC
:1013D000ECEF09F0F8EF09F0450E036E060E046E0F
:1013E000C00E056EB6EC0CF03EEC05F0A9EF09F06E
:1013F000BA0E036E060E046E820E056EB6EC0CF08D
:10140000DE0E036E060E046E8A0E056EB6EC0CF050
:10141000D80E036E060E046E8E0E056EB6EC0CF042
:1014200047EC0DF03C5081EC0AF03AC00BF03BC0A9
:101430000CF0D8EC0CF0A9EF09F007EF00F0000E6B
:10144000066E04BE28EF0AF026EF0AF02EEF0AF02F
:10145000036C041ED8B0042A010E066E02BE35EFDE
:101460000AF033EF0AF03BEF0AF0016C021ED8B02D
:10147000022A010E061A000E086E000E076E0350B7
:101480000410D8B446EF0AF048EF0AF070EF0AF003
:10149000010E056E50EF0AF0D89003360436052A87
:1014A00004AE55EF0AF057EF0AF04CEF0AF0D8906F
:1014B000073608360350015C04500258D8A063EF89
:1014C0000AF065EF0AF06AEF0AF00350015E04507B
:1014D000025A0780D89004320332052E57EF0AF0E3
:1014E0000650D8B476EF0AF078EF0AF07CEF0AF0F5
:1014F000076C081ED8B0082A07C001F008C002F027
:101500001200066E0604D8A488EF0AF08AEF0AF0EB
:101510008EEF0AF0010E506E000E516E020E06188C
:10152000D8A495EF0AF097EF0AF0A5EF0AF0000EA5
:10153000506E512A070E5118D8A4A1EF0AF0A3EF5C
:101540000AF0A5EF0AF0060E516E030E0618D8A495
:10155000ACEF0AF0AEEF0AF0BBEF0AF05050D8A49F
:10156000B4EF0AF0B6EF0AF0BBEF0AF0512EBBEF72
:101570000AF0010E516E5004D8A4C1EF0AF0C3EF77
:101580000AF0CDEF0AF06EC003F06FC004F0CA0E8F
:10159000056EB6EC0CF0DDEF0AF05150020D600E56
:1015A000F324D96E000EF420DA6EDECF03F0DDCF27
:1015B00004F0CA0E056EB6EC0CF01200000E956E2B
:1015C0009450F80B946E8290020E046E040E036E1B
:1015D000BA0EE82EFED7032EFCD7042EFAD700D081
:1015E000000E016E330EF9EC0CF01B0E036E9E0E16
:1015F000E82EFED7032EFCD700D0000E016E330E6E
:10160000F9EC0CF0A60EE82EFED700D0000E016E0D
:10161000330EF9EC0CF000D000D000F0000E016E9B
:10162000020EF9EC0CF0A60EE82EFED700D0000E4C
:10163000016E380EF9EC0CF0A60EE82EFED700D0A5
:10164000000E016E010EF9EC0CF0040E036E3E0E5E
:10165000E82EFED7032EFCD7000E016E0C0EF9EC1F
:101660000CF0A60EE82EFED700D01200000E066E7B
:1016700002BE3FEF0BF03DEF0BF045EF0BF0016CBE
:10168000021ED8B0022A010E066E04BE4CEF0BF00B
:101690004AEF0BF050EF0BF0036C041ED8B0042A95
:1016A00003500410D8B457EF0BF059EF0BF07DEF57
:1016B0000BF0010E056E61EF0BF0D8900336043687
:1016C000052A04AE66EF0BF068EF0BF05DEF0BF050
:1016D0000350015C04500258D8A071EF0BF073EF77
:1016E0000BF077EF0BF00350015E0450025AD890D4
:1016F00004320332052E68EF0BF00650D8B483EFA6
:101700000BF085EF0BF089EF0BF0016C021ED8B0E7
:10171000022A01C001F002C002F01200000E066EA3
:10172000000E056E03500410D8B499EF0BF09BEF38
:101730000BF0C3EF0BF0010E076EA3EF0BF0D89088
:1017400003360436072A04AEA8EF0BF0AAEF0BF01D
:101750009FEF0BF0D890053606360350015C04501D
:101760000258D8A0B6EF0BF0B8EF0BF0BDEF0BF0BE
:101770000350015E0450025A0580D89004320332AF
:10178000072EAAEF0BF005C001F006C002F0120010
:10179000016E0150D8A4CFEF0BF0D1EF0BF0D5EFD5
:1017A0000BF0A0EC08F000EF0CF00104D8A4DBEF84
:1017B0000BF0DDEF0BF000EF0CF0A0EC08F0526E38
:1017C0005228D8B4E6EF0BF0E8EF0BF0F5EF0BF092
:1017D0004D50D8B4EEEF0BF0F0EF0BF0F5EF0BF04F
:1017E000000E4D6E525000EF0CF05228D8A4FBEFC3
:1017F0000BF0FDEF0BF0FFEF0BF0010E4D6EFF0E47
:10180000120003500410D8B408EF0CF00AEF0CF0EB
:101810002EEF0CF0010E056E12EF0CF0D89003368F
:101820000436052A04AE17EF0CF019EF0CF00EEF9A
:101830000CF00350015C04500258D8A022EF0CF0C9
:1018400024EF0CF028EF0CF00350015E0450025A14
:10185000D89004320332052E19EF0CF001C001F0CC
:1018600002C002F01200B10EF66E1A0EF76E000EF4
:10187000F86E00EE60F010EE10F00900F5CFEEFF0C
:10188000E550E150FAE1A00EF66E1A0EF76E000E6A
:10189000F86E00EE3DF010EE11F00900F5CFEEFF0E
:1018A000E550E150FAE1536A526A516A506A4F6A50
:1018B0004E6A54905492000EF86E060EF76E0001B8
:1018C000A7EF09F00600DE0ED624D66E0B0ED72049
:1018D000D76EF2A46EEF0CF070EF0CF08CEF0CF002
:1018E0004E4A4F2A510E4E184F10D8A47AEF0CF0E2
:1018F0007CEF0CF08BEF0CF04C064C28D8A483EF57
:101900000CF085EF0CF087EF0CF03C0E4C6E000EE7
:101910004F6E000E4E6EF29454921100086E08C085
:1019200003F0D8900336D8900336C250C30B03108F
:10193000C26EC282AEEF0CF0C4CF03F0030E0316EA
:101940000350056E046AC350066E076A0450061001
:10195000016E05500710026EB5EF0CF0C2B2B3EF86
:101960000CF0B5EF0CF09CEF0CF01200000E016EC5
:101970000550F9EC0CF0C9EF0CF0010E016E03C03C
:10198000F6FF04C0F7FF0800F550F9EC0CF0034A2D
:10199000042A03C0F6FF04C0F7FF0800F550000951
:1019A000D8A4D5EF0CF0D7EF0CF0BDEF0CF012007F
:1019B000CE0E096E0BC001F00CC002F0000E046EDA
:1019C0000A0E036E8EEC0BF00150300F32EC0DF06E
:1019D000CF0E096E0BC001F00CC002F0000E046EB9
:1019E0000A0E036E01EC0CF00150300F32EC0DF0DA
:1019F0001200026E01B0FFEF0CF002EF0DF08282D8
:101A000003EF0DF0829202C083FF82848294958E50
:101A1000828082928284829483BE11EF0DF013EF54
:101A20000DF00AEF0DF08290959E1200C280C19ACF
:101A3000C198C186C194C182C190C08AC098C09625
:101A4000C094C082C090C08E1200F28EF28CF28AD6
:101A5000F2940B0ED76EDC0ED66ED58ED59CD59A31
:101A6000D58612000A6E000E016E0950F9EC0CF0DA
:101A7000010E016E0A50F9EC0CF01200DEEC0AF0D7
:101A800061EC0DF016EC0DF025EC0DF01200B10E2E
:101A9000036E060E046EC00E056EB6EC0CF012005E
:101AA00072068C067F066506990631303130003C9F
:101AB00001D506D206C606C906CC06CF06DB06C38C
:011AC000061F
:081AC2001E0E936EF19E12004E
:020000040020DA
:08000000FFFFFFFFFFFFFFFF00
:020000040030CA
:0E000000FF071F1FFF8285FF0FC00FE00F409C
:00000001FF
