:020000040000FA
:0400000007EF00F016
:0A0008005A8256ED0BF0EDEF0BF0FD
:10060000002020202056696577204C6F672020202D
:10061000200020202020436C656172204C6F6720F1
:1006200020200020417474656D707473206F7665AE
:10063000722020002057726F6E67205061737377AD
:100640006F7264200020456E746572205061737370
:10065000776F72642000436F7272656374207061FB
:100660007373776F726400202020202020202020C8
:100670002020202020202000202D3E206174746541
:100680006D707473202000205761697420666F724A
:10069000200031323A30303A30300054494D450074
:1006A0007365630043200047310047320047330041
:1006B000473400474E004F4E00535000475200450C
:0306C000560000E1
:1006C4001A50800B276E1A501A242E6E19AE6DEF35
:1006D40003F06FEF03F070EF03F02E802E50D8B4C8
:1006E40076EF03F078EF03F08DEF03F02E28D8A413
:1006F4007EEF03F080EF03F088EF03F0000E176E37
:10070400000E186E000E196E000E1A6E198E000E71
:100714001A6E95EF03F0000E176E000E186E000EA1
:10072400196E000E1A6E1E50800B271A1E501E24BE
:100734002F6E1DAEA0EF03F0A2EF03F0A3EF03F0C2
:100744002F802F50D8B4A9EF03F0ABEF03F0C0EF24
:1007540003F02F28D8A4B1EF03F0B3EF03F0BBEFFD
:1007640003F0000E1B6E000E1C6E000E1D6E000EBC
:100774001E6E1D8E000E1E6EC8EF03F0000E1B6E63
:10078400000E1C6E000E1D6E000E1E6E1B501C1003
:100794001D101E10D8A4D1EF03F0D3EF03F0EBEF3C
:1007A40003F0000E176E000E186E000E196E000E88
:1007B4001A6E800E19127F0E1A1227501A1217C0C1
:1007C40017F018C018F019C019F01AC01AF02EEF5B
:1007D40005F02E50D8A4F1EF03F0F3EF03F0FDEF92
:1007E40003F0000E176E000E186E000E196E000E48
:1007F4001A6E2EEF05F02F502EC01FF0206A1F5ED8
:10080400000E205A7F0E1F24286E000E2020296E11
:1008140017C023F018C024F019C025F01AC026F020
:10082400000E176E000E186E000E196E000E1A6E72
:10083400000E2A6E000E2B6E000E2C6E000E2D6E16
:10084400000E2F6E5EEF04F02F50D8B42CEF04F09E
:100854002EEF04F045EF04F0D890233624362536E5
:100864002636D8901736183619361A362DAE3DEF7F
:1008740004F03FEF04F040EF04F01780D8902A36DC
:100884002B362C362D361B50235C1C5024581D50FF
:1008940025581E502658D8A052EF04F054EF04F007
:1008A4005DEF04F02D8C1B50235E1C50245A1D5008
:1008B400255A1E50265A2F2A190E2F6464EF04F06D
:1008C40066EF04F026EF04F02350241025102610C0
:1008D400D8B46FEF04F071EF04F089EF04F02A80CC
:1008E40089EF04F0D8901736183619361A362DAE1B
:1008F4007EEF04F080EF04F081EF04F01780D890CD
:100904002A362B362C362D362806D8A0290619AEC1
:100914008EEF04F090EF04F074EF04F0000E2F6EED
:100924002DAE97EF04F099EF04F0BDEF04F0FF0E45
:100934002A141F6EFF0E2B14206EFF0E2C14216E32
:100944007F0E2D14226E1F50201021102210D8B4B7
:10095400AEEF04F0B0EF04F0B4EF04F0010E2F6E2C
:10096400BDEF04F017A0B9EF04F0BBEF04F0BDEF46
:1009740004F0B0EF04F02F50D8B4C3EF04F0C5EF87
:1009840004F0E9EF04F0010E1726000E18221922D4
:100994001A221AA0D0EF04F0D2EF04F0E9EF04F029
:1009A40017C01FF018C020F019C021F01AC022F09F
:1009B40022342232213220321F321FC017F020C0CD
:1009C40018F021C019F022C01AF0284A292A29BE99
:1009D400F4EF04F0295008E12828D8A0F4EF04F03B
:1009E400F6EF04F001EF05F0000E296E2868000E02
:1009F400176E000E186E000E196E000E1A6E29BEC8
:100A04000EEF05F0295006E12804D8B00CEF05F0EC
:100A14000EEF05F01CEF05F0000E296E000E286E97
:100A2400000E176E000E186E000E196E000E1A6E70
:100A3400000E276E28C02EF02EA023EF05F025EF20
:100A440005F028EF05F0198E29EF05F0199ED890CE
:100A54002E301A6EDFEF03F0120020EE4DF010EE90
:100A64000DF0040EDBCFE3FFE806FCE2000E1E6E81
:100A7400000E196E030E186E000E1B6E000E1A6E19
:100A84003C0E526EE0EF06F0010EEBEC0AF0176E2E
:100A9400450E036E060E046E800E056EAAEC0BF076
:100AA4000B0E1718D8A459EF05F05BEF05F06EEFA5
:100AB40005F03C0E526E120E1E24D96EDA6A000E38
:100AC400DA22310EDF6E1E50C50F096E2A0E45EC78
:100AD4000CF01E2A89EF05F00C0E1718D8A475EF38
:100AE40005F077EF05F089EF05F03C0E526E120E1B
:100AF4001E24D96EDA6A000EDA22300EDF6E1E5022
:100B0400C50F096E2A0E45EC0CF06BEF05F0370E9D
:100B14005218D8A490EF05F092EF05F09CEF05F081
:100B2400670E036E060E046E800E056EAAEC0BF0C3
:100B3400000E596E1A500B6E1B500C6E1A4A1B2A6B
:100B4400F40E0B5C010E0C58D8B0ABEF05F0ADEF12
:100B540005F0B5EF05F01E50C50F096E5F0E45ECAC
:100B64000CF0C6EF05F0F50E1A5C010E1B58D8A068
:100B7400BEEF05F0C0EF05F0C6EF05F01E50C50F3F
:100B8400096E200E45EC0CF0E80E1A1807E1030E6E
:100B94001B18D8A4D0EF05F0D2EF05F0D6EF05F07E
:100BA400000E1B6E000E1A6E040E1E18D8A4DDEF84
:100BB40005F0DFEF05F081EF06F0080E0C6E9D0ED8
:100BC4000B6E060EE82EFED70B2EFCD70C2EFAD792
:100BD400000E1E6E000E1D6E000E1C6E120E1C24E6
:100BE400D96E000E1D20DA6E0D0E1C24E16E000E6F
:100BF4001D20E26EDE50E618D8A403EF06F005EFE0
:100C040006F006EF06F0192A1C4A1D2A1DBE14EF31
:100C140006F01D5009E1040E1C5CD8A014EF06F088
:100C240016EF06F0F0EF05F0040E1918D8A41DEF26
:100C340006F01FEF06F04CEF06F0560E036E060E9C
:100C4400046E800E056EAAEC0BF0670E036E060EA2
:100C5400046EC00E056EAAEC0BF0330E0C6EBB0EC8
:100C64000B6EE00EE82EFED70B2EFCD70C2EFAD717
:100C7400010E036E060E046E800E056EAAEC0BF0D8
:100C8400120E036E060E046EC00E056EAAEC0BF077
:100C94003AEF06F0040E196052EF06F054EF06F036
:100CA40081EF06F0000E196E1806340E036E060E60
:100CB400046E800E056EAAEC0BF0C10E096E18507E
:100CC400300F45EC0CF0780E036E060E046EC20E67
:100CD400056EAAEC0BF01A0E0C6E5E0E0B6E6E0E09
:100CE400E82EFED70B2EFCD70C2EFAD700D0670EB9
:100CF400036E060E046EC00E056EAAEC0BF01850BF
:100D0400D8A487EF06F089EF06F0E0EF06F03B0E7B
:100D1400526E3C0E5218D8A492EF06F094EF06F0EF
:100D240096EF06F0CEEF06F0230E036E060E046E69
:100D3400800E056EAAEC0BF0870E036E060E046E91
:100D4400C00E056EAAEC0BF0CA0E096E52C001F07B
:100D5400026A000E046E0A0E036E42EC09F00150A2
:100D6400300F45EC0CF0CB0E096E52C001F0026A54
:100D7400000E046E0A0E036E59EC0AF00150300F97
:100D840045EC0CF0A00E036E060E046ECD0E056E3F
:100D9400AAEC0BF08BEF06F0670E036E060E046EE2
:100DA400800E056EAAEC0BF0670E036E060E046E41
:100DB400C00E056EAAEC0BF0000E596E5904D8B49F
:100DC400E6EF06F0E8EF06F046EF05F01200116ECC
:100DD4001150D8B4F0EF06F0F2EF06F014EF07F07C
:100DE4000CBEF9EF06F0F7EF06F014EF07F009C0B8
:100DF4000DF00AC00EF00BC00FF00CC010F00D1E69
:100E04000E1E0F1E101E0D2A000E0E220F2210227F
:100E14000DC013F00EC014F00FC015F010C016F082
:100E24001CEF07F009C013F00AC014F00BC015F052
:100E34000CC016F009500A100B100C10D8A425EFA2
:100E440007F027EF07F031EF07F0000E096E000EF0
:100E54000A6E000E0B6E000E0C6EC2EF07F0960EBB
:100E6400126E3BEF07F0122AD89016321532143264
:100E74001332000E13140D6E000E14140E6E000EB9
:100E840015140F6EFE0E1614106E0D500E100F106A
:100E94001010D8A450EF07F052EF07F035EF07F029
:100EA40060EF07F0122A010E1326000E14221522F9
:100EB4001622D8901632153214321332000E13143F
:100EC4000D6E000E14140E6E000E15140F6EFF0E30
:100ED4001614106E0D500E100F101010D8A475EFCC
:100EE40007F077EF07F054EF07F07FEF07F01206F3
:100EF400D890133614361536163615BE84EF07F01F
:100F040086EF07F08EEF07F0020E12608CEF07F009
:100F14008EEF07F079EF07F012B093EF07F095EF3B
:100F240007F096EF07F0159ED890123212C00DF01C
:100F34000E6A0F6A106A0DC010F00F6A0E6A0D6A0D
:100F44000D5013120E5014120F5015121050161289
:100F54001150D8B4B0EF07F0B2EF07F0BAEF07F0D2
:100F64000CBEB9EF07F0B7EF07F0BAEF07F0168E33
:100F740013C009F014C00AF015C00BF016C00CF031
:100F84001200819A818C818E81B2CBEF07F0CDEF74
:100F940007F0D0EF07F0010E46EF08F081B4D5EF6B
:100FA40007F0D7EF07F0DAEF07F0040E46EF08F08A
:100FB40081B6DFEF07F0E1EF07F0E4EF07F0070E8B
:100FC40046EF08F081B8E9EF07F0EBEF07F0EEEF3A
:100FD40007F00A0E46EF08F0818A819C818E81B267
:100FE400F6EF07F0F8EF07F0FBEF07F0020E46EF1D
:100FF40008F081B400EF08F002EF08F005EF08F004
:10100400050E46EF08F081B60AEF08F00CEF08F081
:101014000FEF08F0080E46EF08F081B814EF08F05F
:1010240016EF08F019EF08F00B0E46EF08F0818A6E
:10103400818C819E819E81B222EF08F024EF08F01A
:1010440027EF08F0030E46EF08F081B42CEF08F008
:101054002EEF08F031EF08F0060E46EF08F081B6E7
:1010640036EF08F038EF08F03BEF08F0090E46EFD2
:1010740008F081B840EF08F042EF08F045EF08F0BF
:101084000C0E46EF08F0FF0E120032343334396E82
:101094003950D8A450EF08F052EF08F05CEF08F094
:1010A400000E306E000E316E000E326E000E336E86
:1010B400C9EF08F030C034F031C035F032C036F03A
:1010C40033C037F0200E6CEF08F0D8903732363248
:1010D40035323432E82E67EF08F03450386E328EF1
:1010E400FF0E3016FF0E3116FF0E3216000E3316A9
:1010F400960E395E39BE83EF08F081EF08F099EF60
:1011040008F03950800A970FD8B08BEF08F08DEFB4
:1011140008F08FEF08F052EF08F0D89033323232F3
:1011240031323032393E8FEF08F0B1EF08F01F0E44
:1011340039649FEF08F0A1EF08F0A9EF08F052EF2F
:1011440008F0D890303631363236333639063950D5
:10115400D8A4AFEF08F0B1EF08F0A3EF08F03850CF
:10116400D8B4B7EF08F0B9EF08F0C1EF08F0331EB8
:10117400321E311E306C000E31223222332230C036
:1011840030F031C031F032C032F033C033F01200ED
:101194005DEC0CF0140E1B6EAE0E1C6E230E1D6E59
:1011A400410E1E6E040E82EC0BF001C009F002C069
:1011B4000AF00B6A0C6A000EE9EC06F009C017F09D
:1011C4000AC018F00BC019F00CC01AF062EC03F05E
:1011D40017C030F018C031F019C032F01AC033F023
:1011E40047EC08F030C03AF031C03BF0010EEBECB4
:1011F4000AF03C6E0A0E3C18D8A403EF09F005EF80
:1012040009F007EF09F0010E596E5904D8A40DEF47
:1012140009F00FEF09F01BEF09F0670E036E060EDD
:10122400046EC00E056EAAEC0BF02FEC05F0CCEFAB
:1012340008F09B0E036E060E046E820E056EAAEC79
:101244000BF0BF0E036E060E046E8A0E056EAAEC3A
:101254000BF0B90E036E060E046E8E0E056EAAEC2C
:101264000BF066EC0CF03C50A4EC09F03AC00BF027
:101274003BC00CF0CCEC0BF0CCEF08F007EF00F027
:10128400000E066E04BE4BEF09F049EF09F051EF72
:1012940009F0036C041ED8B0042A010E066E02BEC7
:1012A40058EF09F056EF09F05EEF09F0016C021EE9
:1012B400D8B0022A010E061A000E086E000E076E40
:1012C40003500410D8B469EF09F06BEF09F093EF01
:1012D40009F0010E056E73EF09F0D8900336043659
:1012E400052A04AE78EF09F07AEF09F06FEF09F000
:1012F400D890073608360350015C04500258D8A031
:1013040086EF09F088EF09F08DEF09F00350015ED4
:101314000450025A0780D89004320332052E7AEF23
:1013240009F00650D8B499EF09F09BEF09F09FEF4C
:1013340009F0076C081ED8B0082A07C001F008C0DD
:1013440002F01200066E0604D8A4ABEF09F0ADEF6C
:1013540009F0B1EF09F0010E566E000E576E020E41
:101364000618D8A4B8EF09F0BAEF09F0C8EF09F0ED
:10137400000E566E572A070E5718D8A4C4EF09F06A
:10138400C6EF09F0C8EF09F0060E576E030E0618F3
:10139400D8A4CFEF09F0D1EF09F0DEEF09F05650F1
:1013A400D8A4D7EF09F0D9EF09F0DEEF09F0572EF2
:1013B400DEEF09F0010E576E5604D8A4E4EF09F0ED
:1013C400E6EF09F0F0EF09F04BC003F04CC004F075
:1013D400CA0E056EAAEC0BF000EF0AF05750020D8E
:1013E4003D0EF324D96E000EF420DA6EDECF03F046
:1013F400DDCF04F0CA0E056EAAEC0BF01200000E4D
:10140400956E9450F80B946E8290020E046E040E46
:10141400036EBA0EE82EFED7032EFCD7042EFAD79D
:1014240000D0000E016E330E0CEC0CF01B0E036E9C
:101434009E0EE82EFED7032EFCD700D0000E016EC0
:10144400330E0CEC0CF0A60EE82EFED700D0000EE6
:10145400016E330E0CEC0CF000D000D000F0000E46
:10146400016E020E0CEC0CF0A60EE82EFED700D096
:10147400000E016E380E0CEC0CF0A60EE82EFED712
:1014840000D0000E016E010E0CEC0CF0040E036E85
:101494003E0EE82EFED7032EFCD7000E016E0C0E76
:1014A4000CEC0CF0A60EE82EFED700D01200000EB5
:1014B400066E02BE62EF0AF060EF0AF068EF0AF00F
:1014C400016C021ED8B0022A010E066E04BE6FEF34
:1014D4000AF06DEF0AF073EF0AF0036C041ED8B043
:1014E400042A03500410D8B47AEF0AF07CEF0AF00F
:1014F400A0EF0AF0010E056E84EF0AF0D8900336CF
:101504000436052A04AE89EF0AF08BEF0AF080EF67
:101514000AF00350015C04500258D8A094EF0AF07A
:1015240096EF0AF09AEF0AF00350015E0450025A53
:10153400D89004320332052E8BEF0AF00650D8B44B
:10154400A6EF0AF0A8EF0AF0ACEF0AF0016C021E55
:10155400D8B0022A01C001F002C002F01200000E4D
:10156400066E000E056E03500410D8B4BCEF0AF0EA
:10157400BEEF0AF0E6EF0AF0010E076EC6EF0AF0BE
:10158400D89003360436072A04AECBEF0AF0CDEF29
:101594000AF0C2EF0AF0D890053606360350015C13
:1015A40004500258D8A0D9EF0AF0DBEF0AF0E0EFBC
:1015B4000AF00350015E0450025A0580D8900432A8
:1015C4000332072ECDEF0AF005C001F006C002F089
:1015D4001200016E0150D8A4F2EF0AF0F4EF0AF001
:1015E400F8EF0AF0C3EC07F023EF0BF00104D8A4E2
:1015F400FEEF0AF000EF0BF023EF0BF0C3EC07F063
:10160400586E5828D8B409EF0BF00BEF0BF018EF15
:101614000BF05350D8B411EF0BF013EF0BF018EF9D
:101624000BF0000E536E585023EF0BF05828D8A43B
:101634001EEF0BF020EF0BF022EF0BF0010E536EB8
:10164400FF0E120003500410D8B42BEF0BF02DEF53
:101654000BF051EF0BF0010E056E35EF0BF0D89047
:1016640003360436052A04AE3AEF0BF03CEF0BF0D8
:1016740031EF0BF00350015C04500258D8A045EF41
:101684000BF047EF0BF04BEF0BF00350015E0450EF
:10169400025AD89004320332052E3CEF0BF001C0FD
:1016A40001F002C002F012000600DE0ED624D66E4F
:1016B4000B0ED720D76EF2A462EF0BF064EF0BF0A1
:1016C40080EF0BF0544A552A510E54185510D8A4E3
:1016D4006EEF0BF070EF0BF07FEF0BF05206522819
:1016E400D8A477EF0BF079EF0BF07BEF0BF03C0E07
:1016F400526E000E556E000E546EF2945A92110002
:10170400086E08C003F0D8900336D8900336C25050
:10171400C30B0310C26EC282A2EF0BF0C4CF03F05E
:10172400030E03160350056E046AC350066E076A5F
:1017340004500610016E05500710026EA9EF0BF05D
:10174400C2B2A7EF0BF0A9EF0BF090EF0BF0120071
:10175400000E016E05500CEC0CF0BDEF0BF0010E09
:10176400016E03C0F6FF04C0F7FF0800F5500CEC4F
:101774000CF0034A042A03C0F6FF04C0F7FF080074
:10178400F5500009D8A4C9EF0BF0CBEF0BF0B1EF83
:101794000BF01200CE0E096E0BC001F00CC002F06B
:1017A400000E046E0A0E036EB1EC0AF00150300F05
:1017B40045EC0CF0CF0E096E0BC001F00CC002F02A
:1017C400000E046E0A0E036E24EC0BF00150300F71
:1017D40045EC0CF01200A20EF66E180EF76E000E19
:1017E400F86E00EE3DF010EE17F00900F5CFEEFFB5
:1017F400E550E150FAE1596A586A576A566A556ADF
:10180400546A5A905A92000EF86E060EF76E000152
:10181400CAEF08F0026E01B012EF0CF015EF0CF0F5
:10182400828216EF0CF0829202C083FF828482943B
:10183400958E828082928284829483BE24EF0CF0FF
:1018440026EF0CF01DEF0CF08290959E1200C280E2
:10185400C19AC198C186C194C182C190C08AC098FE
:10186400C096C094C082C090C08E1200F28EF28CDA
:10187400F28AF2940B0ED76EDC0ED66ED58ED59C02
:10188400D59AD58612000A6E000E016E09500CEC32
:101894000CF0010E016E0A500CEC0CF01200B606AE
:1018A400B306A706AA06AD06B006BC06A4063130E8
:0518B4003130003C0191
:1018BA0001EC0AF06FEC0CF029EC0CF038EC0CF0AF
:1018CA001200920E036E060E046EC00E056EAAEC8E
:0C18DA000BF012001E0E936EF19E120027
:020000040020DA
:08000000FFFFFFFFFFFFFFFF00
:020000040030CA
:0E000000FF071F1FFF8285FF0FC00FE00F409C
:00000001FF
