:020000040000FA
:0400000007EF00F016
:0A0008005A829EED0BF06FEF0BF033
:10060000002020202056696577204C6F672020202D
:10061000200020202020436C656172204C6F6720F1
:1006200020200020417474656D707473206F7665AE
:10063000722020002057726F6E67205061737377AD
:100640006F7264200020456E746572205061737370
:10065000776F72642000436F7272656374207061FB
:100660007373776F726400202020202020202020C8
:100670002020202020202000202D3E206174746541
:100680006D7074732020004368616E67652070612F
:10069000737300205761697420666F722000446F85
:1006A000776E202D206C6F6700436C656172206C43
:1006B0006F670031323A30303A3030005365742081
:1006C00074696D650056696577206C6F67005449E1
:1006D0004D450073656300432000473100473200F9
:1006E000473300473400474E004F4E0053500047F9
:1006F0005200455600001A50800B276E1A501A24DB
:100700002E6E19AE86EF03F088EF03F089EF03F049
:100710002E802E50D8B48FEF03F091EF03F0A6EFA8
:1007200003F02E28D8A497EF03F099EF03F0A1EF80
:1007300003F0000E176E000E186E000E196E000EFC
:100740001A6E198E000E1A6EAEEF03F0000E176EC1
:10075000000E186E000E196E000E1A6E1E50800BE1
:10076000271A1E501E242F6E1DAEB9EF03F0BBEFEB
:1007700003F0BCEF03F02F802F50D8B4C2EF03F08A
:10078000C4EF03F0D9EF03F02F28D8A4CAEF03F089
:10079000CCEF03F0D4EF03F0000E1B6E000E1C6EC6
:1007A000000E1D6E000E1E6E1D8E000E1E6EE1EF01
:1007B00003F0000E1B6E000E1C6E000E1D6E000E70
:1007C0001E6E1B501C101D101E10D8A4EAEF03F063
:1007D000ECEF03F004EF04F0000E176E000E186E3D
:1007E000000E196E000E1A6E800E19127F0E1A126C
:1007F00027501A1217C017F018C018F019C019F0B6
:100800001AC01AF047EF05F02E50D8A40AEF04F0F2
:100810000CEF04F016EF04F0000E176E000E186EC9
:10082000000E196E000E1A6E47EF05F02F502EC005
:100830001FF0206A1F5E000E205A7F0E1F24286EB4
:10084000000E2020296E17C023F018C024F019C014
:1008500025F01AC026F0000E176E000E186E000E5E
:10086000196E000E1A6E000E2A6E000E2B6E000E10
:100870002C6E000E2D6E000E2F6E77EF04F02F50B1
:10088000D8B445EF04F047EF04F05EEF04F0D890E1
:100890002336243625362636D8901736183619369C
:1008A0001A362DAE56EF04F058EF04F059EF04F06D
:1008B0001780D8902A362B362C362D361B50235CC9
:1008C0001C5024581D5025581E502658D8A06BEF98
:1008D00004F06DEF04F076EF04F02D8C1B50235ED6
:1008E0001C50245A1D50255A1E50265A2F2A190EC4
:1008F0002F647DEF04F07FEF04F03FEF04F023500E
:10090000241025102610D8B488EF04F08AEF04F0E4
:10091000A2EF04F02A80A2EF04F0D8901736183620
:1009200019361A362DAE97EF04F099EF04F09AEFCE
:1009300004F01780D8902A362B362C362D36280610
:10094000D8A0290619AEA7EF04F0A9EF04F08DEFA7
:1009500004F0000E2F6E2DAEB0EF04F0B2EF04F0F5
:10096000D6EF04F0FF0E2A141F6EFF0E2B14206E1C
:10097000FF0E2C14216E7F0E2D14226E1F5020109E
:1009800021102210D8B4C7EF04F0C9EF04F0CDEF66
:1009900004F0010E2F6ED6EF04F017A0D2EF04F092
:1009A000D4EF04F0D6EF04F0C9EF04F02F50D8B420
:1009B000DCEF04F0DEEF04F002EF05F0010E172685
:1009C000000E182219221A221AA0E9EF04F0EBEF08
:1009D00004F002EF05F017C01FF018C020F019C096
:1009E00021F01AC022F022342232213220321F326A
:1009F0001FC017F020C018F021C019F022C01AF053
:100A0000284A292A29BE0DEF05F0295008E1282897
:100A1000D8A00DEF05F00FEF05F01AEF05F0000E6E
:100A2000296E2868000E176E000E186E000E196EE3
:100A3000000E1A6E29BE27EF05F0295006E12804A2
:100A4000D8B025EF05F027EF05F035EF05F0000EE3
:100A5000296E000E286E000E176E000E186E000E26
:100A6000196E000E1A6E000E276E28C02EF02EA0F2
:100A70003CEF05F03EEF05F041EF05F0198E42EF37
:100A800005F0199ED8902E301A6EF8EF03F0120080
:100A900020EE4DF010EE0DF0040EDBCFE3FFE80684
:100AA000FCE2000E1E6E000E196E030E186E000E94
:100AB0001B6E000E1A6E3C0E526EF9EF06F0010E20
:100AC00004EC0BF0176E450E036E060E046E800EDE
:100AD000056EF2EC0BF00B0E1718D8A472EF05F0B0
:100AE00074EF05F087EF05F03C0E526E120E1E24D7
:100AF000D96EDA6A000EDA22310EDF6E1E50C50F93
:100B0000096E2A0E6EEC0CF01E2AA2EF05F00C0EF8
:100B10001718D8A48EEF05F090EF05F0A2EF05F0BE
:100B20003C0E526E120E1E24D96EDA6A000EDA22C4
:100B3000300EDF6E1E50C50F096E2A0E6EEC0CF0E3
:100B400084EF05F0370E5218D8A4A9EF05F0ABEFEB
:100B500005F0B5EF05F0670E036E060E046E800E0D
:100B6000056EF2EC0BF0000E596E1A500B6E1B5016
:100B70000C6E1A4A1B2AF40E0B5C010E0C58D8B0EE
:100B8000C4EF05F0C6EF05F0CEEF05F01E50C50F1F
:100B9000096E5F0E6EEC0CF0DFEF05F0F50E1A5CDF
:100BA000010E1B58D8A0D7EF05F0D9EF05F0DFEF05
:100BB00005F01E50C50F096E200E6EEC0CF0E80E0D
:100BC0001A1807E1030E1B18D8A4E9EF05F0EBEFA4
:100BD00005F0EFEF05F0000E1B6E000E1A6E040E0E
:100BE0001E18D8A4F6EF05F0F8EF05F09AEF06F01E
:100BF000080E0C6E9D0E0B6E060EE82EFED70B2E09
:100C0000FCD70C2EFAD7000E1E6E000E1D6E000EC5
:100C10001C6E120E1C24D96E000E1D20DA6E0D0EF5
:100C20001C24E16E000E1D20E26EDE50E618D8A4F2
:100C30001CEF06F01EEF06F01FEF06F0192A1C4A03
:100C40001D2A1DBE2DEF06F01D5009E1040E1C5C8F
:100C5000D8A02DEF06F02FEF06F009EF06F0040EF6
:100C60001918D8A436EF06F038EF06F065EF06F055
:100C7000560E036E060E046E800E056EF2EC0BF03F
:100C8000670E036E060E046EC00E056EF2EC0BF0DE
:100C9000330E0C6EBB0E0B6EE00EE82EFED70B2E45
:100CA000FCD70C2EFAD7010E036E060E046E800ED2
:100CB000056EF2EC0BF0120E036E060E046EC00E03
:100CC000056EF2EC0BF053EF06F0040E19606BEFBB
:100CD00006F06DEF06F09AEF06F0000E196E18069A
:100CE000340E036E060E046E800E056EF2EC0BF0F1
:100CF000C10E096E1850300F6EEC0CF0780E036EBA
:100D0000060E046EC20E056EF2EC0BF01A0E0C6E9F
:100D10005E0E0B6E6E0EE82EFED70B2EFCD70C2E41
:100D2000FAD700D0670E036E060E046EC00E056E75
:100D3000F2EC0BF01850D8A4A0EF06F0A2EF06F0EA
:100D4000F9EF06F03B0E526E3C0E5218D8A4ABEFF2
:100D500006F0ADEF06F0AFEF06F0E7EF06F0230E7A
:100D6000036E060E046E800E056EF2EC0BF0930E11
:100D7000036E060E046EC00E056EF2EC0BF0CA0E8A
:100D8000096E52C001F0026A000E046E0A0E036E74
:100D90005BEC09F00150300F6EEC0CF0CB0E096EDD
:100DA00052C001F0026A000E046E0A0E036E72EC6D
:100DB0000AF00150300F6EEC0CF0D30E036E060EED
:100DC000046ECD0E056EF2EC0BF0A4EF06F0670E8C
:100DD000036E060E046E800E056EF2EC0BF0670ECD
:100DE000036E060E046EC00E056EF2EC0BF0000EE4
:100DF000596E5904D8B4FFEF06F001EF07F05FEF2A
:100E000005F01200116E1150D8B409EF07F00BEF86
:100E100007F02DEF07F00CBE12EF07F010EF07F010
:100E20002DEF07F009C00DF00AC00EF00BC00FF057
:100E30000CC010F00D1E0E1E0F1E101E0D2A000EEF
:100E40000E220F2210220DC013F00EC014F00FC09E
:100E500015F010C016F035EF07F009C013F00AC006
:100E600014F00BC015F00CC016F009500A100B104E
:100E70000C10D8A43EEF07F040EF07F04AEF07F060
:100E8000000E096E000E0A6E000E0B6E000E0C6E48
:100E9000DBEF07F0960E126E54EF07F0122AD8908F
:100EA0001632153214321332000E13140D6E000E6A
:100EB00014140E6E000E15140F6EFE0E1614106E26
:100EC0000D500E100F101010D8A469EF07F06BEF43
:100ED00007F04EEF07F079EF07F0122A010E132604
:100EE000000E142215221622D89016321532143212
:100EF0001332000E13140D6E000E14140E6E000E3D
:100F000015140F6EFF0E1614106E0D500E100F10EC
:100F10001010D8A48EEF07F090EF07F06DEF07F0F8
:100F200098EF07F01206D890133614361536163699
:100F300015BE9DEF07F09FEF07F0A7EF07F0020E39
:100F40001260A5EF07F0A7EF07F092EF07F012B0DD
:100F5000ACEF07F0AEEF07F0AFEF07F0159ED890BB
:100F6000123212C00DF00E6A0F6A106A0DC010F036
:100F70000F6A0E6A0D6A0D5013120E5014120F50A4
:100F80001512105016121150D8B4C9EF07F0CBEF5C
:100F900007F0D3EF07F00CBED2EF07F0D0EF07F069
:100FA000D3EF07F0168E13C009F014C00AF015C075
:100FB0000BF016C00CF01200819A818C818E81B2E8
:100FC000E4EF07F0E6EF07F0E9EF07F0010E5FEF5F
:100FD00008F081B4EEEF07F0F0EF07F0F3EF07F061
:100FE000040E5FEF08F081B6F8EF07F0FAEF07F0B4
:100FF000FDEF07F0070E5FEF08F081B802EF08F091
:1010000004EF08F007EF08F00A0E5FEF08F0818A9E
:10101000819C818E81B20FEF08F011EF08F014EF80
:1010200008F0020E5FEF08F081B419EF08F01BEF33
:1010300008F01EEF08F0050E5FEF08F081B623EF11
:1010400008F025EF08F028EF08F0080E5FEF08F031
:1010500081B82DEF08F02FEF08F032EF08F00B0EFB
:101060005FEF08F0818A818C819E819E81B23BEF87
:1010700008F03DEF08F040EF08F0030E5FEF08F0D6
:1010800081B445EF08F047EF08F04AEF08F0060E8C
:101090005FEF08F081B64FEF08F051EF08F054EF22
:1010A00008F0090E5FEF08F081B859EF08F05BEF28
:1010B00008F05EEF08F00C0E5FEF08F0FF0E120074
:1010C00032343334396E3950D8A469EF08F06BEFFD
:1010D00008F075EF08F0000E306E000E316E000E55
:1010E000326E000E336EE2EF08F030C034F031C0E3
:1010F00035F032C036F033C037F0200E85EF08F0FF
:10110000D8903732363235323432E82E80EF08F05C
:101110003450386E328EFF0E3016FF0E3116FF0E31
:101120003216000E3316960E395E39BE9CEF08F06B
:101130009AEF08F0B2EF08F03950800A970FD8B054
:10114000A4EF08F0A6EF08F0A8EF08F06BEF08F0A6
:10115000D8903332323231323032393EA8EF08F093
:10116000CAEF08F01F0E3964B8EF08F0BAEF08F0C4
:10117000C2EF08F06BEF08F0D890303631363236D7
:10118000333639063950D8A4C8EF08F0CAEF08F052
:10119000BCEF08F03850D8B4D0EF08F0D2EF08F028
:1011A000DAEF08F0331E321E311E306C000E312291
:1011B0003222332230C030F031C031F032C032F050
:1011C00033C033F0120086EC0CF0140E1B6EAE0E22
:1011D0001C6E230E1D6E410E1E6E040ECAEC0BF02B
:1011E00001C009F002C00AF00B6A0C6A000E02ECA2
:1011F00007F009C017F00AC018F00BC019F00CC0B6
:101200001AF07BEC03F017C030F018C031F019C0B1
:1012100032F01AC033F060EC08F030C03AF031C060
:101220003BF0010E04EC0BF03C6E0A0E3C18D8A407
:101230001CEF09F01EEF09F020EF09F0010E596EC6
:101240005904D8A426EF09F028EF09F034EF09F08B
:10125000670E036E060E046EC00E056EF2EC0BF008
:1012600048EC05F0E5EF08F0CE0E036E060E046EB6
:10127000820E056EF2EC0BF0F20E036E060E046E9B
:101280008A0E056EF2EC0BF0EC0E036E060E046E89
:101290008E0E056EF2EC0BF08FEC0CF03C50BDECBA
:1012A00009F03AC00BF03BC00CF014EC0CF0E5EF89
:1012B00008F007EF00F0000E066E04BE64EF09F0C0
:1012C00062EF09F06AEF09F0036C041ED8B0042A3B
:1012D000010E066E02BE71EF09F06FEF09F077EFB5
:1012E00009F0016C021ED8B0022A010E061A000E87
:1012F000086E000E076E03500410D8B482EF09F098
:1013000084EF09F0ACEF09F0010E056E8CEF09F0E7
:10131000D89003360436052A04AE91EF09F093EF16
:1013200009F088EF09F0D890073608360350015CC1
:1013300004500258D8A09FEF09F0A1EF09F0A6EFE2
:1013400009F00350015E0450025A0780D89004321D
:101350000332052E93EF09F00650D8B4B2EF09F02E
:10136000B4EF09F0B8EF09F0076C081ED8B0082AEE
:1013700007C001F008C002F01200066E0604D8A4EF
:10138000C4EF09F0C6EF09F0CAEF09F0010E566E7E
:10139000000E576E020E0618D8A4D1EF09F0D3EF55
:1013A00009F0E1EF09F0000E566E572A070E5718A4
:1013B000D8A4DDEF09F0DFEF09F0E1EF09F0060E48
:1013C000576E030E0618D8A4E8EF09F0EAEF09F00B
:1013D000F7EF09F05650D8A4F0EF09F0F2EF09F05A
:1013E000F7EF09F0572EF7EF09F0010E576E56048C
:1013F000D8A4FDEF09F0FFEF09F009EF0AF04BC0A8
:1014000003F04CC004F0CA0E056EF2EC0BF019EFBD
:101410000AF05750020D3D0EF324D96E000EF42051
:10142000DA6EDECF03F0DDCF04F0CA0E056EF2EC0B
:101430000BF01200000E956E9450F80B946E829093
:10144000020E046E040E036EBA0EE82EFED7032EB3
:10145000FCD7042EFAD700D0000E016E330E35EC07
:101460000CF01B0E036E9E0EE82EFED7032EFCD74B
:1014700000D0000E016E330E35EC0CF0A60EE82EF7
:10148000FED700D0000E016E330E35EC0CF000D00C
:1014900000D000F0000E016E020E35EC0CF0A60E2E
:1014A000E82EFED700D0000E016E380E35EC0CF0A1
:1014B000A60EE82EFED700D0000E016E010E35EC10
:1014C0000CF0040E036E3E0EE82EFED7032EFCD762
:1014D000000E016E0C0E35EC0CF0A60EE82EFED7B9
:1014E00000D01200000E066E02BE7BEF0AF079EF0C
:1014F0000AF081EF0AF0016C021ED8B0022A010E38
:10150000066E04BE88EF0AF086EF0AF08CEF0AF050
:10151000036C041ED8B0042A03500410D8B493EF0F
:101520000AF095EF0AF0B9EF0AF0010E056E9DEF93
:101530000AF0D89003360436052A04AEA2EF0AF06A
:10154000A4EF0AF099EF0AF00350015C045002582E
:10155000D8A0ADEF0AF0AFEF0AF0B3EF0AF00350F6
:10156000015E0450025AD89004320332052EA4EFD3
:101570000AF00650D8B4BFEF0AF0C1EF0AF0C5EF89
:101580000AF0016C021ED8B0022A01C001F002C0AC
:1015900002F01200000E066E000E056E03500410DD
:1015A000D8B4D5EF0AF0D7EF0AF0FFEF0AF0010E3A
:1015B000076EDFEF0AF0D89003360436072A04AE30
:1015C000E4EF0AF0E6EF0AF0DBEF0AF0D890053618
:1015D00006360350015C04500258D8A0F2EF0AF01E
:1015E000F4EF0AF0F9EF0AF00350015E0450025ADA
:1015F0000580D89004320332072EE6EF0AF005C0CA
:1016000001F006C002F01200016E0150D8A40BEFE9
:101610000BF00DEF0BF011EF0BF0DCEC07F03CEFF3
:101620000BF00104D8A417EF0BF019EF0BF03CEF0F
:101630000BF0DCEC07F0586E5828D8B422EF0BF012
:1016400024EF0BF031EF0BF05350D8B42AEF0BF02E
:101650002CEF0BF031EF0BF0000E536E58503CEFB7
:101660000BF05828D8A437EF0BF039EF0BF03BEF15
:101670000BF0010E536EFF0E120003500410D8B48D
:1016800044EF0BF046EF0BF06AEF0BF0010E056E26
:101690004EEF0BF0D89003360436052A04AE53EF14
:1016A0000BF055EF0BF04AEF0BF00350015C0450C8
:1016B0000258D8A05EEF0BF060EF0BF064EF0BF078
:1016C0000350015E0450025AD89004320332052EB2
:1016D00055EF0BF001C001F002C002F01200300E15
:1016E000F66E190EF76E000EF86E00EE60F010EE5A
:1016F0000AF00900F5CFEEFFE550E150FAE1F40EF3
:10170000F66E180EF76E000EF86E00EE3DF010EE5D
:1017100017F00900F5CFEEFFE550E150FAE1596A04
:10172000586A576A566A556A546A5A905A92000E15
:10173000F86E060EF76E0001E3EF08F00600DE0E0D
:10174000D624D66E0B0ED720D76EF2A4AAEF0BF0DC
:10175000ACEF0BF0C8EF0BF0544A552A510E541859
:101760005510D8A4B6EF0BF0B8EF0BF0C7EF0BF0A5
:1017700052065228D8A4BFEF0BF0C1EF0BF0C3EF15
:101780000BF03C0E526E000E556E000E546EF2942D
:101790005A921100086E08C003F0D8900336D89012
:1017A0000336C250C30B0310C26EC282EAEF0BF0C5
:1017B000C4CF03F0030E03160350056E046AC35032
:1017C000066E076A04500610016E05500710026E7F
:1017D000F1EF0BF0C2B2EFEF0BF0F1EF0BF0D8EF3F
:1017E0000BF01200000E016E055035EC0CF005EF09
:1017F0000CF0010E016E03C0F6FF04C0F7FF0800F5
:10180000F55035EC0CF0034A042A03C0F6FF04C07F
:10181000F7FF0800F5500009D8A411EF0CF013EF02
:101820000CF0F9EF0BF01200CE0E096E0BC001F0B8
:101830000CC002F0000E046E0A0E036ECAEC0AF031
:101840000150300F6EEC0CF0CF0E096E0BC001F0A2
:101850000CC002F0000E046E0A0E036E3DEC0BF09D
:101860000150300F6EEC0CF01200026E01B03BEF35
:101870000CF03EEF0CF082823FEF0CF0829202C03F
:1018800083FF82848294958E828082928284829465
:1018900083BE4DEF0CF04FEF0CF046EF0CF0829052
:1018A000959E1200C280C19AC198C186C194C1821E
:1018B000C190C08AC098C096C094C082C090C08EAB
:1018C0001200F28EF28CF28AF2940B0ED76EDC0EBE
:1018D000D66ED58ED59CD59AD58612000A6E000E8E
:1018E000016E095035EC0CF0010E016E0A5035EC1A
:1018F0000CF01200E906E606DA06DD06E006E3066D
:0B190000EF06D70631303130003C010B
:10190C001AEC0AF09DEC0CF052EC0CF061EC0CF0C3
:10191C001200B30E036E060E046EC00E056EF2ECD2
:10192C000BF01200C5069E06A906BC0687061E0E05
:06193C00936EF19E120003
:020000040020DA
:08000000FFFFFFFFFFFFFFFF00
:020000040030CA
:0E000000FF071F1FFF8285FF0FC00FE00F409C
:00000001FF
