:020000040000FA
:0400000007EF00F016
:0A000800548253ED0CF024EF0CF0CD
:100600000020417474656D707473206F766572207C
:1006100020002057726F6E672050617373776F727E
:1006200064200020456E7465722050617373776F8B
:1006300072642000436F727265637420706173731B
:10064000776F72640020202020202020202020208E
:10065000202020202000202D3E20617474656D70C4
:1006600074732020005365742074696D6520202008
:10067000200056696577206C6F672020202000439A
:100680006C656172206C6F6720202000446F776E6C
:10069000202D206C6F672020004368616E67652005
:1006A000706173732000205761697420666F722037
:1006B0000031323A30303A30300054494D45007301
:1006C000656300432000473100473200473300474D
:1006D0003400474E004F4E005350004752004556DD
:1006E00000001A50800B276E1A501A242E6E19AE75
:1006F0007CEF03F07EEF03F07FEF03F02E802E50AF
:10070000D8B485EF03F087EF03F09CEF03F02E28B9
:10071000D8A48DEF03F08FEF03F097EF03F0000EF6
:10072000176E000E186E000E196E000E1A6E198EDE
:10073000000E1A6EA4EF03F0000E176E000E186E76
:10074000000E196E000E1A6E1E50800B271A1E50D6
:100750001E242F6E1DAEAFEF03F0B1EF03F0B2EF2A
:1007600003F02F802F50D8B4B8EF03F0BAEF03F0A6
:10077000CFEF03F02F28D8A4C0EF03F0C2EF03F0AF
:10078000CAEF03F0000E1B6E000E1C6E000E1D6EF5
:10079000000E1E6E1D8E000E1E6ED7EF03F0000EB3
:1007A0001B6E000E1C6E000E1D6E000E1E6E1B508A
:1007B0001C101D101E10D8A4E0EF03F0E2EF03F0B0
:1007C000FAEF03F0000E176E000E186E000E196E91
:1007D000000E1A6E800E19127F0E1A1227501A126E
:1007E00017C017F018C018F019C019F01AC01AF085
:1007F0003DEF05F02E50D8A400EF04F002EF04F016
:100800000CEF04F0000E176E000E186E000E196E3D
:10081000000E1A6E3DEF05F02F502EC01FF0206A1B
:100820001F5E000E205A7F0E1F24286E000E20200F
:10083000296E17C023F018C024F019C025F01AC083
:1008400026F0000E176E000E186E000E196E000EC8
:100850001A6E000E2A6E000E2B6E000E2C6E000E0D
:100860002D6E000E2F6E6DEF04F02F50D8B43BEFBD
:1008700004F03DEF04F054EF04F0D8902336243612
:1008800025362636D8901736183619361A362DAE34
:100890004CEF04F04EEF04F04FEF04F01780D890C7
:1008A0002A362B362C362D361B50235C1C502458F0
:1008B0001D5025581E502658D8A061EF04F063EF54
:1008C00004F06CEF04F02D8C1B50235E1C50245A56
:1008D0001D50255A1E50265A2F2A190E2F6473EFC9
:1008E00004F075EF04F035EF04F0235024102510C8
:1008F0002610D8B47EEF04F080EF04F098EF04F0F7
:100900002A8098EF04F0D8901736183619361A3620
:100910002DAE8DEF04F08FEF04F090EF04F0178010
:10092000D8902A362B362C362D362806D8A0290604
:1009300019AE9DEF04F09FEF04F083EF04F0000E7A
:100940002F6E2DAEA6EF04F0A8EF04F0CCEF04F06C
:10095000FF0E2A141F6EFF0E2B14206EFF0E2C1498
:10096000216E7F0E2D14226E1F5020102110221098
:10097000D8B4BDEF04F0BFEF04F0C3EF04F0010EF4
:100980002F6ECCEF04F017A0C8EF04F0CAEF04F00C
:10099000CCEF04F0BFEF04F02F50D8B4D2EF04F046
:1009A000D4EF04F0F8EF04F0010E1726000E182221
:1009B00019221A221AA0DFEF04F0E1EF04F0F8EF99
:1009C00004F017C01FF018C020F019C021F01AC0A1
:1009D00022F022342232213220321F321FC017F07F
:1009E00020C018F021C019F022C01AF0284A292A84
:1009F00029BE03EF05F0295008E12828D8A003EF0D
:100A000005F005EF05F010EF05F0000E296E2868DF
:100A1000000E176E000E186E000E196E000E1A6E84
:100A200029BE1DEF05F0295006E12804D8B01BEFC0
:100A300005F01DEF05F02BEF05F0000E296E000EFE
:100A4000286E000E176E000E186E000E196E000E46
:100A50001A6E000E276E28C02EF02EA032EF05F081
:100A600034EF05F037EF05F0198E38EF05F0199ED9
:100A7000D8902E301A6EEEEF03F0120020EE47F001
:100A800010EE13F0040EDBCFE3FFE806FCE2000EED
:100A9000246E000E1F6E030E1E6E000E216E000EE1
:100AA000206E3C0E4C6EEAEF06F0010EB9EC0BF036
:100AB0001D6E230E036E060E046E800E056EA7ECEF
:100AC0000CF00B0E1D18D8A468EF05F06AEF05F0C6
:100AD0007DEF05F03C0E4C6E180E2424D96EDA6AB8
:100AE000000EDA22310EDF6E2450C50F096E2A0E79
:100AF00023EC0DF0242A98EF05F00C0E1D18D8A455
:100B000084EF05F086EF05F098EF05F03C0E4C6E93
:100B1000180E2424D96EDA6A000EDA22300EDF6E47
:100B20002450C50F096E2A0E23EC0DF07AEF05F064
:100B3000370E4C18D8A49FEF05F0A1EF05F0ABEFEE
:100B400005F0450E036E060E046E800E056EA7ECD2
:100B50000CF0000E536E2050116E2150126E204A80
:100B6000212AF40E115C010E1258D8B0BAEF05F02C
:100B7000BCEF05F0C4EF05F02450C50F096E5F0E01
:100B800023EC0DF0D5EF05F0F50E205C010E215899
:100B9000D8A0CDEF05F0CFEF05F0D5EF05F024504C
:100BA000C50F096E200E23EC0DF0E80E201807E1AA
:100BB000030E2118D8A4DFEF05F0E1EF05F0E5EF13
:100BC00005F0000E216E000E206E040E2418D8A42D
:100BD000ECEF05F0EEEF05F08BEF06F0080E126E6D
:100BE0009D0E116E060EE82EFED7112EFCD7122E8A
:100BF000FAD7000E246E000E236E000E226E180E21
:100C00002224D96E000E2320DA6E130E2224E16E08
:100C1000000E2320E26EDE50E618D8A412EF06F094
:100C200014EF06F015EF06F01F2A224A232A23BEEE
:100C300023EF06F0235009E1040E225CD8A023EF35
:100C400006F025EF06F0FFEF05F0040E1F18D8A4FC
:100C50002CEF06F02EEF06F056EF06F0340E036E82
:100C6000060E046E800E056EA7EC0CF0450E036EAA
:100C7000060E046EC00E056EA7EC0CF00D0E126E83
:100C8000AF0E116EB60EE82EFED7112EFCD7122E27
:100C9000FAD700D0450E036E060E046E800E056E68
:100CA000A7EC0CF0CDEC07F08BEF06F0040E1F6004
:100CB0005CEF06F05EEF06F08BEF06F0000E1F6EA5
:100CC0001E06120E036E060E046E800E056EA7EC55
:100CD0000CF0C10E096E1E50300F23EC0DF0560EB5
:100CE000036E060E046EC20E056EA7EC0CF01A0E13
:100CF000126E5E0E116E6E0EE82EFED7112EFCD710
:100D0000122EFAD700D0450E036E060E046EC00EEA
:100D1000056EA7EC0CF01E50D8A491EF06F093EFEF
:100D200006F0EAEF06F03B0E4C6E3C0E4C18D8A4D1
:100D30009CEF06F09EEF06F0A0EF06F0D8EF06F06D
:100D4000010E036E060E046E800E056EA7EC0CF00D
:100D5000A60E036E060E046EC00E056EA7EC0CF018
:100D6000CA0E096E4CC001F0026A000E046E0A0E33
:100D7000036E10EC0AF00150300F23EC0DF0CB0E97
:100D8000096E4CC001F0026A000E046E0A0E036E7A
:100D900027EC0BF00150300F23EC0DF0BF0E036E6B
:100DA000060E046ECD0E056EA7EC0CF095EF06F066
:100DB000450E036E060E046E800E056EA7EC0CF059
:100DC000450E036E060E046EC00E056EA7EC0CF009
:100DD000000E536E5304D8B4F0EF06F0F2EF06F0B5
:100DE00055EF05F01200116E1150D8B4FAEF06F06D
:100DF000FCEF06F01EEF07F00CBE03EF07F001EF6B
:100E000007F01EEF07F009C00DF00AC00EF00BC08E
:100E10000FF00CC010F00D1E0E1E0F1E101E0D2A1E
:100E2000000E0E220F2210220DC013F00EC014F07F
:100E30000FC015F010C016F026EF07F009C013F030
:100E40000AC014F00BC015F00CC016F009500A10BF
:100E50000B100C10D8A42FEF07F031EF07F03BEF89
:100E600007F0000E096E000E0A6E000E0B6E000EEB
:100E70000C6ECCEF07F0960E126E45EF07F0122ABB
:100E8000D8901632153214321332000E13140D6E30
:100E9000000E14140E6E000E15140F6EFE0E1614B6
:100EA000106E0D500E100F101010D8A45AEF07F04E
:100EB0005CEF07F03FEF07F06AEF07F0122A010E30
:100EC0001326000E142215221622D890163215323F
:100ED00014321332000E13140D6E000E14140E6E25
:100EE000000E15140F6EFF0E1614106E0D500E101E
:100EF0000F101010D8A47FEF07F081EF07F05EEF1E
:100F000007F089EF07F01206D8901336143615361D
:100F1000163615BE8EEF07F090EF07F098EF07F04A
:100F2000020E126096EF07F098EF07F083EF07F0DC
:100F300012B09DEF07F09FEF07F0A0EF07F0159EAE
:100F4000D890123212C00DF00E6A0F6A106A0DC0EE
:100F500010F00F6A0E6A0D6A0D5013120E50141223
:100F60000F501512105016121150D8B4BAEF07F0E6
:100F7000BCEF07F0C4EF07F00CBEC3EF07F0C1EF02
:100F800007F0C4EF07F0168E13C009F014C00AF082
:100F900015C00BF016C00CF01200000E0E6E000E05
:100FA0000F6E3C0E4C6E88EF08F0010EB9EC0BF0A2
:100FB000106E0B0E1018D8A4E0EF07F0E2EF07F068
:100FC000FEEF07F03C0E4C6E000E0E6E10500D182A
:100FD000D8A4EDEF07F0EFEF07F0FAEF07F00F06F8
:100FE0000F28D8A4F6EF07F0F8EF07F0FAEF07F0B4
:100FF000000E0F6E10C00DF023EF08F00C0E10184D
:10100000D8A405EF08F007EF08F023EF08F0010E71
:101010000E6E3C0E4C6E10500D18D8A412EF08F056
:1010200014EF08F0FAEF07F00F2A0F040B6E020E10
:101030000B641DEF08F01FEF08F0FAEF07F0030E46
:101040000F6EFAEF07F0370E4C18D8A42AEF08F00D
:101050002CEF08F03EEF08F0450E036E060E046E0E
:10106000800E056EA7EC0CF0450E036E060E046EA6
:10107000C00E056EA7EC0CF0000E536E0E04D8A443
:1010800044EF08F046EF08F052EF08F0800E096ECA
:10109000200E23EC0DF0C00E096E2A0E23EC0DF08D
:1010A00064EF08F00E50D8A458EF08F05AEF08F09B
:1010B00064EF08F0800E096E2A0E23EC0DF0C00ECE
:1010C000096E200E23EC0DF00F50020D3D0EF3249F
:1010D000D96E000EF420DA6EDECF03F0DDCF04F01F
:1010E000820E056EA7EC0CF00F500B6E0C6AD890B8
:1010F0000B360C363F0E0B24D96E000E0C20DA6E28
:10110000DECF03F0DDCF04F0C20E056EA7EC0CF0CD
:101110005304D8B48EEF08F090EF08F0D5EF07F045
:101120001200819A818C818E81B299EF08F09BEF39
:1011300008F09EEF08F0010E14EF09F081B4A3EF60
:1011400008F0A5EF08F0A8EF08F0040E14EF09F07E
:1011500081B6ADEF08F0AFEF08F0B2EF08F0070E80
:1011600014EF09F081B8B7EF08F0B9EF08F0BCEF61
:1011700008F00A0E14EF09F0818A819C818E81B2F9
:10118000C4EF08F0C6EF08F0C9EF08F0020E14EF44
:1011900009F081B4CEEF08F0D0EF08F0D3EF08F0FB
:1011A000050E14EF09F081B6D8EF08F0DAEF08F079
:1011B000DDEF08F0080E14EF09F081B8E2EF08F057
:1011C000E4EF08F0E7EF08F00B0E14EF09F0818A66
:1011D000818C819E819E81B2F0EF08F0F2EF08F0E1
:1011E000F5EF08F0030E14EF09F081B4FAEF08F000
:1011F000FCEF08F0FFEF08F0060E14EF09F081B6DF
:1012000004EF09F006EF09F009EF09F0090E14EFF9
:1012100009F081B80EEF09F010EF09F013EF09F0B3
:101220000C0E14EF09F0FF0E120032343334396E15
:101230003950D8A41EEF09F020EF09F02AEF09F089
:10124000000E306E000E316E000E326E000E336EE8
:1012500097EF09F030C034F031C035F032C036F0CD
:1012600033C037F0200E3AEF09F0D89037323632DB
:1012700035323432E82E35EF09F03450386E328E84
:10128000FF0E3016FF0E3116FF0E3216000E33160B
:10129000960E395E39BE51EF09F04FEF09F067EF56
:1012A00009F03950800A970FD8B059EF09F05BEF79
:1012B00009F05DEF09F020EF09F0D89033323232B7
:1012C00031323032393E5DEF09F07FEF09F01F0E09
:1012D00039646DEF09F06FEF09F077EF09F020EF57
:1012E00009F0D89030363136323633363906395037
:1012F000D8A47DEF09F07FEF09F071EF09F03850C5
:10130000D8B485EF09F087EF09F08FEF09F0331EAD
:10131000321E311E306C000E31223222332230C098
:1013200030F031C031F032C032F033C033F012004F
:101330002FEC0DF0140E1B6EAE0E1C6E230E1D6EE8
:10134000410E1E6E040E7FEC0CF001C009F002C0CD
:101350000AF00B6A0C6A000EF3EC06F009C017F0F5
:101360000AC018F00BC019F00CC01AF071EC03F0B1
:1013700017C030F018C031F019C032F01AC033F085
:1013800015EC09F030C03AF031C03BF0010EB9EC79
:101390000BF03C6E0A0E3C18D8A4D1EF09F0D3EF45
:1013A00009F0D5EF09F0010E536E5304D8A4DBEF1A
:1013B00009F0DDEF09F0E9EF09F0450E036E060EC6
:1013C000046EC00E056EA7EC0CF03EEC05F09AEF33
:1013D00009F0BA0E036E060E046E820E056EA7ECBF
:1013E0000CF0DE0E036E060E046E8A0E056EA7EC80
:1013F0000CF0D80E036E060E046E8E0E056EA7EC72
:101400000CF038EC0DF03C5072EC0AF03AC00BF0E6
:101410003BC00CF0C9EC0CF09AEF09F007EF00F0BC
:10142000000E066E04BE19EF0AF017EF0AF01FEF68
:101430000AF0036C041ED8B0042A010E066E02BE28
:1014400026EF0AF024EF0AF02CEF0AF0016C021EDE
:10145000D8B0022A010E061A000E086E000E076EA2
:1014600003500410D8B437EF0AF039EF0AF061EFF7
:101470000AF0010E056E41EF0AF0D89003360436EB
:10148000052A04AE46EF0AF048EF0AF03DEF0AF0F5
:10149000D890073608360350015C04500258D8A093
:1014A00054EF0AF056EF0AF05BEF0AF00350015ECA
:1014B0000450025A0780D89004320332052E48EFB8
:1014C0000AF00650D8B467EF0AF069EF0AF06DEF42
:1014D0000AF0076C081ED8B0082A07C001F008C03F
:1014E00002F01200066E0604D8A479EF0AF07BEF32
:1014F0000AF07FEF0AF0010E506E000E516E020EE0
:101500000618D8A486EF0AF088EF0AF096EF0AF0E2
:10151000000E506E512A070E5118D8A492EF0AF00F
:1015200094EF0AF096EF0AF0060E516E030E0618BD
:10153000D8A49DEF0AF09FEF0AF0ACEF0AF05050EC
:10154000D8A4A5EF0AF0A7EF0AF0ACEF0AF0512EED
:10155000ACEF0AF0010E516E5004D8A4B2EF0AF0BD
:10156000B4EF0AF0BEEF0AF06EC003F06FC004F0F3
:10157000CA0E056EA7EC0CF0CEEF0AF05150020D2A
:10158000600EF324D96E000EF420DA6EDECF03F085
:10159000DDCF04F0CA0E056EA7EC0CF01200000EB1
:1015A000956E9450F80B946E8290020E046E040EA9
:1015B000036EBA0EE82EFED7032EFCD7042EFAD700
:1015C00000D0000E016E330EEAEC0CF01B0E036E21
:1015D0009E0EE82EFED7032EFCD700D0000E016E23
:1015E000330EEAEC0CF0A60EE82EFED700D0000E6B
:1015F000016E330EEAEC0CF000D000D000F0000ECB
:10160000016E020EEAEC0CF0A60EE82EFED700D01A
:10161000000E016E380EEAEC0CF0A60EE82EFED796
:1016200000D0000E016E010EEAEC0CF0040E036E09
:101630003E0EE82EFED7032EFCD7000E016E0C0ED8
:10164000EAEC0CF0A60EE82EFED700D01200000E39
:10165000066E02BE30EF0BF02EEF0BF036EF0BF004
:10166000016C021ED8B0022A010E066E04BE3DEFC8
:101670000BF03BEF0BF041EF0BF0036C041ED8B006
:10168000042A03500410D8B448EF0BF04AEF0BF0D3
:101690006EEF0BF0010E056E52EF0BF0D890033693
:1016A0000436052A04AE57EF0BF059EF0BF04EEF5E
:1016B0000BF00350015C04500258D8A062EF0BF00D
:1016C00064EF0BF068EF0BF00350015E0450025A18
:1016D000D89004320332052E59EF0BF00650D8B4DF
:1016E00074EF0BF076EF0BF07AEF0BF0016C021E4B
:1016F000D8B0022A01C001F002C002F01200000EB0
:10170000066E000E056E03500410D8B48AEF0BF07D
:101710008CEF0BF0B4EF0BF0010E076E94EF0BF0B3
:10172000D89003360436072A04AE99EF0BF09BEFEE
:101730000BF090EF0BF0D890053606360350015CA5
:1017400004500258D8A0A7EF0BF0A9EF0BF0AEEFB2
:101750000BF00350015E0450025A0580D890043209
:101760000332072E9BEF0BF005C001F006C002F01C
:101770001200016E0150D8A4C0EF0BF0C2EF0BF0C5
:10178000C6EF0BF091EC08F0F1EF0BF00104D8A4D8
:10179000CCEF0BF0CEEF0BF0F1EF0BF091EC08F08B
:1017A000526E5228D8B4D7EF0BF0D9EF0BF0E6EF1A
:1017B0000BF04D50D8B4DFEF0BF0E1EF0BF0E6EF9C
:1017C0000BF0000E4D6E5250F1EF0BF05228D8A4E2
:1017D000ECEF0BF0EEEF0BF0F0EF0BF0010E4D6EB7
:1017E000FF0E120003500410D8B4F9EF0BF0FBEF1A
:1017F0000BF01FEF0CF0010E056E03EF0CF0D8900C
:1018000003360436052A04AE08EF0CF00AEF0CF09C
:10181000FFEF0BF00350015C04500258D8A013EF07
:101820000CF015EF0CF019EF0CF00350015E0450B2
:10183000025AD89004320332052E0AEF0CF001C090
:1018400001F002C002F01200930EF66E1A0EF76E4F
:10185000000EF86E00EE60F010EE10F00900F5CF0B
:10186000EEFFE550E150FAE1820EF66E1A0EF76EC9
:10187000000EF86E00EE3DF010EE11F00900F5CF0D
:10188000EEFFE550E150FAE1536A526A516A506A3C
:101890004F6A4E6A54905492000EF86E060EF76E20
:1018A000000198EF09F00600DE0ED624D66E0B0E6E
:1018B000D720D76EF2A45FEF0CF061EF0CF07DEF54
:1018C0000CF04E4A4F2A510E4E184F10D8A46BEF11
:1018D0000CF06DEF0CF07CEF0CF04C064C28D8A40B
:1018E00074EF0CF076EF0CF078EF0CF03C0E4C6ED1
:1018F000000E4F6E000E4E6EF29454921100086E60
:1019000008C003F0D8900336D8900336C250C30BFA
:101910000310C26EC2829FEF0CF0C4CF03F0030E1F
:1019200003160350056E046AC350066E076A04501E
:101930000610016E05500710026EA6EF0CF0C2B241
:10194000A4EF0CF0A6EF0CF08DEF0CF01200000EDF
:10195000016E0550EAEC0CF0BAEF0CF0010E016ECE
:1019600003C0F6FF04C0F7FF0800F550EAEC0CF0E6
:10197000034A042A03C0F6FF04C0F7FF0800F5502D
:101980000009D8A4C6EF0CF0C8EF0CF0AEEF0CF0D5
:101990001200CE0E096E0BC001F00CC002F0000E5A
:1019A000046E0A0E036E7FEC0BF00150300F23EC37
:1019B0000DF0CF0E096E0BC001F00CC002F0000E4E
:1019C000046E0A0E036EF2EC0BF00150300F23ECA4
:1019D0000DF01200026E01B0F0EF0CF0F3EF0CF01E
:1019E0008282F4EF0CF0829202C083FF82848294A0
:1019F000958E828082928284829483BE02EF0DF063
:101A000004EF0DF0FBEF0CF08290959E1200C28067
:101A1000C19AC198C186C194C182C190C08AC09840
:101A2000C096C094C082C090C08E1200F28EF28C1C
:101A3000F28AF2940B0ED76EDC0ED66ED58ED59C44
:101A4000D59AD58612000A6E000E016E0950EAEC96
:101A50000CF0010E016E0A50EAEC0CF01200CFEC13
:101A60000AF052EC0DF007EC0DF016EC0DF0120040
:101A7000B10E036E060E046EC00E056EA7EC0CF0E0
:101A8000120072068C067F066506990631303130E9
:101A9000003C01D506D206C606C906CC06CF06DB39
:031AA00006C30674
:081AA4001E0E936EF19E12006C
:020000040020DA
:08000000FFFFFFFFFFFFFFFF00
:020000040030CA
:0E000000FF071F1FFF8285FF0FC00FE00F409C
:00000001FF
