:020000040000FA
:0400000007EF00F016
:0A0008005D82C4ED0EF060EF0EF013
:100600000020417474656D707473206F766572207C
:10061000200020456E746572656420696E746F20D9
:100620003A20002057726F6E672050617373776FA6
:100630007264200020456E74657220506173737778
:100640006F72642000436F7272656374207061730F
:1006500073776F726400202020202020202020202B
:1006600020202020202000202D3E20617474656D04
:100670007074732020005365742074696D652020A8
:100680002020200056696577206C6F67202020208D
:100690002000436C656172206C6F67202020200071
:1006A0004368616E67652070617373202000446F3A
:1006B000776E6C6F6164206C6F67200020576169F2
:1006C0007420666F72200054494D450073656300C5
:1006D000432000473100473200473300473400438E
:1006E0004C00444C00564C00474E004F4E004350C7
:1006F00000535000475200535400455600001A5012
:10070000800B276E1A501A242E6E19AE8AEF03F052
:100710008CEF03F08DEF03F02E802E50D8B493EFC2
:1007200003F095EF03F0AAEF03F02E28D8A49BEF77
:1007300003F09DEF03F0A5EF03F0000E176E000E1F
:10074000186E000E196E000E1A6E198E000E1A6EBB
:10075000B2EF03F0000E176E000E186E000E196E49
:10076000000E1A6E1E50800B271A1E501E242F6E6C
:100770001DAEBDEF03F0BFEF03F0C0EF03F02F801D
:100780002F50D8B4C6EF03F0C8EF03F0DDEF03F04D
:100790002F28D8A4CEEF03F0D0EF03F0D8EF03F06A
:1007A000000E1B6E000E1C6E000E1D6E000E1E6EE7
:1007B0001D8E000E1E6EE5EF03F0000E1B6E000E88
:1007C0001C6E000E1D6E000E1E6E1B501C101D10A8
:1007D0001E10D8A4EEEF03F0F0EF03F008EF04F0E2
:1007E000000E176E000E186E000E196E000E1A6EB7
:1007F000800E19127F0E1A1227501A1217C017F006
:1008000018C018F019C019F01AC01AF04BEF05F013
:100810002E50D8A40EEF04F010EF04F01AEF04F0FD
:10082000000E176E000E186E000E196E000E1A6E76
:100830004BEF05F02F502EC01FF0206A1F5E000EF8
:10084000205A7F0E1F24286E000E2020296E17C00C
:1008500023F018C024F019C025F01AC026F0000EAD
:10086000176E000E186E000E196E000E1A6E000E36
:100870002A6E000E2B6E000E2C6E000E2D6E000EDA
:100880002F6E7BEF04F02F50D8B449EF04F04BEFFC
:1008900004F062EF04F0D89023362436253626364D
:1008A000D8901736183619361A362DAE5AEF04F08E
:1008B0005CEF04F05DEF04F01780D8902A362B36F9
:1008C0002C362D361B50235C1C5024581D502558A7
:1008D0001E502658D8A06FEF04F071EF04F07AEFA5
:1008E00004F02D8C1B50235E1C50245A1D50255A99
:1008F0001E50265A2F2A190E2F6481EF04F083EF21
:1009000004F043EF04F02350241025102610D8B42F
:100910008CEF04F08EEF04F0A6EF04F02A80A6EF2F
:1009200004F0D8901736183619361A362DAE9BEFCC
:1009300004F09DEF04F09EEF04F01780D8902A3663
:100940002B362C362D362806D8A0290619AEABEF4B
:1009500004F0ADEF04F091EF04F0000E2F6E2DAE19
:10096000B4EF04F0B6EF04F0DAEF04F0FF0E2A144F
:100970001F6EFF0E2B14206EFF0E2C14216E7F0EA7
:100980002D14226E1F50201021102210D8B4CBEF4E
:1009900004F0CDEF04F0D1EF04F0010E2F6EDAEF8A
:1009A00004F017A0D6EF04F0D8EF04F0DAEF04F06B
:1009B000CDEF04F02F50D8B4E0EF04F0E2EF04F0F4
:1009C00006EF05F0010E1726000E182219221A2232
:1009D0001AA0EDEF04F0EFEF04F006EF05F017C0FA
:1009E0001FF018C020F019C021F01AC022F02234E4
:1009F0002232213220321F321FC017F020C018F0DF
:100A000021C019F022C01AF0284A292A29BE11EF64
:100A100005F0295008E12828D8A011EF05F013EFC0
:100A200005F01EEF05F0000E296E2868000E176E07
:100A3000000E186E000E196E000E1A6E29BE2BEFF6
:100A400005F0295006E12804D8B029EF05F02BEF76
:100A500005F039EF05F0000E296E000E286E000E2D
:100A6000176E000E186E000E196E000E1A6E000E34
:100A7000276E28C02EF02EA040EF05F042EF05F0C3
:100A800045EF05F0198E46EF05F0199ED8902E30EF
:100A90001A6EFCEF03F012000D6E340E036E060E9C
:100AA000046E800E056E2AEC0EF00B0E0D18D8A405
:100AB0005CEF05F05EEF05F071EF05F03C0E5C6E4B
:100AC0009A0E4A24D96EDA6A000EDA22310EDF6EEF
:100AD0004A50C50F096E2A0EBBEC0FF04A2A8CEF64
:100AE00005F00C0E0D18D8A478EF05F07AEF05F09C
:100AF0008CEF05F03C0E5C6E9A0E4A24D96EDA6AD1
:100B0000000EDA22300EDF6E4A50C50F096E2A0E33
:100B1000BBEC0FF06EEF05F0370E5C18D8A493EF26
:100B200005F095EF05F0ADEF05F0560E036E060EDD
:100B3000046E800E056E2AEC0EF0560E036E060E45
:100B4000046EC00E056E2AEC0EF0000E4A6E4AC00E
:100B500050F0030E5A6EFAEF06F042500B6E4350FF
:100B60000C6E424A432AF40E0B5C010E0C58D8B0AE
:100B7000BCEF05F0BEEF05F0C6EF05F04A50C50F1B
:100B8000096E5F0EBBEC0FF0D7EF05F0F50E425C7F
:100B9000010E4358D8A0CFEF05F0D1EF05F0D7EF05
:100BA00005F04A50C50F096E200EBBEC0FF0E80EA1
:100BB000421807E1030E4318D8A4E1EF05F0E3EF74
:100BC00005F0E7EF05F0000E436E000E426E040ED6
:100BD0004A18D8A4EEEF05F0F0EF05F09BEF06F011
:100BE000080E0C6E9D0E0B6E060EE82EFED70B2E19
:100BF000FCD70C2EFAD7000E4A6E000E0F6E000EB8
:100C00000E6E9A0E0E24D96E000E0F20DA6E840E30
:100C10000E24E16E000E0F20E26EDE50E618D8A41E
:100C200014EF06F016EF06F017EF06F0492A0E4A09
:100C30000F2A0FBE25EF06F00F5009E1040E0E5CDF
:100C4000D8A025EF06F027EF06F001EF06F0040E1E
:100C50004918D8A42EEF06F030EF06F066EF06F044
:100C6000450E036E060E046E800E056E2AEC0EF025
:100C7000560E036E060E046EC00E056E2AEC0EF0C4
:100C80001A0E0C6E5E0E0B6E6E0EE82EFED70B2E3D
:100C9000FCD70C2EFAD700D0020E506E3C0E5C6EC4
:100CA000560E036E060E046E800E056E2AEC0EF0D4
:100CB000000E436E000E426E42C049F049C044F03F
:100CC00044C04AF0030E5A6E9BEF06F0040E4960D2
:100CD0006CEF06F06EEF06F09BEF06F0000E496E2B
:100CE0005A06230E036E060E046E800E056E2AEC65
:100CF0000EF0C10E096E5A50300FBBEC0FF0670EAC
:100D0000036E060E046EC20E056E2AEC0EF01A0E6D
:100D10000C6E5E0E0B6E6E0EE82EFED70B2EFCD701
:100D20000C2EFAD700D0560E036E060E046EC00EBF
:100D3000056E2AEC0EF05A50D8A4A1EF06F0A3EFEE
:100D400006F0FAEF06F03B0E5C6E3C0E5C18D8A481
:100D5000ACEF06F0AEEF06F0B0EF06F0E8EF06F00D
:100D6000010E036E060E046E800E056E2AEC0EF068
:100D7000BC0E036E060E046EC00E056E2AEC0EF05D
:100D8000CA0E096E5CC001F0026A000E046E0A0E03
:100D9000036E08EC0CF00150300FBBEC0FF0CB0EE3
:100DA000096E5CC001F0026A000E046E0A0E036E4A
:100DB0001DEC0DF00150300FBBEC0FF0CC0E036EAC
:100DC000060E046ECD0E056E2AEC0EF0A5EF06F0B1
:100DD000560E036E060E046E800E056E2AEC0EF0A3
:100DE000560E036E060E046EC00E056E2AEC0EF053
:100DF000A5EF05F012000D6E0B0E0D18D8A403EF31
:100E000007F005EF07F065EF07F00B0E466E425056
:100E10000B6E43500C6E424A432A910E0B5C010E3E
:100E20000C58D8A016EF07F018EF07F0B3EF07F053
:100E3000120E036E060E046E800E056E2AEC0EF086
:100E40004450020D7A0EF324D96E000EF420DA6EAF
:100E5000DECF03F0DDCF04F0C00E056E2AEC0EF0FD
:100E60004450D8A436EF07F038EF07F03CEF07F016
:100E7000000E4E6E3EEF07F0010E4E6E330E0C6EFE
:100E8000BB0E0B6EE00EE82EFED70B2EFCD70C2E01
:100E9000FAD7000E456E45C046F046C047F047C041
:100EA00048F048C050F0560E036E060E046E800ED9
:100EB000056E2AEC0EF0560E036E060E046EC00E82
:100EC000056E2AEC0EF0A6EF08F042504310D8B49D
:100ED0006CEF07F06EEF07F0B3EF07F0900E425C97
:100EE000010E4358D8B077EF07F079EF07F0B3EF72
:100EF00007F00D28D8A47FEF07F081EF07F0B3EFDC
:100F000007F00B0E4618D8A488EF07F08AEF07F019
:100F1000B3EF07F03C0E5C6E000E476E0B0E4518EB
:100F2000D8A495EF07F097EF07F0A2EF07F0480677
:100F30004828D8A49EEF07F0A0EF07F0A2EF07F033
:100F4000000E486E44064428D8A4A9EF07F0ABEF82
:100F500007F0ADEF07F0000E446E46C045F0000EFE
:100F6000436E000E426E0C0E0D18D8A4BAEF07F0B7
:100F7000BCEF07F0E9EF07F00C0E466E42500B6E27
:100F800043500C6E424A432A910E0B5C010E0C58E2
:100F9000D8A0CDEF07F0CFEF07F03BEF08F0000E41
:100FA000476E47C044F044C048F048C050F0560E69
:100FB000036E060E046E800E056E2AEC0EF0560EC1
:100FC000036E060E046EC00E056E2AEC0EF0A6EF40
:100FD00008F042504310D8B4F0EF07F0F2EF07F0FA
:100FE0003BEF08F0900E425C010E4358D8B0FBEF87
:100FF00007F0FDEF07F03BEF08F00D28D8A403EF52
:1010000008F005EF08F03BEF08F00C0E4618D8A4E6
:101010000CEF08F00EEF08F03BEF08F03C0E5C6EB2
:10102000010E476E0C0E4518D8A419EF08F01BEFFF
:1010300008F028EF08F0482A48040B6E020E0B64F3
:1010400024EF08F026EF08F028EF08F0030E486EB2
:10105000442A44040B6E030E0B6431EF08F033EFA7
:1010600008F035EF08F0040E446E46C045F0000E5F
:10107000436E000E426E4704D8A441EF08F043EFE0
:1010800008F04FEF08F0800E096E200EBBEC0FF059
:10109000C00E096E2A0EBBEC0FF061EF08F047504E
:1010A000D8A455EF08F057EF08F061EF08F0800E74
:1010B000096E2A0EBBEC0FF0C00E096E200EBBECC1
:1010C0000FF04850020D7A0EF324D96E000EF42072
:1010D000DA6EDECF03F0DDCF04F0820E056E2AEC6F
:1010E0000EF048500B6E0C6AD8900B360C367C0E06
:1010F0000B24D96E000E0C20DA6EDECF03F0DDCFAC
:1011000004F0C20E056E2AEC0EF0370E5C18D8A45F
:101110008CEF08F08EEF08F0A6EF08F0560E036E85
:10112000060E046E800E056E2AEC0EF0560E036E4F
:10113000060E046EC00E056E2AEC0EF0000E476E11
:1011400047C044F044C048F048C050F01200086E58
:101150000804D8A4AEEF08F0B0EF08F0B6EF08F03E
:10116000010E4B6E000E4C6E000E4E6E020E0818F5
:10117000D8A4BDEF08F0BFEF08F0CFEF08F0000EE5
:101180004B6E4C2A000E4E6E070E4C18D8A4CBEFB7
:1011900008F0CDEF08F0CFEF08F0060E4C6E030E0E
:1011A0000818D8A4D6EF08F0D8EF08F0EFEF08F051
:1011B0004B50D8A4DEEF08F0E0EF08F0EFEF08F0B6
:1011C0004C50D8B4E6EF08F0E8EF08F0EFEF08F085
:1011D0004C2EEDEF08F0010E4C6E000E4E6E4E04DC
:1011E000D8A4F5EF08F0F7EF08F02FEF09F044501E
:1011F000020D700EF324D96E000EF420DA6EDECFED
:1012000003F0DDCF04F0CA0E056E2AEC0EF0445058
:10121000020D700EF324D96E000EF420DA6EDECFCC
:10122000F6FFDDCFF7FF0800F5CF94F04450020D34
:10123000700EF324D96E000EF420DA6EDECF06F0C5
:10124000DDCF07F0010E0626000E072206C0F6FFCE
:1012500007C0F7FF0800F5CF95F08EEF09F04B04BB
:10126000D8A435EF09F037EF09F058EF09F06EC058
:1012700003F06FC004F0CA0E056E2AEC0EF020EEEB
:101280006EF0DECFF6FFDDCFF7FF0800F5CF94F06C
:10129000010E00016E25066E000E6F21076E06C05E
:1012A000F6FF07C0F7FF0800F5CF95F08EEF09F0C5
:1012B0004C50020D600EF324D96E000EF420DA6E4D
:1012C000DECF03F0DDCF04F0CA0E056E2AEC0EF07F
:1012D0004C50020D600EF324D96E000EF420DA6E2D
:1012E000DECFF6FFDDCFF7FF0800F5CF94F04C50CE
:1012F000020D600EF324D96E000EF420DA6EDECFFC
:1013000006F0DDCF07F0010E0626000E072206C00C
:10131000F6FF07C0F7FF0800F5CF95F01200116E39
:101320001150D8B496EF09F098EF09F0BAEF09F030
:101330000CBE9FEF09F09DEF09F0BAEF09F009C06C
:101340000DF00AC00EF00BC00FF00CC010F00D1E17
:101350000E1E0F1E101E0D2A000E0E220F2210222E
:101360000DC013F00EC014F00FC015F010C016F031
:10137000C2EF09F009C013F00AC014F00BC015F059
:101380000CC016F009500A100B100C10D8A4CBEFAB
:1013900009F0CDEF09F0D7EF09F0000E096E000E4D
:1013A0000A6E000E0B6E000E0C6E68EF0AF0960EC1
:1013B000126EE1EF09F0122AD8901632153214326B
:1013C0001332000E13140D6E000E14140E6E000E68
:1013D00015140F6EFE0E1614106E0D500E100F1019
:1013E0001010D8A4F6EF09F0F8EF09F0DBEF09F0E0
:1013F00006EF0AF0122A010E1326000E14221522FF
:101400001622D8901632153214321332000E1314ED
:101410000D6E000E14140E6E000E15140F6EFF0EDE
:101420001614106E0D500E100F101010D8A41BEFD4
:101430000AF01DEF0AF0FAEF09F025EF0AF01206A4
:10144000D890133614361536163615BE2AEF0AF024
:101450002CEF0AF034EF0AF0020E126032EF0AF0BD
:1014600034EF0AF01FEF0AF012B039EF0AF03BEF49
:101470000AF03CEF0AF0159ED890123212C00DF01F
:101480000E6A0F6A106A0DC010F00F6A0E6A0D6ABC
:101490000D5013120E5014120F5015121050161238
:1014A0001150D8B456EF0AF058EF0AF060EF0AF086
:1014B0000CBE5FEF0AF05DEF0AF060EF0AF0168EE7
:1014C00013C009F014C00AF015C00BF016C00CF0E0
:1014D0001200A1EC0FF0140E1B6EAE0E1C6E230E4C
:1014E0001D6E410E1E6E040EF0EC0EF001C009F0F0
:1014F00002C00AF00B6A0C6A000E8FEC09F009C0FA
:1015000017F00AC018F00BC019F00CC01AF07FECED
:1015100003F017C030F018C031F019C032F01AC013
:1015200033F085EC0BF030C03AF031C03BF0020EE6
:101530005018D8A49EEF0AF0A0EF0AF0A6EF0AF028
:10154000000EF1EC0DF03C6EAAEF0AF0010EF1EC8A
:101550000DF03C6E0A0E3C18D8A4B1EF0AF0B3EFC0
:101560000AF0BFEF0AF0010E506E3C0E5C6E560E94
:10157000036E060E046EC00E056E2AEC0EF05004CB
:10158000D8A4C5EF0AF0C7EF0AF0CCEF0AF03C5040
:101590004CEC05F06BEF0AF0020E5018D8A4D3EF14
:1015A0000AF0D5EF0AF0DAEF0AF03C50FBEC06F057
:1015B0006BEF0AF0C70E036E060E046E820E056E08
:1015C0002AEC0EF0FA0E036E060E046E8A0E056EFD
:1015D0002AEC0EF0F10E036E060E046E8E0E056EF2
:1015E0002AEC0EF0D2EC0FF03C50A7EC08F03AC019
:1015F0000BF03BC00CF075EC0DF06BEF0AF007EF51
:1016000000F0819A818C818E81B209EF0BF00BEF93
:101610000BF00EEF0BF0010E84EF0BF081B413EF23
:101620000BF015EF0BF018EF0BF0040E84EF0BF03E
:1016300081B61DEF0BF01FEF0BF022EF0BF0070E42
:1016400084EF0BF081B827EF0BF029EF0BF02CEFB4
:101650000BF00A0E84EF0BF0818A819C818E81B29F
:1016600034EF0BF036EF0BF039EF0BF0020E84EF96
:101670000BF081B43EEF0BF040EF0BF043EF0BF0BB
:10168000050E84EF0BF081B648EF0BF04AEF0BF03C
:101690004DEF0BF0080E84EF0BF081B852EF0BF01A
:1016A00054EF0BF057EF0BF00B0E84EF0BF0818A29
:1016B000818C819E819E81B260EF0BF062EF0BF016
:1016C00065EF0BF0030E84EF0BF081B46AEF0BF0C3
:1016D0006CEF0BF06FEF0BF0060E84EF0BF081B6A2
:1016E00074EF0BF076EF0BF079EF0BF0090E84EF4F
:1016F0000BF081B87EEF0BF080EF0BF083EF0BF077
:101700000C0E84EF0BF0FF0E120032343334396EBE
:101710003950D8A48EEF0BF090EF0BF09AEF0BF04E
:10172000000E306E000E316E000E326E000E336E03
:1017300007EF0CF030C034F031C035F032C036F075
:1017400033C037F0200EAAEF0BF0D8903732363284
:1017500035323432E82EA5EF0BF03450386E328E2D
:10176000FF0E3016FF0E3116FF0E3216000E331626
:10177000960E395E39BEC1EF0BF0BFEF0BF0D7EF1D
:101780000BF03950800A970FD8B0C9EF0BF0CBEFB0
:101790000BF0CDEF0BF090EF0BF0D89033323232EC
:1017A00031323032393ECDEF0BF0EFEF0BF01F0E40
:1017B0003964DDEF0BF0DFEF0BF0E7EF0BF090EFAC
:1017C0000BF0D89030363136323633363906395050
:1017D000D8A4EDEF0BF0EFEF0BF0E1EF0BF038508A
:1017E000D8B4F5EF0BF0F7EF0BF0FFEF0BF0331E73
:1017F000321E311E306C000E31223222332230C0B4
:1018000030F031C031F032C032F033C033F012006A
:10181000000E066E04BE11EF0CF00FEF0CF017EF88
:101820000CF0036C041ED8B0042A010E066E02BE32
:101830001EEF0CF01CEF0CF024EF0CF0016C021EFC
:10184000D8B0022A010E061A000E086E000E076EAE
:1018500003500410D8B42FEF0CF031EF0CF059EF17
:101860000CF0010E056E39EF0CF0D89003360436FB
:10187000052A04AE3EEF0CF040EF0CF035EF0CF013
:10188000D890073608360350015C04500258D8A09F
:101890004CEF0CF04EEF0CF053EF0CF00350015EE8
:1018A0000450025A0780D89004320332052E40EFCC
:1018B0000CF00650D8B45FEF0CF061EF0CF065EF60
:1018C0000CF0076C081ED8B0082A07C001F008C049
:1018D00002F01200020E59EC0FF03D6E010E59ECB1
:1018E0000FF03E6E000E59EC0FF03F6E200E00011F
:1018F000896F200E8A6F3DAC80EF0CF082EF0CF008
:1019000091EF0CF03D380F0B010B300F8B6F8BC03C
:1019100051F03D500F0B300F8C6F8CC052F09EEF8A
:101920000CF03D380F0B030B300F8B6F8BC051F059
:101930003D500F0B300F8C6F8CC052F03A0E8D6FF4
:101940008DC053F03E380F0B0F0B300F8E6F8EC0D3
:1019500054F03E500F0B300F8F6F8FC055F03A0E82
:10196000906F90C056F03F380F0B0F0B300F916FF8
:1019700091C057F03F500F0B300F926F92C058F04C
:10198000000E596E200E936F1200000E956E94504B
:10199000F80B946E8290020E046E040E036EBA0E63
:1019A000E82EFED7032EFCD7042EFAD700D0000E67
:1019B000016E330E3CEC0FF01B0E036E9E0EE82EF4
:1019C000FED7032EFCD700D0000E016E330E3CEC88
:1019D0000FF0A60EE82EFED700D0000E016E330EDB
:1019E0003CEC0FF000D000D000F0000E016E020EB3
:1019F0003CEC0FF0A60EE82EFED700D0000E016ED4
:101A0000380E3CEC0FF0A60EE82EFED700D0000EEC
:101A1000016E010E3CEC0FF0040E036E3E0EE82E3C
:101A2000FED7032EFCD7000E016E0C0E3CEC0FF01F
:101A3000A60EE82EFED700D01200000E066E02BEE3
:101A400026EF0DF024EF0DF02CEF0DF0016C021ECF
:101A5000D8B0022A010E066E04BE33EF0DF031EF4E
:101A60000DF037EF0DF0036C041ED8B0042A0350BC
:101A70000410D8B43EEF0DF040EF0DF064EF0DF020
:101A8000010E056E48EF0DF0D89003360436052A96
:101A900004AE4DEF0DF04FEF0DF044EF0DF003509D
:101AA000015C04500258D8A058EF0DF05AEF0DF029
:101AB0005EEF0DF00350015E0450025AD8900432DC
:101AC0000332052E4FEF0DF00650D8B46AEF0DF03B
:101AD0006CEF0DF070EF0DF0016C021ED8B0022A11
:101AE00001C001F002C002F01200200E0001966F4A
:101AF000CE0E096E0BC001F00CC002F0000E046E99
:101B00000A0E036EB7EC0DF00150300FBBEC0FF076
:101B1000CF0E096E0BC001F00CC002F0000E046E77
:101B20000A0E036E92EC0EF00150300FBBEC0FF07A
:101B30000BC001F00CC002F0000E046E0A0E036E22
:101B4000B7EC0DF00150300F0001976F0BC001F0A2
:101B50000CC002F0000E046E0A0E036E92EC0EF042
:101B60000150300F0001986F000E996F1200000EA7
:101B7000066E000E056E03500410D8B4C2EF0DF0CF
:101B8000C4EF0DF0ECEF0DF0010E076ECCEF0DF091
:101B9000D89003360436072A04AED1EF0DF0D3EF08
:101BA0000DF0C8EF0DF0D890053606360350015CF5
:101BB00004500258D8A0DFEF0DF0E1EF0DF0E6EF92
:101BC0000DF00350015E0450025A0580D890043293
:101BD0000332072ED3EF0DF005C001F006C002F06E
:101BE0001200016E0150D8A4F8EF0DF0FAEF0DF0DD
:101BF000FEEF0DF001EC0BF029EF0EF00104D8A47C
:101C000004EF0EF006EF0EF029EF0EF001EC0BF0F2
:101C10004D6E4D28D8B40FEF0EF011EF0EF01EEF01
:101C20000EF05B50D8B417EF0EF019EF0EF01EEF68
:101C30000EF0000E5B6E4D5029EF0EF04D28D8A42B
:101C400024EF0EF026EF0EF028EF0EF0010E5B6E83
:101C5000FF0E1200000E016E05503CEC0FF047EF36
:101C60000EF0010E016E03C0F6FF04C0F7FFF86A24
:101C7000050EF76403D00800F55005D0F6CFE9FF54
:101C8000F7CFEAFFEF503CEC0FF0034A042A03C001
:101C9000F6FF04C0F7FFF86A050EF76403D00800EA
:101CA000F55005D0F6CFE9FFF7CFEAFFEF50000976
:101CB000D8A45DEF0EF05FEF0EF031EF0EF01200E2
:101CC000DC0EF66E1E0EF76E000EF86E00EE60F083
:101CD00010EE29F00900F5CFEEFFE550E150FAE1F2
:101CE000120EF66E200EF76E000EF86E0900F5CF9C
:101CF0005AF00900F5CF5BF00900F5CF5CF000EE7B
:101D000089F0160EEE6AE806FDE100EE3DF01D0ECC
:101D1000EE6AE806FDE15D905D92000EF86E00014E
:101D200069EF0AF003500410D8B499EF0EF09BEF5E
:101D30000EF0BFEF0EF0010E056EA3EF0EF0D8907F
:101D400003360436052A04AEA8EF0EF0AAEF0EF013
:101D50009FEF0EF00350015C04500258D8A0B3EF7F
:101D60000EF0B5EF0EF0B9EF0EF00350015E045027
:101D7000025AD89004320332052EAAEF0EF001C0A9
:101D800001F002C002F012000600DE0ED624D66E6C
:101D90000B0ED720D76EF2A4D0EF0EF0D2EF0EF0DC
:101DA000EEEF0EF0404A412A510E40184110D8A4DF
:101DB000DCEF0EF0DEEF0EF0EDEF0EF05C065C28CF
:101DC000D8A4E5EF0EF0E7EF0EF0E9EF0EF03C0ED1
:101DD0005C6E000E416E000E406EF2945D9211003A
:101DE000086E08C003F0D8900336D8900336C2506E
:101DF000C30B0310C26EC28210EF0FF0C4CF03F00A
:101E0000030E03160350056E046AC350066E076A7C
:101E100004500610016E05500710026E17EF0FF008
:101E2000C2B215EF0FF017EF0FF0FEEF0EF0120039
:101E3000000E59EC0FF0046E04508009026E000E83
:101E400083EC0FF0020E59EC0FF0046E04504009C1
:101E5000026E020E83EC0FF0930E026E070E83ECFF
:101E60000FF0000E59EC0FF0046E04507F0B026E61
:101E7000000E83EC0FF01200026E01B042EF0FF083
:101E800045EF0FF0828246EF0FF0829202C083FF8F
:101E900082848294958E828082928284829483BE90
:101EA00054EF0FF056EF0FF04DEF0FF08290959E2C
:101EB0001200026EFAEC0FF0D00EE6EC0FF00250BA
:101EC000E6EC0FF0FEEC0FF0D10EE6EC0FF0ECECD0
:101ED0000FF0036EF6EC0FF003501200EB06E8066D
:101EE000D306D606D906DC06F406D006E506F706C4
:101EF000E206DF06EE0684067606AE069206A00629
:051F000031313030001A
:101F0600036EFAEC0FF0D00EE6EC0FF00350E6ECA1
:101F16000FF00250E6EC0FF0F6EC0FF01200C28064
:101F2600C19AC198C186C194C182C190C08AC09825
:101F3600C096C094C082C090C08E1200C5EC0CF052
:101F4600F2EC0FF092EC0FF0AEEC0FF0C7EC0FF0E6
:101F560018EC0FF01200F28EF28CF28AF2940B0E4D
:101F6600D76EDC0ED66ED58ED59CD59AD586120048
:101F76000A6E000E016E09503CEC0FF0010E016E68
:101F86000A503CEC0FF0120094869488280EC66E18
:101F9600310EC86EC79CC78E9E96A19612006AEC3B
:101FA6000CF0510E036E000E046EC00E056E2AEC88
:101FB6000EF012009EA6E2EF0FF0E4EF0FF0DDEF59
:101FC6000FF09E961200016E01C0C9FFDDEC0FF006
:101FD600120002EC10F006EC10F0C95012001E0EB2
:101FE600936EF19E1200C584DDEC0FF01200C580E1
:101FF600DDEC0FF01200C582DDEC0FF01200C58695
:0F200600DDEC0FF01200C58AC588120003013C03
:020000040020DA
:08000000FFFFFFFFFFFFFFFF00
:020000040030CA
:0E000000FF071F1FFF8285FF0FC00FE00F409C
:00000001FF
