:020000040000FA
:0400000007EF00F016
:0A000800598229ED0DF0FAEF0CF01B
:100600000020417474656D707473206F766572207C
:10061000200020456E746572656420696E746F20D9
:100620003A20002057726F6E672050617373776FA6
:100630007264200020456E74657220506173737778
:100640006F72642000436F7272656374207061730F
:1006500073776F726400202020202020202020202B
:1006600020202020202000202D3E20617474656D04
:100670007074732020005365742074696D652020A8
:1006800020200056696577206C6F672020202000AD
:10069000436C656172206C6F6720202000446F7787
:1006A0006E202D206C6F672020004368616E6765A7
:1006B00020706173732000205761697420666F7227
:1006C000200031323A30303A30300054494D450044
:1006D0007365630043200047310047320047330011
:1006E000473400474E004F4E0053500047520045DC
:0306F000560000B1
:1006F4001A50800B276E1A501A242E6E19AE85EFED
:1007040003F087EF03F088EF03F02E802E50D8B467
:100714008EEF03F090EF03F0A5EF03F02E28D8A49A
:1007240096EF03F098EF03F0A0EF03F0000E176EBE
:10073400000E186E000E196E000E1A6E198E000E41
:100744001A6EADEF03F0000E176E000E186E000E59
:10075400196E000E1A6E1E50800B271A1E501E248E
:100764002F6E1DAEB8EF03F0BAEF03F0BBEF03F04A
:100774002F802F50D8B4C1EF03F0C3EF03F0D8EFAC
:1007840003F02F28D8A4C9EF03F0CBEF03F0D3EF85
:1007940003F0000E1B6E000E1C6E000E1D6E000E8C
:1007A4001E6E1D8E000E1E6EE0EF03F0000E1B6E1B
:1007B400000E1C6E000E1D6E000E1E6E1B501C10D3
:1007C4001D101E10D8A4E9EF03F0EBEF03F003EFC4
:1007D40004F0000E176E000E186E000E196E000E57
:1007E4001A6E800E19127F0E1A1227501A1217C091
:1007F40017F018C018F019C019F01AC01AF046EF13
:1008040005F02E50D8A409EF04F00BEF04F015EF17
:1008140004F0000E176E000E186E000E196E000E16
:100824001A6E46EF05F02F502EC01FF0206A1F5E8F
:10083400000E205A7F0E1F24286E000E2020296EE1
:1008440017C023F018C024F019C025F01AC026F0F0
:10085400000E176E000E186E000E196E000E1A6E42
:10086400000E2A6E000E2B6E000E2C6E000E2D6EE6
:10087400000E2F6E76EF04F02F50D8B444EF04F03E
:1008840046EF04F05DEF04F0D89023362436253685
:100894002636D8901736183619361A362DAE55EF37
:1008A40004F057EF04F058EF04F01780D8902A367C
:1008B4002B362C362D361B50235C1C5024581D50CF
:1008C40025581E502658D8A06AEF04F06CEF04F0A7
:1008D40075EF04F02D8C1B50235E1C50245A1D50C0
:1008E400255A1E50265A2F2A190E2F647CEF04F025
:1008F4007EEF04F03EEF04F0235024102510261060
:10090400D8B487EF04F089EF04F0A1EF04F02A8053
:10091400A1EF04F0D8901736183619361A362DAED2
:1009240096EF04F098EF04F099EF04F01780D89054
:100934002A362B362C362D362806D8A0290619AE91
:10094400A6EF04F0A8EF04F08CEF04F0000E2F6E75
:100954002DAEAFEF04F0B1EF04F0D5EF04F0FF0ECD
:100964002A141F6EFF0E2B14206EFF0E2C14216E02
:100974007F0E2D14226E1F50201021102210D8B487
:10098400C6EF04F0C8EF04F0CCEF04F0010E2F6EB4
:10099400D5EF04F017A0D1EF04F0D3EF04F0D5EFB6
:1009A40004F0C8EF04F02F50D8B4DBEF04F0DDEF0F
:1009B40004F001EF05F0010E1726000E182219228B
:1009C4001A221AA0E8EF04F0EAEF04F001EF05F0B0
:1009D40017C01FF018C020F019C021F01AC022F06F
:1009E40022342232213220321F321FC017F020C09D
:1009F40018F021C019F022C01AF0284A292A29BE69
:100A04000CEF05F0295008E12828D8A00CEF05F0D8
:100A14000EEF05F019EF05F0000E296E2868000EA0
:100A2400176E000E186E000E196E000E1A6E29BE97
:100A340026EF05F0295006E12804D8B024EF05F08C
:100A440026EF05F034EF05F0000E296E000E286E37
:100A5400000E176E000E186E000E196E000E1A6E40
:100A6400000E276E28C02EF02EA03BEF05F03DEFC0
:100A740005F040EF05F0198E41EF05F0199ED8906E
:100A84002E301A6EF7EF03F012000D6E340E036E63
:100A9400060E046E800E056E7DEC0DF00B0E0D1827
:100AA400D8A457EF05F059EF05F06CEF05F03C0EB4
:100AB400586E3D0E4E24D96EDA6A000EDA22310EDB
:100AC400DF6E4E50C50F096E2A0E06EC0EF04E2A4C
:100AD40087EF05F00C0E0D18D8A473EF05F075EF31
:100AE40005F087EF05F03C0E586E3D0E4E24D96E8E
:100AF400DA6A000EDA22300EDF6E4E50C50F096E30
:100B04002A0E06EC0EF069EF05F0370E5818D8A43B
:100B14008EEF05F090EF05F0A8EF05F0560E036E8A
:100B2400060E046E800E056E7DEC0DF0560E036EFF
:100B3400060E046EC00E056E7DEC0DF0000E506EB8
:100B4400000E4E6E030E566EF3EF06F044500B6E1D
:100B540045500C6E444A452AF40E0B5C010E0C58A9
:100B6400D8B0B7EF05F0B9EF05F0C1EF05F04E507E
:100B7400C50F096E5F0E06EC0EF0D2EF05F0F50E10
:100B8400445C010E4558D8A0CAEF05F0CCEF05F03F
:100B9400D2EF05F04E50C50F096E200E06EC0EF094
:100BA400E80E441807E1030E4518D8A4DCEF05F05D
:100BB400DEEF05F0E2EF05F0000E456E000E446E28
:100BC400040E4E18D8A4E9EF05F0EBEF05F094EF0E
:100BD40006F0080E0C6E9D0E0B6E060EE82EFED768
:100BE4000B2EFCD70C2EFAD7000E4E6E000E0F6E95
:100BF400000E0E6E3D0E0E24D96E000E0F20DA6E1E
:100C0400510E0E24E16E000E0F20E26EDE50E61847
:100C1400D8A40FEF06F011EF06F012EF06F04D2AFC
:100C24000E4A0F2A0FBE20EF06F00F5009E1040E02
:100C34000E5CD8A020EF06F022EF06F0FCEF05F0E2
:100C4400040E4D18D8A429EF06F02BEF06F05FEF41
:100C540006F0450E036E060E046E800E056E7DECE6
:100C64000DF0560E036E060E046EC00E056E7DEC7E
:100C74000DF01A0E0C6E5E0E0B6E6E0EE82EFED785
:100C84000B2EFCD70C2EFAD700D0020E506E3C0E61
:100C9400586E560E036E060E046E800E056E7DECC5
:100CA4000DF0000E4E6E000E4D6E030E566E000ECD
:100CB400456E000E446E94EF06F0040E4D6065EF31
:100CC40006F067EF06F094EF06F0000E4D6E560640
:100CD400230E036E060E046E800E056E7DEC0DF081
:100CE400C10E096E5650300F06EC0EF0670E036EFF
:100CF400060E046EC20E056E7DEC0DF01A0E0C6E1F
:100D04005E0E0B6E6E0EE82EFED70B2EFCD70C2E4D
:100D1400FAD700D0560E036E060E046EC00E056E92
:100D24007DEC0DF05650D8A49AEF06F09CEF06F037
:100D3400F3EF06F03B0E586E3C0E5818D8A4A5EFFE
:100D440006F0A7EF06F0A9EF06F0E1EF06F0010EBA
:100D5400036E060E046E800E056E7DEC0DF0B70E6C
:100D6400036E060E046EC00E056E7DEC0DF0CA0E09
:100D7400096E58C001F0026A000E046E0A0E036E7A
:100D8400E6EC0AF00150300F06EC0EF0CB0E096EC3
:100D940058C001F0026A000E046E0A0E036EFDECE8
:100DA4000BF00150300F06EC0EF0D00E036E060E61
:100DB400046ECD0E056E7DEC0DF09EEF06F0560E22
:100DC400036E060E046E800E056E7DEC0DF0560E5D
:100DD400036E060E046EC00E056E7DEC0DF0A0EFE2
:100DE40005F012000D6E0B0E0D18D8A4FCEF06F0E2
:100DF400FEEF06F02BEF07F00B0E4A6E44500B6E1D
:100E040045500C6E444A452A0C5009E1C90E0B5C4E
:100E1400D8A00FEF07F011EF07F079EF07F0120EEB
:100E2400036E060E046E800E056E7DEC0DF04850C8
:100E3400020D700EF324D96E000EF420DA6EDECFAC
:100E440003F0DDCF04F0C00E056E7DEC0DF011EF64
:100E540007F044504510D8B432EF07F034EF07F0F0
:100E640079EF07F0455007E1C80E445CD8B03DEF78
:100E740007F03FEF07F079EF07F00D28D8A445EF0E
:100E840007F047EF07F079EF07F00B0E4A18D8A4E4
:100E94004EEF07F050EF07F079EF07F03C0E586E75
:100EA400000E4B6E0B0E4918D8A45BEF07F05DEFF4
:100EB40007F068EF07F04C064C28D8A464EF07F05D
:100EC40066EF07F068EF07F0000E4C6E48064828FE
:100ED400D8A46FEF07F071EF07F073EF07F0000E7F
:100EE400486E4AC049F0000E456E000E446E0C0E6A
:100EF4000D18D8A480EF07F082EF07F0AFEF07F0EA
:100F04000C0E4A6E44500B6E45500C6E444A452AF2
:100F14000C5009E1C90E0B5CD8A093EF07F095EFD4
:100F240007F001EF08F0000E506E000E4C6E000E3C
:100F3400486E000E4B6E560E036E060E046E800E47
:100F4400056E7DEC0DF0560E036E060E046EC00E9B
:100F5400056E7DEC0DF06CEF08F044504510D8B4EC
:100F6400B6EF07F0B8EF07F001EF08F0455007E1DE
:100F7400C80E445CD8B0C1EF07F0C3EF07F001EF2F
:100F840008F00D28D8A4C9EF07F0CBEF07F001EF64
:100F940008F00C0E4A18D8A4D2EF07F0D4EF07F0EB
:100FA40001EF08F03C0E586E010E4B6E0C0E491802
:100FB400D8A4DFEF07F0E1EF07F0EEEF07F04C2ADB
:100FC4004C040B6E020E0B64EAEF07F0ECEF07F033
:100FD400EEEF07F0030E4C6E482A48040B6E030E26
:100FE4000B64F7EF07F0F9EF07F0FBEF07F0040EDF
:100FF400486E4AC049F0000E456E000E446E4B0424
:10100400D8A407EF08F009EF08F015EF08F0800EF8
:10101400096E200E06EC0EF0C00E096E2A0E06ECC8
:101024000EF027EF08F04B50D8A41BEF08F01DEF8B
:1010340008F027EF08F0800E096E2A0E06EC0EF079
:10104400C00E096E200E06EC0EF04C50020D700E10
:10105400F324D96E000EF420DA6EDECF03F0DDCF78
:1010640004F0820E056E7DEC0DF04C500B6E0C6A94
:10107400D8900B360C36720E0B24D96E000E0C2051
:10108400DA6EDECF03F0DDCF04F0C20E056E7DEC28
:101094000DF0370E5818D8A452EF08F054EF08F0AA
:1010A4006CEF08F0560E036E060E046E800E056E8D
:1010B4007DEC0DF0560E036E060E046EC00E056E2A
:1010C4007DEC0DF0000E506E000E4C6E000E486E5E
:1010D400000E4B6E1200116E1150D8B474EF08F06C
:1010E40076EF08F098EF08F00CBE7DEF08F07BEF88
:1010F40008F098EF08F009C00DF00AC00EF00BC01C
:101104000FF00CC010F00D1E0E1E0F1E101E0D2A27
:10111400000E0E220F2210220DC013F00EC014F088
:101124000FC015F010C016F0A0EF08F009C013F0BE
:101134000AC014F00BC015F00CC016F009500A10C8
:101144000B100C10D8A4A9EF08F0ABEF08F0B5EF22
:1011540008F0000E096E000E0A6E000E0B6E000EF3
:101164000C6E46EF09F0960E126EBFEF08F0122ACD
:10117400D8901632153214321332000E13140D6E39
:10118400000E14140E6E000E15140F6EFE0E1614BF
:10119400106E0D500E100F101010D8A4D4EF08F0DC
:1011A400D6EF08F0B9EF08F0E4EF08F0122A010EC8
:1011B4001326000E142215221622D8901632153248
:1011C40014321332000E13140D6E000E14140E6E2E
:1011D400000E15140F6EFF0E1614106E0D500E1027
:1011E4000F101010D8A4F9EF08F0FBEF08F0D8EFB7
:1011F40008F003EF09F01206D890133614361536AA
:10120400163615BE08EF09F00AEF09F012EF09F0DF
:10121400020E126010EF09F012EF09F0FDEF08F072
:1012240012B017EF09F019EF09F01AEF09F0159E43
:10123400D890123212C00DF00E6A0F6A106A0DC0F7
:1012440010F00F6A0E6A0D6A0D5013120E5014122C
:101254000F501512105016121150D8B434EF09F073
:1012640036EF09F03EEF09F00CBE3DEF09F03BEF1D
:1012740009F03EEF09F0168E13C009F014C00AF00D
:1012840015C00BF016C00CF0120012EC0EF0140E88
:101294001B6EAE0E1C6E230E1D6E410E1E6E040ED2
:1012A40055EC0DF001C009F002C00AF00B6A0C6A9B
:1012B400000E6DEC08F009C017F00AC018F00BC05E
:1012C40019F00CC01AF07AEC03F017C030F018C013
:1012D40031F019C032F01AC033F063EC0AF030C0B8
:1012E4003AF031C03BF0020E5018D8A47CEF09F05C
:1012F4007EEF09F084EF09F0000E8FEC0CF03C6EE9
:1013040088EF09F0010E8FEC0CF03C6E0A0E3C18CD
:10131400D8A48FEF09F091EF09F09DEF09F0010EC9
:10132400506E3C0E586E560E036E060E046EC00EC2
:10133400056E7DEC0DF05004D8A4A3EF09F0A5EFE1
:1013440009F0AAEF09F03C5047EC05F049EF09F029
:10135400020E5018D8A4B1EF09F0B3EF09F0B8EFBA
:1013640009F03C50F4EC06F049EF09F0CB0E036EA3
:10137400060E046E820E056E7DEC0DF0EF0E036E0C
:10138400060E046E8A0E056E7DEC0DF0E90E036EFA
:10139400060E046E8E0E056E7DEC0DF01BEC0EF049
:1013A4003C5048EC0BF03AC00BF03BC00CF09FEC07
:1013B4000DF049EF09F007EF00F0819A818C818EDE
:1013C40081B2E7EF09F0E9EF09F0ECEF09F0010E63
:1013D40062EF0AF081B4F1EF09F0F3EF09F0F6EFF0
:1013E40009F0040E62EF0AF081B6FBEF09F0FDEF9D
:1013F40009F000EF0AF0070E62EF0AF081B805EF7A
:101404000AF007EF0AF00AEF0AF00A0E62EF0AF098
:10141400818A819C818E81B212EF0AF014EF0AF066
:1014240017EF0AF0020E62EF0AF081B41CEF0AF023
:101434001EEF0AF021EF0AF0050E62EF0AF081B602
:1014440026EF0AF028EF0AF02BEF0AF0080E62EFFD
:101454000AF081B830EF0AF032EF0AF035EF0AF003
:101464000B0E62EF0AF0818A818C819E819E81B28B
:101474003EEF0AF040EF0AF043EF0AF0030E62EF8A
:101484000AF081B448EF0AF04AEF0AF04DEF0AF08F
:10149400060E62EF0AF081B652EF0AF054EF0AF03A
:1014A40057EF0AF0090E62EF0AF081B85CEF0AF018
:1014B4005EEF0AF061EF0AF00C0E62EF0AF0FF0E25
:1014C400120032343334396E3950D8A46CEF0AF038
:1014D4006EEF0AF078EF0AF0000E306E000E316EF7
:1014E400000E326E000E336EE5EF0AF030C034F0B9
:1014F40031C035F032C036F033C037F0200E88EFFB
:101504000AF0D8903732363235323432E82E83EF4F
:101514000AF03450386E328EFF0E3016FF0E31163C
:10152400FF0E3216000E3316960E395E39BE9FEF4B
:101534000AF09DEF0AF0B5EF0AF03950800A970FD0
:10154400D8B0A7EF0AF0A9EF0AF0ABEF0AF06EEFFC
:101554000AF0D8903332323231323032393EABEF86
:101564000AF0CDEF0AF01F0E3964BBEF0AF0BDEFAD
:101574000AF0C5EF0AF06EEF0AF0D8903036313633
:101584003236333639063950D8A4CBEF0AF0CDEFD2
:101594000AF0BFEF0AF03850D8B4D3EF0AF0D5EF11
:1015A4000AF0DDEF0AF0331E321E311E306C000EDD
:1015B40031223222332230C030F031C031F032C017
:1015C40032F033C033F01200000E066E04BEEFEFAB
:1015D4000AF0EDEF0AF0F5EF0AF0036C041ED8B040
:1015E400042A010E066E02BEFCEF0AF0FAEF0AF0BE
:1015F40002EF0BF0016C021ED8B0022A010E061A8B
:10160400000E086E000E076E03500410D8B40DEFE0
:101614000BF00FEF0BF037EF0BF0010E056E17EF29
:101624000BF0D89003360436052A04AE1CEF0BF0F9
:101634001EEF0BF013EF0BF0D8900736083603506B
:10164400015C04500258D8A02AEF0BF02CEF0BF0E9
:1016540031EF0BF00350015E0450025A0780D8901A
:1016640004320332052E1EEF0BF00650D8B43DEFC2
:101674000BF03FEF0BF043EF0BF0076C081ED8B0F4
:10168400082A07C001F008C002F01200066E060422
:10169400D8A44FEF0BF051EF0BF055EF0BF0010E08
:1016A400466E000E476E020E0618D8A45CEF0BF0CF
:1016B4005EEF0BF06CEF0BF0000E466E472A070E40
:1016C4004718D8A468EF0BF06AEF0BF06CEF0BF03F
:1016D400060E476E030E0618D8A473EF0BF075EFD1
:1016E4000BF082EF0BF04650D8A47BEF0BF07DEFAC
:1016F4000BF082EF0BF0472E82EF0BF0010E476EDA
:101704004604D8A488EF0BF08AEF0BF094EF0BF0AB
:101714006EC003F06FC004F0CA0E056E7DEC0DF0D0
:10172400A4EF0BF04750020D600EF324D96E000EA7
:10173400F420DA6EDECF03F0DDCF04F0CA0E056EBE
:101744007DEC0DF01200000E956E9450F80B946E23
:101754008290020E046E040E036EBA0EE82EFED7BB
:10176400032EFCD7042EFAD700D0000E016E330EE0
:10177400C0EC0DF01B0E036E9E0EE82EFED7032E5A
:10178400FCD700D0000E016E330EC0EC0DF0A60E97
:10179400E82EFED700D0000E016E330EC0EC0DF023
:1017A40000D000D000F0000E016E020EC0EC0DF06F
:1017B400A60EE82EFED700D0000E016E380EC0EC47
:1017C4000DF0A60EE82EFED700D0000E016E010E1D
:1017D400C0EC0DF0040E036E3E0EE82EFED7032E71
:1017E400FCD7000E016E0C0EC0EC0DF0A60EE82E18
:1017F400FED700D01200000E066E02BE06EF0CF0FB
:1018040004EF0CF00CEF0CF0016C021ED8B0022AAD
:10181400010E066E04BE13EF0CF011EF0CF017EF7F
:101824000CF0036C041ED8B0042A03500410D8B47E
:101834001EEF0CF020EF0CF044EF0CF0010E056EDF
:1018440028EF0CF0D89003360436052A04AE2DEFA9
:101854000CF02FEF0CF024EF0CF00350015C04505B
:101864000258D8A038EF0CF03AEF0CF03EEF0CF031
:101874000350015E0450025AD89004320332052EFC
:101884002FEF0CF00650D8B44AEF0CF04CEF0CF0EC
:1018940050EF0CF0016C021ED8B0022A01C001F016
:1018A40002C002F01200000E066E000E056E035018
:1018B4000410D8B460EF0CF062EF0CF08AEF0CF077
:1018C400010E076E6AEF0CF0D89003360436072A2F
:1018D40004AE6FEF0CF071EF0CF066EF0CF0D890E3
:1018E400053606360350015C04500258D8A07DEF3B
:1018F4000CF07FEF0CF084EF0CF00350015E045009
:10190400025A0580D89004320332072E71EF0CF08E
:1019140005C001F006C002F01200016E0150D8A407
:1019240096EF0CF098EF0CF09CEF0CF0DFEC09F064
:10193400C7EF0CF00104D8A4A2EF0CF0A4EF0CF054
:10194400C7EF0CF0DFEC09F04F6E4F28D8B4ADEFC1
:101954000CF0AFEF0CF0BCEF0CF05750D8B4B5EF6F
:101964000CF0B7EF0CF0BCEF0CF0000E576E4F50BC
:10197400C7EF0CF04F28D8A4C2EF0CF0C4EF0CF062
:10198400C6EF0CF0010E576EFF0E12000350041048
:10199400D8B4CFEF0CF0D1EF0CF0F5EF0CF0010E52
:1019A400056ED9EF0CF0D89003360436052A04AE40
:1019B400DEEF0CF0E0EF0CF0D5EF0CF00350015C1F
:1019C40004500258D8A0E9EF0CF0EBEF0CF0EFEF65
:1019D4000CF00350015E0450025AD89004320332D2
:1019E400052EE0EF0CF001C001F002C002F012007D
:1019F400D80EF66E1B0EF76E000EF86E00EE60F059
:101A040010EE1AF00900F5CFEEFFE550E150FAE1CF
:101A1400480EF66E1C0EF76E000EF86E00EE51F0D6
:101A240010EE08F00900F5CFEEFFE550E150FAE1C1
:101A340000EE3DF0140EEE6AE806FDE1599059926D
:101A4400000EF86E060EF76E000147EF09F006006F
:101A5400DE0ED624D66E0B0ED720D76EF2A435EF49
:101A64000DF037EF0DF053EF0DF0424A432A510EBB
:101A740042184310D8A441EF0DF043EF0DF052EF9C
:101A84000DF058065828D8A44AEF0DF04CEF0DF08D
:101A94004EEF0DF03C0E586E000E436E000E426E7B
:101AA400F29459921100086E08C003F0D8900336DE
:101AB400D8900336C250C30B0310C26EC28275EFB6
:101AC4000DF0C4CF03F0030E03160350056E046A31
:101AD400C350066E076A04500610016E05500710C5
:101AE400026E7CEF0DF0C2B27AEF0DF07CEF0DF0D8
:101AF40063EF0DF01200000E016E0550C0EC0DF006
:101B040090EF0DF0010E016E03C0F6FF04C0F7FF65
:101B14000800F550C0EC0DF0034A042A03C0F6FF98
:101B240004C0F7FF0800F5500009D8A49CEF0DF09D
:101B34009EEF0DF084EF0DF01200CE0E096E0BC077
:101B440001F00CC002F0000E046E0A0E036E55EC98
:101B54000CF00150300F06EC0EF0CF0E096E0BC0E6
:101B640001F00CC002F0000E046E0A0E036EC8EC05
:101B74000CF00150300F06EC0EF01200026E01B0B2
:101B8400C6EF0DF0C9EF0DF08282CAEF0DF082921C
:101B940002C083FF82848294958E828082928284A2
:101BA400829483BED8EF0DF0DAEF0DF0D1EF0DF093
:101BB4008290959E1200C280C19AC198C186C19438
:101BC400C182C190C08AC098C096C094C082C0909F
:101BD400C08E1200E606E306D706DA06DD06E00646
:101BE400EC06D406830676069D069006AA06F28EB7
:101BF400F28CF28AF2940B0ED76EDC0ED66ED58E72
:101C0400D59CD59AD58612000A6E000E016E095035
:101C1400C0EC0DF0010E016E0A50C0EC0DF0120084
:101C2400A5EC0BF028EC0EF0DDEC0DF0F9EC0DF06A
:101C34001200C20E036E060E046EC00E056E7DEC1D
:101C44000DF01200313031300003013C1E0E936E52
:041C5400F19E1200EB
:020000040020DA
:08000000FFFFFFFFFFFFFFFF00
:020000040030CA
:0E000000FF071F1FFF8285FF0FC00FE00F409C
:00000001FF
